
ElectronicDcLoad.elf:     file format elf32-littlearm

Sections:
Idx Name          Size      VMA       LMA       File off  Algn
  0 .isr_vector   0000010c  08000000  08000000  00010000  2**0
                  CONTENTS, ALLOC, LOAD, READONLY, DATA
  1 .text         0000aae0  0800010c  0800010c  0001010c  2**2
                  CONTENTS, ALLOC, LOAD, READONLY, CODE
  2 .rodata       000002dc  0800abec  0800abec  0001abec  2**2
                  CONTENTS, ALLOC, LOAD, READONLY, DATA
  3 .ARM.extab    00000000  0800aec8  0800aec8  00020180  2**0
                  CONTENTS
  4 .ARM          00000000  0800aec8  0800aec8  00020180  2**0
                  CONTENTS
  5 .preinit_array 00000000  0800aec8  0800aec8  00020180  2**0
                  CONTENTS, ALLOC, LOAD, DATA
  6 .init_array   00000004  0800aec8  0800aec8  0001aec8  2**2
                  CONTENTS, ALLOC, LOAD, DATA
  7 .fini_array   00000004  0800aecc  0800aecc  0001aecc  2**2
                  CONTENTS, ALLOC, LOAD, DATA
  8 .data         00000180  20000000  0800aed0  00020000  2**2
                  CONTENTS, ALLOC, LOAD, DATA
  9 .bss          00001384  20000180  0800b050  00020180  2**2
                  ALLOC
 10 ._user_heap_stack 00000604  20001504  0800b050  00021504  2**0
                  ALLOC
 11 .ARM.attributes 00000029  00000000  00000000  00020180  2**0
                  CONTENTS, READONLY
 12 .debug_info   0001d511  00000000  00000000  000201a9  2**0
                  CONTENTS, READONLY, DEBUGGING, OCTETS
 13 .debug_abbrev 00003f62  00000000  00000000  0003d6ba  2**0
                  CONTENTS, READONLY, DEBUGGING, OCTETS
 14 .debug_aranges 000014e0  00000000  00000000  00041620  2**3
                  CONTENTS, READONLY, DEBUGGING, OCTETS
 15 .debug_ranges 00001328  00000000  00000000  00042b00  2**3
                  CONTENTS, READONLY, DEBUGGING, OCTETS
 16 .debug_macro  0001c04e  00000000  00000000  00043e28  2**0
                  CONTENTS, READONLY, DEBUGGING, OCTETS
 17 .debug_line   00018b3c  00000000  00000000  0005fe76  2**0
                  CONTENTS, READONLY, DEBUGGING, OCTETS
 18 .debug_str    000942bf  00000000  00000000  000789b2  2**0
                  CONTENTS, READONLY, DEBUGGING, OCTETS
 19 .comment      00000053  00000000  00000000  0010cc71  2**0
                  CONTENTS, READONLY
 20 .debug_frame  000056ec  00000000  00000000  0010ccc4  2**2
                  CONTENTS, READONLY, DEBUGGING, OCTETS

Disassembly of section .text:

0800010c <__do_global_dtors_aux>:
 800010c:	b510      	push	{r4, lr}
 800010e:	4c05      	ldr	r4, [pc, #20]	; (8000124 <__do_global_dtors_aux+0x18>)
 8000110:	7823      	ldrb	r3, [r4, #0]
 8000112:	b933      	cbnz	r3, 8000122 <__do_global_dtors_aux+0x16>
 8000114:	4b04      	ldr	r3, [pc, #16]	; (8000128 <__do_global_dtors_aux+0x1c>)
 8000116:	b113      	cbz	r3, 800011e <__do_global_dtors_aux+0x12>
 8000118:	4804      	ldr	r0, [pc, #16]	; (800012c <__do_global_dtors_aux+0x20>)
 800011a:	f3af 8000 	nop.w
 800011e:	2301      	movs	r3, #1
 8000120:	7023      	strb	r3, [r4, #0]
 8000122:	bd10      	pop	{r4, pc}
 8000124:	20000180 	.word	0x20000180
 8000128:	00000000 	.word	0x00000000
 800012c:	0800abd4 	.word	0x0800abd4

08000130 <frame_dummy>:
 8000130:	b508      	push	{r3, lr}
 8000132:	4b03      	ldr	r3, [pc, #12]	; (8000140 <frame_dummy+0x10>)
 8000134:	b11b      	cbz	r3, 800013e <frame_dummy+0xe>
 8000136:	4903      	ldr	r1, [pc, #12]	; (8000144 <frame_dummy+0x14>)
 8000138:	4803      	ldr	r0, [pc, #12]	; (8000148 <frame_dummy+0x18>)
 800013a:	f3af 8000 	nop.w
 800013e:	bd08      	pop	{r3, pc}
 8000140:	00000000 	.word	0x00000000
 8000144:	20000184 	.word	0x20000184
 8000148:	0800abd4 	.word	0x0800abd4

0800014c <__aeabi_drsub>:
 800014c:	f081 4100 	eor.w	r1, r1, #2147483648	; 0x80000000
 8000150:	e002      	b.n	8000158 <__adddf3>
 8000152:	bf00      	nop

08000154 <__aeabi_dsub>:
 8000154:	f083 4300 	eor.w	r3, r3, #2147483648	; 0x80000000

08000158 <__adddf3>:
 8000158:	b530      	push	{r4, r5, lr}
 800015a:	ea4f 0441 	mov.w	r4, r1, lsl #1
 800015e:	ea4f 0543 	mov.w	r5, r3, lsl #1
 8000162:	ea94 0f05 	teq	r4, r5
 8000166:	bf08      	it	eq
 8000168:	ea90 0f02 	teqeq	r0, r2
 800016c:	bf1f      	itttt	ne
 800016e:	ea54 0c00 	orrsne.w	ip, r4, r0
 8000172:	ea55 0c02 	orrsne.w	ip, r5, r2
 8000176:	ea7f 5c64 	mvnsne.w	ip, r4, asr #21
 800017a:	ea7f 5c65 	mvnsne.w	ip, r5, asr #21
 800017e:	f000 80e2 	beq.w	8000346 <__adddf3+0x1ee>
 8000182:	ea4f 5454 	mov.w	r4, r4, lsr #21
 8000186:	ebd4 5555 	rsbs	r5, r4, r5, lsr #21
 800018a:	bfb8      	it	lt
 800018c:	426d      	neglt	r5, r5
 800018e:	dd0c      	ble.n	80001aa <__adddf3+0x52>
 8000190:	442c      	add	r4, r5
 8000192:	ea80 0202 	eor.w	r2, r0, r2
 8000196:	ea81 0303 	eor.w	r3, r1, r3
 800019a:	ea82 0000 	eor.w	r0, r2, r0
 800019e:	ea83 0101 	eor.w	r1, r3, r1
 80001a2:	ea80 0202 	eor.w	r2, r0, r2
 80001a6:	ea81 0303 	eor.w	r3, r1, r3
 80001aa:	2d36      	cmp	r5, #54	; 0x36
 80001ac:	bf88      	it	hi
 80001ae:	bd30      	pophi	{r4, r5, pc}
 80001b0:	f011 4f00 	tst.w	r1, #2147483648	; 0x80000000
 80001b4:	ea4f 3101 	mov.w	r1, r1, lsl #12
 80001b8:	f44f 1c80 	mov.w	ip, #1048576	; 0x100000
 80001bc:	ea4c 3111 	orr.w	r1, ip, r1, lsr #12
 80001c0:	d002      	beq.n	80001c8 <__adddf3+0x70>
 80001c2:	4240      	negs	r0, r0
 80001c4:	eb61 0141 	sbc.w	r1, r1, r1, lsl #1
 80001c8:	f013 4f00 	tst.w	r3, #2147483648	; 0x80000000
 80001cc:	ea4f 3303 	mov.w	r3, r3, lsl #12
 80001d0:	ea4c 3313 	orr.w	r3, ip, r3, lsr #12
 80001d4:	d002      	beq.n	80001dc <__adddf3+0x84>
 80001d6:	4252      	negs	r2, r2
 80001d8:	eb63 0343 	sbc.w	r3, r3, r3, lsl #1
 80001dc:	ea94 0f05 	teq	r4, r5
 80001e0:	f000 80a7 	beq.w	8000332 <__adddf3+0x1da>
 80001e4:	f1a4 0401 	sub.w	r4, r4, #1
 80001e8:	f1d5 0e20 	rsbs	lr, r5, #32
 80001ec:	db0d      	blt.n	800020a <__adddf3+0xb2>
 80001ee:	fa02 fc0e 	lsl.w	ip, r2, lr
 80001f2:	fa22 f205 	lsr.w	r2, r2, r5
 80001f6:	1880      	adds	r0, r0, r2
 80001f8:	f141 0100 	adc.w	r1, r1, #0
 80001fc:	fa03 f20e 	lsl.w	r2, r3, lr
 8000200:	1880      	adds	r0, r0, r2
 8000202:	fa43 f305 	asr.w	r3, r3, r5
 8000206:	4159      	adcs	r1, r3
 8000208:	e00e      	b.n	8000228 <__adddf3+0xd0>
 800020a:	f1a5 0520 	sub.w	r5, r5, #32
 800020e:	f10e 0e20 	add.w	lr, lr, #32
 8000212:	2a01      	cmp	r2, #1
 8000214:	fa03 fc0e 	lsl.w	ip, r3, lr
 8000218:	bf28      	it	cs
 800021a:	f04c 0c02 	orrcs.w	ip, ip, #2
 800021e:	fa43 f305 	asr.w	r3, r3, r5
 8000222:	18c0      	adds	r0, r0, r3
 8000224:	eb51 71e3 	adcs.w	r1, r1, r3, asr #31
 8000228:	f001 4500 	and.w	r5, r1, #2147483648	; 0x80000000
 800022c:	d507      	bpl.n	800023e <__adddf3+0xe6>
 800022e:	f04f 0e00 	mov.w	lr, #0
 8000232:	f1dc 0c00 	rsbs	ip, ip, #0
 8000236:	eb7e 0000 	sbcs.w	r0, lr, r0
 800023a:	eb6e 0101 	sbc.w	r1, lr, r1
 800023e:	f5b1 1f80 	cmp.w	r1, #1048576	; 0x100000
 8000242:	d31b      	bcc.n	800027c <__adddf3+0x124>
 8000244:	f5b1 1f00 	cmp.w	r1, #2097152	; 0x200000
 8000248:	d30c      	bcc.n	8000264 <__adddf3+0x10c>
 800024a:	0849      	lsrs	r1, r1, #1
 800024c:	ea5f 0030 	movs.w	r0, r0, rrx
 8000250:	ea4f 0c3c 	mov.w	ip, ip, rrx
 8000254:	f104 0401 	add.w	r4, r4, #1
 8000258:	ea4f 5244 	mov.w	r2, r4, lsl #21
 800025c:	f512 0f80 	cmn.w	r2, #4194304	; 0x400000
 8000260:	f080 809a 	bcs.w	8000398 <__adddf3+0x240>
 8000264:	f1bc 4f00 	cmp.w	ip, #2147483648	; 0x80000000
 8000268:	bf08      	it	eq
 800026a:	ea5f 0c50 	movseq.w	ip, r0, lsr #1
 800026e:	f150 0000 	adcs.w	r0, r0, #0
 8000272:	eb41 5104 	adc.w	r1, r1, r4, lsl #20
 8000276:	ea41 0105 	orr.w	r1, r1, r5
 800027a:	bd30      	pop	{r4, r5, pc}
 800027c:	ea5f 0c4c 	movs.w	ip, ip, lsl #1
 8000280:	4140      	adcs	r0, r0
 8000282:	eb41 0101 	adc.w	r1, r1, r1
 8000286:	3c01      	subs	r4, #1
 8000288:	bf28      	it	cs
 800028a:	f5b1 1f80 	cmpcs.w	r1, #1048576	; 0x100000
 800028e:	d2e9      	bcs.n	8000264 <__adddf3+0x10c>
 8000290:	f091 0f00 	teq	r1, #0
 8000294:	bf04      	itt	eq
 8000296:	4601      	moveq	r1, r0
 8000298:	2000      	moveq	r0, #0
 800029a:	fab1 f381 	clz	r3, r1
 800029e:	bf08      	it	eq
 80002a0:	3320      	addeq	r3, #32
 80002a2:	f1a3 030b 	sub.w	r3, r3, #11
 80002a6:	f1b3 0220 	subs.w	r2, r3, #32
 80002aa:	da0c      	bge.n	80002c6 <__adddf3+0x16e>
 80002ac:	320c      	adds	r2, #12
 80002ae:	dd08      	ble.n	80002c2 <__adddf3+0x16a>
 80002b0:	f102 0c14 	add.w	ip, r2, #20
 80002b4:	f1c2 020c 	rsb	r2, r2, #12
 80002b8:	fa01 f00c 	lsl.w	r0, r1, ip
 80002bc:	fa21 f102 	lsr.w	r1, r1, r2
 80002c0:	e00c      	b.n	80002dc <__adddf3+0x184>
 80002c2:	f102 0214 	add.w	r2, r2, #20
 80002c6:	bfd8      	it	le
 80002c8:	f1c2 0c20 	rsble	ip, r2, #32
 80002cc:	fa01 f102 	lsl.w	r1, r1, r2
 80002d0:	fa20 fc0c 	lsr.w	ip, r0, ip
 80002d4:	bfdc      	itt	le
 80002d6:	ea41 010c 	orrle.w	r1, r1, ip
 80002da:	4090      	lslle	r0, r2
 80002dc:	1ae4      	subs	r4, r4, r3
 80002de:	bfa2      	ittt	ge
 80002e0:	eb01 5104 	addge.w	r1, r1, r4, lsl #20
 80002e4:	4329      	orrge	r1, r5
 80002e6:	bd30      	popge	{r4, r5, pc}
 80002e8:	ea6f 0404 	mvn.w	r4, r4
 80002ec:	3c1f      	subs	r4, #31
 80002ee:	da1c      	bge.n	800032a <__adddf3+0x1d2>
 80002f0:	340c      	adds	r4, #12
 80002f2:	dc0e      	bgt.n	8000312 <__adddf3+0x1ba>
 80002f4:	f104 0414 	add.w	r4, r4, #20
 80002f8:	f1c4 0220 	rsb	r2, r4, #32
 80002fc:	fa20 f004 	lsr.w	r0, r0, r4
 8000300:	fa01 f302 	lsl.w	r3, r1, r2
 8000304:	ea40 0003 	orr.w	r0, r0, r3
 8000308:	fa21 f304 	lsr.w	r3, r1, r4
 800030c:	ea45 0103 	orr.w	r1, r5, r3
 8000310:	bd30      	pop	{r4, r5, pc}
 8000312:	f1c4 040c 	rsb	r4, r4, #12
 8000316:	f1c4 0220 	rsb	r2, r4, #32
 800031a:	fa20 f002 	lsr.w	r0, r0, r2
 800031e:	fa01 f304 	lsl.w	r3, r1, r4
 8000322:	ea40 0003 	orr.w	r0, r0, r3
 8000326:	4629      	mov	r1, r5
 8000328:	bd30      	pop	{r4, r5, pc}
 800032a:	fa21 f004 	lsr.w	r0, r1, r4
 800032e:	4629      	mov	r1, r5
 8000330:	bd30      	pop	{r4, r5, pc}
 8000332:	f094 0f00 	teq	r4, #0
 8000336:	f483 1380 	eor.w	r3, r3, #1048576	; 0x100000
 800033a:	bf06      	itte	eq
 800033c:	f481 1180 	eoreq.w	r1, r1, #1048576	; 0x100000
 8000340:	3401      	addeq	r4, #1
 8000342:	3d01      	subne	r5, #1
 8000344:	e74e      	b.n	80001e4 <__adddf3+0x8c>
 8000346:	ea7f 5c64 	mvns.w	ip, r4, asr #21
 800034a:	bf18      	it	ne
 800034c:	ea7f 5c65 	mvnsne.w	ip, r5, asr #21
 8000350:	d029      	beq.n	80003a6 <__adddf3+0x24e>
 8000352:	ea94 0f05 	teq	r4, r5
 8000356:	bf08      	it	eq
 8000358:	ea90 0f02 	teqeq	r0, r2
 800035c:	d005      	beq.n	800036a <__adddf3+0x212>
 800035e:	ea54 0c00 	orrs.w	ip, r4, r0
 8000362:	bf04      	itt	eq
 8000364:	4619      	moveq	r1, r3
 8000366:	4610      	moveq	r0, r2
 8000368:	bd30      	pop	{r4, r5, pc}
 800036a:	ea91 0f03 	teq	r1, r3
 800036e:	bf1e      	ittt	ne
 8000370:	2100      	movne	r1, #0
 8000372:	2000      	movne	r0, #0
 8000374:	bd30      	popne	{r4, r5, pc}
 8000376:	ea5f 5c54 	movs.w	ip, r4, lsr #21
 800037a:	d105      	bne.n	8000388 <__adddf3+0x230>
 800037c:	0040      	lsls	r0, r0, #1
 800037e:	4149      	adcs	r1, r1
 8000380:	bf28      	it	cs
 8000382:	f041 4100 	orrcs.w	r1, r1, #2147483648	; 0x80000000
 8000386:	bd30      	pop	{r4, r5, pc}
 8000388:	f514 0480 	adds.w	r4, r4, #4194304	; 0x400000
 800038c:	bf3c      	itt	cc
 800038e:	f501 1180 	addcc.w	r1, r1, #1048576	; 0x100000
 8000392:	bd30      	popcc	{r4, r5, pc}
 8000394:	f001 4500 	and.w	r5, r1, #2147483648	; 0x80000000
 8000398:	f045 41fe 	orr.w	r1, r5, #2130706432	; 0x7f000000
 800039c:	f441 0170 	orr.w	r1, r1, #15728640	; 0xf00000
 80003a0:	f04f 0000 	mov.w	r0, #0
 80003a4:	bd30      	pop	{r4, r5, pc}
 80003a6:	ea7f 5c64 	mvns.w	ip, r4, asr #21
 80003aa:	bf1a      	itte	ne
 80003ac:	4619      	movne	r1, r3
 80003ae:	4610      	movne	r0, r2
 80003b0:	ea7f 5c65 	mvnseq.w	ip, r5, asr #21
 80003b4:	bf1c      	itt	ne
 80003b6:	460b      	movne	r3, r1
 80003b8:	4602      	movne	r2, r0
 80003ba:	ea50 3401 	orrs.w	r4, r0, r1, lsl #12
 80003be:	bf06      	itte	eq
 80003c0:	ea52 3503 	orrseq.w	r5, r2, r3, lsl #12
 80003c4:	ea91 0f03 	teqeq	r1, r3
 80003c8:	f441 2100 	orrne.w	r1, r1, #524288	; 0x80000
 80003cc:	bd30      	pop	{r4, r5, pc}
 80003ce:	bf00      	nop

080003d0 <__aeabi_ui2d>:
 80003d0:	f090 0f00 	teq	r0, #0
 80003d4:	bf04      	itt	eq
 80003d6:	2100      	moveq	r1, #0
 80003d8:	4770      	bxeq	lr
 80003da:	b530      	push	{r4, r5, lr}
 80003dc:	f44f 6480 	mov.w	r4, #1024	; 0x400
 80003e0:	f104 0432 	add.w	r4, r4, #50	; 0x32
 80003e4:	f04f 0500 	mov.w	r5, #0
 80003e8:	f04f 0100 	mov.w	r1, #0
 80003ec:	e750      	b.n	8000290 <__adddf3+0x138>
 80003ee:	bf00      	nop

080003f0 <__aeabi_i2d>:
 80003f0:	f090 0f00 	teq	r0, #0
 80003f4:	bf04      	itt	eq
 80003f6:	2100      	moveq	r1, #0
 80003f8:	4770      	bxeq	lr
 80003fa:	b530      	push	{r4, r5, lr}
 80003fc:	f44f 6480 	mov.w	r4, #1024	; 0x400
 8000400:	f104 0432 	add.w	r4, r4, #50	; 0x32
 8000404:	f010 4500 	ands.w	r5, r0, #2147483648	; 0x80000000
 8000408:	bf48      	it	mi
 800040a:	4240      	negmi	r0, r0
 800040c:	f04f 0100 	mov.w	r1, #0
 8000410:	e73e      	b.n	8000290 <__adddf3+0x138>
 8000412:	bf00      	nop

08000414 <__aeabi_f2d>:
 8000414:	0042      	lsls	r2, r0, #1
 8000416:	ea4f 01e2 	mov.w	r1, r2, asr #3
 800041a:	ea4f 0131 	mov.w	r1, r1, rrx
 800041e:	ea4f 7002 	mov.w	r0, r2, lsl #28
 8000422:	bf1f      	itttt	ne
 8000424:	f012 437f 	andsne.w	r3, r2, #4278190080	; 0xff000000
 8000428:	f093 4f7f 	teqne	r3, #4278190080	; 0xff000000
 800042c:	f081 5160 	eorne.w	r1, r1, #939524096	; 0x38000000
 8000430:	4770      	bxne	lr
 8000432:	f032 427f 	bics.w	r2, r2, #4278190080	; 0xff000000
 8000436:	bf08      	it	eq
 8000438:	4770      	bxeq	lr
 800043a:	f093 4f7f 	teq	r3, #4278190080	; 0xff000000
 800043e:	bf04      	itt	eq
 8000440:	f441 2100 	orreq.w	r1, r1, #524288	; 0x80000
 8000444:	4770      	bxeq	lr
 8000446:	b530      	push	{r4, r5, lr}
 8000448:	f44f 7460 	mov.w	r4, #896	; 0x380
 800044c:	f001 4500 	and.w	r5, r1, #2147483648	; 0x80000000
 8000450:	f021 4100 	bic.w	r1, r1, #2147483648	; 0x80000000
 8000454:	e71c      	b.n	8000290 <__adddf3+0x138>
 8000456:	bf00      	nop

08000458 <__aeabi_ul2d>:
 8000458:	ea50 0201 	orrs.w	r2, r0, r1
 800045c:	bf08      	it	eq
 800045e:	4770      	bxeq	lr
 8000460:	b530      	push	{r4, r5, lr}
 8000462:	f04f 0500 	mov.w	r5, #0
 8000466:	e00a      	b.n	800047e <__aeabi_l2d+0x16>

08000468 <__aeabi_l2d>:
 8000468:	ea50 0201 	orrs.w	r2, r0, r1
 800046c:	bf08      	it	eq
 800046e:	4770      	bxeq	lr
 8000470:	b530      	push	{r4, r5, lr}
 8000472:	f011 4500 	ands.w	r5, r1, #2147483648	; 0x80000000
 8000476:	d502      	bpl.n	800047e <__aeabi_l2d+0x16>
 8000478:	4240      	negs	r0, r0
 800047a:	eb61 0141 	sbc.w	r1, r1, r1, lsl #1
 800047e:	f44f 6480 	mov.w	r4, #1024	; 0x400
 8000482:	f104 0432 	add.w	r4, r4, #50	; 0x32
 8000486:	ea5f 5c91 	movs.w	ip, r1, lsr #22
 800048a:	f43f aed8 	beq.w	800023e <__adddf3+0xe6>
 800048e:	f04f 0203 	mov.w	r2, #3
 8000492:	ea5f 0cdc 	movs.w	ip, ip, lsr #3
 8000496:	bf18      	it	ne
 8000498:	3203      	addne	r2, #3
 800049a:	ea5f 0cdc 	movs.w	ip, ip, lsr #3
 800049e:	bf18      	it	ne
 80004a0:	3203      	addne	r2, #3
 80004a2:	eb02 02dc 	add.w	r2, r2, ip, lsr #3
 80004a6:	f1c2 0320 	rsb	r3, r2, #32
 80004aa:	fa00 fc03 	lsl.w	ip, r0, r3
 80004ae:	fa20 f002 	lsr.w	r0, r0, r2
 80004b2:	fa01 fe03 	lsl.w	lr, r1, r3
 80004b6:	ea40 000e 	orr.w	r0, r0, lr
 80004ba:	fa21 f102 	lsr.w	r1, r1, r2
 80004be:	4414      	add	r4, r2
 80004c0:	e6bd      	b.n	800023e <__adddf3+0xe6>
 80004c2:	bf00      	nop

080004c4 <__aeabi_dmul>:
 80004c4:	b570      	push	{r4, r5, r6, lr}
 80004c6:	f04f 0cff 	mov.w	ip, #255	; 0xff
 80004ca:	f44c 6ce0 	orr.w	ip, ip, #1792	; 0x700
 80004ce:	ea1c 5411 	ands.w	r4, ip, r1, lsr #20
 80004d2:	bf1d      	ittte	ne
 80004d4:	ea1c 5513 	andsne.w	r5, ip, r3, lsr #20
 80004d8:	ea94 0f0c 	teqne	r4, ip
 80004dc:	ea95 0f0c 	teqne	r5, ip
 80004e0:	f000 f8de 	bleq	80006a0 <__aeabi_dmul+0x1dc>
 80004e4:	442c      	add	r4, r5
 80004e6:	ea81 0603 	eor.w	r6, r1, r3
 80004ea:	ea21 514c 	bic.w	r1, r1, ip, lsl #21
 80004ee:	ea23 534c 	bic.w	r3, r3, ip, lsl #21
 80004f2:	ea50 3501 	orrs.w	r5, r0, r1, lsl #12
 80004f6:	bf18      	it	ne
 80004f8:	ea52 3503 	orrsne.w	r5, r2, r3, lsl #12
 80004fc:	f441 1180 	orr.w	r1, r1, #1048576	; 0x100000
 8000500:	f443 1380 	orr.w	r3, r3, #1048576	; 0x100000
 8000504:	d038      	beq.n	8000578 <__aeabi_dmul+0xb4>
 8000506:	fba0 ce02 	umull	ip, lr, r0, r2
 800050a:	f04f 0500 	mov.w	r5, #0
 800050e:	fbe1 e502 	umlal	lr, r5, r1, r2
 8000512:	f006 4200 	and.w	r2, r6, #2147483648	; 0x80000000
 8000516:	fbe0 e503 	umlal	lr, r5, r0, r3
 800051a:	f04f 0600 	mov.w	r6, #0
 800051e:	fbe1 5603 	umlal	r5, r6, r1, r3
 8000522:	f09c 0f00 	teq	ip, #0
 8000526:	bf18      	it	ne
 8000528:	f04e 0e01 	orrne.w	lr, lr, #1
 800052c:	f1a4 04ff 	sub.w	r4, r4, #255	; 0xff
 8000530:	f5b6 7f00 	cmp.w	r6, #512	; 0x200
 8000534:	f564 7440 	sbc.w	r4, r4, #768	; 0x300
 8000538:	d204      	bcs.n	8000544 <__aeabi_dmul+0x80>
 800053a:	ea5f 0e4e 	movs.w	lr, lr, lsl #1
 800053e:	416d      	adcs	r5, r5
 8000540:	eb46 0606 	adc.w	r6, r6, r6
 8000544:	ea42 21c6 	orr.w	r1, r2, r6, lsl #11
 8000548:	ea41 5155 	orr.w	r1, r1, r5, lsr #21
 800054c:	ea4f 20c5 	mov.w	r0, r5, lsl #11
 8000550:	ea40 505e 	orr.w	r0, r0, lr, lsr #21
 8000554:	ea4f 2ece 	mov.w	lr, lr, lsl #11
 8000558:	f1b4 0cfd 	subs.w	ip, r4, #253	; 0xfd
 800055c:	bf88      	it	hi
 800055e:	f5bc 6fe0 	cmphi.w	ip, #1792	; 0x700
 8000562:	d81e      	bhi.n	80005a2 <__aeabi_dmul+0xde>
 8000564:	f1be 4f00 	cmp.w	lr, #2147483648	; 0x80000000
 8000568:	bf08      	it	eq
 800056a:	ea5f 0e50 	movseq.w	lr, r0, lsr #1
 800056e:	f150 0000 	adcs.w	r0, r0, #0
 8000572:	eb41 5104 	adc.w	r1, r1, r4, lsl #20
 8000576:	bd70      	pop	{r4, r5, r6, pc}
 8000578:	f006 4600 	and.w	r6, r6, #2147483648	; 0x80000000
 800057c:	ea46 0101 	orr.w	r1, r6, r1
 8000580:	ea40 0002 	orr.w	r0, r0, r2
 8000584:	ea81 0103 	eor.w	r1, r1, r3
 8000588:	ebb4 045c 	subs.w	r4, r4, ip, lsr #1
 800058c:	bfc2      	ittt	gt
 800058e:	ebd4 050c 	rsbsgt	r5, r4, ip
 8000592:	ea41 5104 	orrgt.w	r1, r1, r4, lsl #20
 8000596:	bd70      	popgt	{r4, r5, r6, pc}
 8000598:	f441 1180 	orr.w	r1, r1, #1048576	; 0x100000
 800059c:	f04f 0e00 	mov.w	lr, #0
 80005a0:	3c01      	subs	r4, #1
 80005a2:	f300 80ab 	bgt.w	80006fc <__aeabi_dmul+0x238>
 80005a6:	f114 0f36 	cmn.w	r4, #54	; 0x36
 80005aa:	bfde      	ittt	le
 80005ac:	2000      	movle	r0, #0
 80005ae:	f001 4100 	andle.w	r1, r1, #2147483648	; 0x80000000
 80005b2:	bd70      	pople	{r4, r5, r6, pc}
 80005b4:	f1c4 0400 	rsb	r4, r4, #0
 80005b8:	3c20      	subs	r4, #32
 80005ba:	da35      	bge.n	8000628 <__aeabi_dmul+0x164>
 80005bc:	340c      	adds	r4, #12
 80005be:	dc1b      	bgt.n	80005f8 <__aeabi_dmul+0x134>
 80005c0:	f104 0414 	add.w	r4, r4, #20
 80005c4:	f1c4 0520 	rsb	r5, r4, #32
 80005c8:	fa00 f305 	lsl.w	r3, r0, r5
 80005cc:	fa20 f004 	lsr.w	r0, r0, r4
 80005d0:	fa01 f205 	lsl.w	r2, r1, r5
 80005d4:	ea40 0002 	orr.w	r0, r0, r2
 80005d8:	f001 4200 	and.w	r2, r1, #2147483648	; 0x80000000
 80005dc:	f021 4100 	bic.w	r1, r1, #2147483648	; 0x80000000
 80005e0:	eb10 70d3 	adds.w	r0, r0, r3, lsr #31
 80005e4:	fa21 f604 	lsr.w	r6, r1, r4
 80005e8:	eb42 0106 	adc.w	r1, r2, r6
 80005ec:	ea5e 0e43 	orrs.w	lr, lr, r3, lsl #1
 80005f0:	bf08      	it	eq
 80005f2:	ea20 70d3 	biceq.w	r0, r0, r3, lsr #31
 80005f6:	bd70      	pop	{r4, r5, r6, pc}
 80005f8:	f1c4 040c 	rsb	r4, r4, #12
 80005fc:	f1c4 0520 	rsb	r5, r4, #32
 8000600:	fa00 f304 	lsl.w	r3, r0, r4
 8000604:	fa20 f005 	lsr.w	r0, r0, r5
 8000608:	fa01 f204 	lsl.w	r2, r1, r4
 800060c:	ea40 0002 	orr.w	r0, r0, r2
 8000610:	f001 4100 	and.w	r1, r1, #2147483648	; 0x80000000
 8000614:	eb10 70d3 	adds.w	r0, r0, r3, lsr #31
 8000618:	f141 0100 	adc.w	r1, r1, #0
 800061c:	ea5e 0e43 	orrs.w	lr, lr, r3, lsl #1
 8000620:	bf08      	it	eq
 8000622:	ea20 70d3 	biceq.w	r0, r0, r3, lsr #31
 8000626:	bd70      	pop	{r4, r5, r6, pc}
 8000628:	f1c4 0520 	rsb	r5, r4, #32
 800062c:	fa00 f205 	lsl.w	r2, r0, r5
 8000630:	ea4e 0e02 	orr.w	lr, lr, r2
 8000634:	fa20 f304 	lsr.w	r3, r0, r4
 8000638:	fa01 f205 	lsl.w	r2, r1, r5
 800063c:	ea43 0302 	orr.w	r3, r3, r2
 8000640:	fa21 f004 	lsr.w	r0, r1, r4
 8000644:	f001 4100 	and.w	r1, r1, #2147483648	; 0x80000000
 8000648:	fa21 f204 	lsr.w	r2, r1, r4
 800064c:	ea20 0002 	bic.w	r0, r0, r2
 8000650:	eb00 70d3 	add.w	r0, r0, r3, lsr #31
 8000654:	ea5e 0e43 	orrs.w	lr, lr, r3, lsl #1
 8000658:	bf08      	it	eq
 800065a:	ea20 70d3 	biceq.w	r0, r0, r3, lsr #31
 800065e:	bd70      	pop	{r4, r5, r6, pc}
 8000660:	f094 0f00 	teq	r4, #0
 8000664:	d10f      	bne.n	8000686 <__aeabi_dmul+0x1c2>
 8000666:	f001 4600 	and.w	r6, r1, #2147483648	; 0x80000000
 800066a:	0040      	lsls	r0, r0, #1
 800066c:	eb41 0101 	adc.w	r1, r1, r1
 8000670:	f411 1f80 	tst.w	r1, #1048576	; 0x100000
 8000674:	bf08      	it	eq
 8000676:	3c01      	subeq	r4, #1
 8000678:	d0f7      	beq.n	800066a <__aeabi_dmul+0x1a6>
 800067a:	ea41 0106 	orr.w	r1, r1, r6
 800067e:	f095 0f00 	teq	r5, #0
 8000682:	bf18      	it	ne
 8000684:	4770      	bxne	lr
 8000686:	f003 4600 	and.w	r6, r3, #2147483648	; 0x80000000
 800068a:	0052      	lsls	r2, r2, #1
 800068c:	eb43 0303 	adc.w	r3, r3, r3
 8000690:	f413 1f80 	tst.w	r3, #1048576	; 0x100000
 8000694:	bf08      	it	eq
 8000696:	3d01      	subeq	r5, #1
 8000698:	d0f7      	beq.n	800068a <__aeabi_dmul+0x1c6>
 800069a:	ea43 0306 	orr.w	r3, r3, r6
 800069e:	4770      	bx	lr
 80006a0:	ea94 0f0c 	teq	r4, ip
 80006a4:	ea0c 5513 	and.w	r5, ip, r3, lsr #20
 80006a8:	bf18      	it	ne
 80006aa:	ea95 0f0c 	teqne	r5, ip
 80006ae:	d00c      	beq.n	80006ca <__aeabi_dmul+0x206>
 80006b0:	ea50 0641 	orrs.w	r6, r0, r1, lsl #1
 80006b4:	bf18      	it	ne
 80006b6:	ea52 0643 	orrsne.w	r6, r2, r3, lsl #1
 80006ba:	d1d1      	bne.n	8000660 <__aeabi_dmul+0x19c>
 80006bc:	ea81 0103 	eor.w	r1, r1, r3
 80006c0:	f001 4100 	and.w	r1, r1, #2147483648	; 0x80000000
 80006c4:	f04f 0000 	mov.w	r0, #0
 80006c8:	bd70      	pop	{r4, r5, r6, pc}
 80006ca:	ea50 0641 	orrs.w	r6, r0, r1, lsl #1
 80006ce:	bf06      	itte	eq
 80006d0:	4610      	moveq	r0, r2
 80006d2:	4619      	moveq	r1, r3
 80006d4:	ea52 0643 	orrsne.w	r6, r2, r3, lsl #1
 80006d8:	d019      	beq.n	800070e <__aeabi_dmul+0x24a>
 80006da:	ea94 0f0c 	teq	r4, ip
 80006de:	d102      	bne.n	80006e6 <__aeabi_dmul+0x222>
 80006e0:	ea50 3601 	orrs.w	r6, r0, r1, lsl #12
 80006e4:	d113      	bne.n	800070e <__aeabi_dmul+0x24a>
 80006e6:	ea95 0f0c 	teq	r5, ip
 80006ea:	d105      	bne.n	80006f8 <__aeabi_dmul+0x234>
 80006ec:	ea52 3603 	orrs.w	r6, r2, r3, lsl #12
 80006f0:	bf1c      	itt	ne
 80006f2:	4610      	movne	r0, r2
 80006f4:	4619      	movne	r1, r3
 80006f6:	d10a      	bne.n	800070e <__aeabi_dmul+0x24a>
 80006f8:	ea81 0103 	eor.w	r1, r1, r3
 80006fc:	f001 4100 	and.w	r1, r1, #2147483648	; 0x80000000
 8000700:	f041 41fe 	orr.w	r1, r1, #2130706432	; 0x7f000000
 8000704:	f441 0170 	orr.w	r1, r1, #15728640	; 0xf00000
 8000708:	f04f 0000 	mov.w	r0, #0
 800070c:	bd70      	pop	{r4, r5, r6, pc}
 800070e:	f041 41fe 	orr.w	r1, r1, #2130706432	; 0x7f000000
 8000712:	f441 0178 	orr.w	r1, r1, #16252928	; 0xf80000
 8000716:	bd70      	pop	{r4, r5, r6, pc}

08000718 <__aeabi_ddiv>:
 8000718:	b570      	push	{r4, r5, r6, lr}
 800071a:	f04f 0cff 	mov.w	ip, #255	; 0xff
 800071e:	f44c 6ce0 	orr.w	ip, ip, #1792	; 0x700
 8000722:	ea1c 5411 	ands.w	r4, ip, r1, lsr #20
 8000726:	bf1d      	ittte	ne
 8000728:	ea1c 5513 	andsne.w	r5, ip, r3, lsr #20
 800072c:	ea94 0f0c 	teqne	r4, ip
 8000730:	ea95 0f0c 	teqne	r5, ip
 8000734:	f000 f8a7 	bleq	8000886 <__aeabi_ddiv+0x16e>
 8000738:	eba4 0405 	sub.w	r4, r4, r5
 800073c:	ea81 0e03 	eor.w	lr, r1, r3
 8000740:	ea52 3503 	orrs.w	r5, r2, r3, lsl #12
 8000744:	ea4f 3101 	mov.w	r1, r1, lsl #12
 8000748:	f000 8088 	beq.w	800085c <__aeabi_ddiv+0x144>
 800074c:	ea4f 3303 	mov.w	r3, r3, lsl #12
 8000750:	f04f 5580 	mov.w	r5, #268435456	; 0x10000000
 8000754:	ea45 1313 	orr.w	r3, r5, r3, lsr #4
 8000758:	ea43 6312 	orr.w	r3, r3, r2, lsr #24
 800075c:	ea4f 2202 	mov.w	r2, r2, lsl #8
 8000760:	ea45 1511 	orr.w	r5, r5, r1, lsr #4
 8000764:	ea45 6510 	orr.w	r5, r5, r0, lsr #24
 8000768:	ea4f 2600 	mov.w	r6, r0, lsl #8
 800076c:	f00e 4100 	and.w	r1, lr, #2147483648	; 0x80000000
 8000770:	429d      	cmp	r5, r3
 8000772:	bf08      	it	eq
 8000774:	4296      	cmpeq	r6, r2
 8000776:	f144 04fd 	adc.w	r4, r4, #253	; 0xfd
 800077a:	f504 7440 	add.w	r4, r4, #768	; 0x300
 800077e:	d202      	bcs.n	8000786 <__aeabi_ddiv+0x6e>
 8000780:	085b      	lsrs	r3, r3, #1
 8000782:	ea4f 0232 	mov.w	r2, r2, rrx
 8000786:	1ab6      	subs	r6, r6, r2
 8000788:	eb65 0503 	sbc.w	r5, r5, r3
 800078c:	085b      	lsrs	r3, r3, #1
 800078e:	ea4f 0232 	mov.w	r2, r2, rrx
 8000792:	f44f 1080 	mov.w	r0, #1048576	; 0x100000
 8000796:	f44f 2c00 	mov.w	ip, #524288	; 0x80000
 800079a:	ebb6 0e02 	subs.w	lr, r6, r2
 800079e:	eb75 0e03 	sbcs.w	lr, r5, r3
 80007a2:	bf22      	ittt	cs
 80007a4:	1ab6      	subcs	r6, r6, r2
 80007a6:	4675      	movcs	r5, lr
 80007a8:	ea40 000c 	orrcs.w	r0, r0, ip
 80007ac:	085b      	lsrs	r3, r3, #1
 80007ae:	ea4f 0232 	mov.w	r2, r2, rrx
 80007b2:	ebb6 0e02 	subs.w	lr, r6, r2
 80007b6:	eb75 0e03 	sbcs.w	lr, r5, r3
 80007ba:	bf22      	ittt	cs
 80007bc:	1ab6      	subcs	r6, r6, r2
 80007be:	4675      	movcs	r5, lr
 80007c0:	ea40 005c 	orrcs.w	r0, r0, ip, lsr #1
 80007c4:	085b      	lsrs	r3, r3, #1
 80007c6:	ea4f 0232 	mov.w	r2, r2, rrx
 80007ca:	ebb6 0e02 	subs.w	lr, r6, r2
 80007ce:	eb75 0e03 	sbcs.w	lr, r5, r3
 80007d2:	bf22      	ittt	cs
 80007d4:	1ab6      	subcs	r6, r6, r2
 80007d6:	4675      	movcs	r5, lr
 80007d8:	ea40 009c 	orrcs.w	r0, r0, ip, lsr #2
 80007dc:	085b      	lsrs	r3, r3, #1
 80007de:	ea4f 0232 	mov.w	r2, r2, rrx
 80007e2:	ebb6 0e02 	subs.w	lr, r6, r2
 80007e6:	eb75 0e03 	sbcs.w	lr, r5, r3
 80007ea:	bf22      	ittt	cs
 80007ec:	1ab6      	subcs	r6, r6, r2
 80007ee:	4675      	movcs	r5, lr
 80007f0:	ea40 00dc 	orrcs.w	r0, r0, ip, lsr #3
 80007f4:	ea55 0e06 	orrs.w	lr, r5, r6
 80007f8:	d018      	beq.n	800082c <__aeabi_ddiv+0x114>
 80007fa:	ea4f 1505 	mov.w	r5, r5, lsl #4
 80007fe:	ea45 7516 	orr.w	r5, r5, r6, lsr #28
 8000802:	ea4f 1606 	mov.w	r6, r6, lsl #4
 8000806:	ea4f 03c3 	mov.w	r3, r3, lsl #3
 800080a:	ea43 7352 	orr.w	r3, r3, r2, lsr #29
 800080e:	ea4f 02c2 	mov.w	r2, r2, lsl #3
 8000812:	ea5f 1c1c 	movs.w	ip, ip, lsr #4
 8000816:	d1c0      	bne.n	800079a <__aeabi_ddiv+0x82>
 8000818:	f411 1f80 	tst.w	r1, #1048576	; 0x100000
 800081c:	d10b      	bne.n	8000836 <__aeabi_ddiv+0x11e>
 800081e:	ea41 0100 	orr.w	r1, r1, r0
 8000822:	f04f 0000 	mov.w	r0, #0
 8000826:	f04f 4c00 	mov.w	ip, #2147483648	; 0x80000000
 800082a:	e7b6      	b.n	800079a <__aeabi_ddiv+0x82>
 800082c:	f411 1f80 	tst.w	r1, #1048576	; 0x100000
 8000830:	bf04      	itt	eq
 8000832:	4301      	orreq	r1, r0
 8000834:	2000      	moveq	r0, #0
 8000836:	f1b4 0cfd 	subs.w	ip, r4, #253	; 0xfd
 800083a:	bf88      	it	hi
 800083c:	f5bc 6fe0 	cmphi.w	ip, #1792	; 0x700
 8000840:	f63f aeaf 	bhi.w	80005a2 <__aeabi_dmul+0xde>
 8000844:	ebb5 0c03 	subs.w	ip, r5, r3
 8000848:	bf04      	itt	eq
 800084a:	ebb6 0c02 	subseq.w	ip, r6, r2
 800084e:	ea5f 0c50 	movseq.w	ip, r0, lsr #1
 8000852:	f150 0000 	adcs.w	r0, r0, #0
 8000856:	eb41 5104 	adc.w	r1, r1, r4, lsl #20
 800085a:	bd70      	pop	{r4, r5, r6, pc}
 800085c:	f00e 4e00 	and.w	lr, lr, #2147483648	; 0x80000000
 8000860:	ea4e 3111 	orr.w	r1, lr, r1, lsr #12
 8000864:	eb14 045c 	adds.w	r4, r4, ip, lsr #1
 8000868:	bfc2      	ittt	gt
 800086a:	ebd4 050c 	rsbsgt	r5, r4, ip
 800086e:	ea41 5104 	orrgt.w	r1, r1, r4, lsl #20
 8000872:	bd70      	popgt	{r4, r5, r6, pc}
 8000874:	f441 1180 	orr.w	r1, r1, #1048576	; 0x100000
 8000878:	f04f 0e00 	mov.w	lr, #0
 800087c:	3c01      	subs	r4, #1
 800087e:	e690      	b.n	80005a2 <__aeabi_dmul+0xde>
 8000880:	ea45 0e06 	orr.w	lr, r5, r6
 8000884:	e68d      	b.n	80005a2 <__aeabi_dmul+0xde>
 8000886:	ea0c 5513 	and.w	r5, ip, r3, lsr #20
 800088a:	ea94 0f0c 	teq	r4, ip
 800088e:	bf08      	it	eq
 8000890:	ea95 0f0c 	teqeq	r5, ip
 8000894:	f43f af3b 	beq.w	800070e <__aeabi_dmul+0x24a>
 8000898:	ea94 0f0c 	teq	r4, ip
 800089c:	d10a      	bne.n	80008b4 <__aeabi_ddiv+0x19c>
 800089e:	ea50 3401 	orrs.w	r4, r0, r1, lsl #12
 80008a2:	f47f af34 	bne.w	800070e <__aeabi_dmul+0x24a>
 80008a6:	ea95 0f0c 	teq	r5, ip
 80008aa:	f47f af25 	bne.w	80006f8 <__aeabi_dmul+0x234>
 80008ae:	4610      	mov	r0, r2
 80008b0:	4619      	mov	r1, r3
 80008b2:	e72c      	b.n	800070e <__aeabi_dmul+0x24a>
 80008b4:	ea95 0f0c 	teq	r5, ip
 80008b8:	d106      	bne.n	80008c8 <__aeabi_ddiv+0x1b0>
 80008ba:	ea52 3503 	orrs.w	r5, r2, r3, lsl #12
 80008be:	f43f aefd 	beq.w	80006bc <__aeabi_dmul+0x1f8>
 80008c2:	4610      	mov	r0, r2
 80008c4:	4619      	mov	r1, r3
 80008c6:	e722      	b.n	800070e <__aeabi_dmul+0x24a>
 80008c8:	ea50 0641 	orrs.w	r6, r0, r1, lsl #1
 80008cc:	bf18      	it	ne
 80008ce:	ea52 0643 	orrsne.w	r6, r2, r3, lsl #1
 80008d2:	f47f aec5 	bne.w	8000660 <__aeabi_dmul+0x19c>
 80008d6:	ea50 0441 	orrs.w	r4, r0, r1, lsl #1
 80008da:	f47f af0d 	bne.w	80006f8 <__aeabi_dmul+0x234>
 80008de:	ea52 0543 	orrs.w	r5, r2, r3, lsl #1
 80008e2:	f47f aeeb 	bne.w	80006bc <__aeabi_dmul+0x1f8>
 80008e6:	e712      	b.n	800070e <__aeabi_dmul+0x24a>

080008e8 <__aeabi_d2uiz>:
 80008e8:	004a      	lsls	r2, r1, #1
 80008ea:	d211      	bcs.n	8000910 <__aeabi_d2uiz+0x28>
 80008ec:	f512 1200 	adds.w	r2, r2, #2097152	; 0x200000
 80008f0:	d211      	bcs.n	8000916 <__aeabi_d2uiz+0x2e>
 80008f2:	d50d      	bpl.n	8000910 <__aeabi_d2uiz+0x28>
 80008f4:	f46f 7378 	mvn.w	r3, #992	; 0x3e0
 80008f8:	ebb3 5262 	subs.w	r2, r3, r2, asr #21
 80008fc:	d40e      	bmi.n	800091c <__aeabi_d2uiz+0x34>
 80008fe:	ea4f 23c1 	mov.w	r3, r1, lsl #11
 8000902:	f043 4300 	orr.w	r3, r3, #2147483648	; 0x80000000
 8000906:	ea43 5350 	orr.w	r3, r3, r0, lsr #21
 800090a:	fa23 f002 	lsr.w	r0, r3, r2
 800090e:	4770      	bx	lr
 8000910:	f04f 0000 	mov.w	r0, #0
 8000914:	4770      	bx	lr
 8000916:	ea50 3001 	orrs.w	r0, r0, r1, lsl #12
 800091a:	d102      	bne.n	8000922 <__aeabi_d2uiz+0x3a>
 800091c:	f04f 30ff 	mov.w	r0, #4294967295
 8000920:	4770      	bx	lr
 8000922:	f04f 0000 	mov.w	r0, #0
 8000926:	4770      	bx	lr

08000928 <setDac>:
extern volatile bool isEncoder;
extern volatile bool incEncoder;
extern mode modo;


void setDac(uint16_t cor){
 8000928:	b580      	push	{r7, lr}
 800092a:	b082      	sub	sp, #8
 800092c:	af00      	add	r7, sp, #0
 800092e:	4603      	mov	r3, r0
 8000930:	80fb      	strh	r3, [r7, #6]
	HAL_GPIO_WritePin(DAC_CS_GPIO_Port, DAC_CS_Pin, 0);
 8000932:	2200      	movs	r2, #0
 8000934:	2108      	movs	r1, #8
 8000936:	4809      	ldr	r0, [pc, #36]	; (800095c <setDac+0x34>)
 8000938:	f002 ff29 	bl	800378e <HAL_GPIO_WritePin>
	HAL_SPI_Transmit(&hspi1, (uint16_t *)&cor, 1, 100);
 800093c:	1db9      	adds	r1, r7, #6
 800093e:	2364      	movs	r3, #100	; 0x64
 8000940:	2201      	movs	r2, #1
 8000942:	4807      	ldr	r0, [pc, #28]	; (8000960 <setDac+0x38>)
 8000944:	f005 f808 	bl	8005958 <HAL_SPI_Transmit>
	HAL_GPIO_WritePin(DAC_CS_GPIO_Port, DAC_CS_Pin, 1);
 8000948:	2201      	movs	r2, #1
 800094a:	2108      	movs	r1, #8
 800094c:	4803      	ldr	r0, [pc, #12]	; (800095c <setDac+0x34>)
 800094e:	f002 ff1e 	bl	800378e <HAL_GPIO_WritePin>
	return;
 8000952:	bf00      	nop
}
 8000954:	3708      	adds	r7, #8
 8000956:	46bd      	mov	sp, r7
 8000958:	bd80      	pop	{r7, pc}
 800095a:	bf00      	nop
 800095c:	40010800 	.word	0x40010800
 8000960:	200004e0 	.word	0x200004e0

08000964 <leerADC>:

uint16_t leerADC(uint8_t ch){
 8000964:	b580      	push	{r7, lr}
 8000966:	b090      	sub	sp, #64	; 0x40
 8000968:	af02      	add	r7, sp, #8
 800096a:	4603      	mov	r3, r0
 800096c:	71fb      	strb	r3, [r7, #7]
	  uint16_t spiDato [20];			// buffer para el SPI_1
	  const uint16_t ADC_canal0 = 0b0000000000000000;
 800096e:	2300      	movs	r3, #0
 8000970:	81fb      	strh	r3, [r7, #14]
	  const uint16_t ADC_canal1 = 0b0001000000000000;
 8000972:	f44f 5380 	mov.w	r3, #4096	; 0x1000
 8000976:	81bb      	strh	r3, [r7, #12]
	  const uint16_t ADC_leer = 0b1101000000000000;
 8000978:	f44f 4350 	mov.w	r3, #53248	; 0xd000
 800097c:	817b      	strh	r3, [r7, #10]
	  extern SPI_HandleTypeDef hspi1;

	  if (ch == 0){
 800097e:	79fb      	ldrb	r3, [r7, #7]
 8000980:	2b00      	cmp	r3, #0
 8000982:	d110      	bne.n	80009a6 <leerADC+0x42>
		  HAL_GPIO_WritePin(ADC_CS_GPIO_Port, ADC_CS_Pin,0);
 8000984:	2200      	movs	r2, #0
 8000986:	2101      	movs	r1, #1
 8000988:	4825      	ldr	r0, [pc, #148]	; (8000a20 <leerADC+0xbc>)
 800098a:	f002 ff00 	bl	800378e <HAL_GPIO_WritePin>
		  HAL_SPI_Transmit(&hspi1, (uint16_t *)&ADC_canal0, 1, 100);
 800098e:	f107 010e 	add.w	r1, r7, #14
 8000992:	2364      	movs	r3, #100	; 0x64
 8000994:	2201      	movs	r2, #1
 8000996:	4823      	ldr	r0, [pc, #140]	; (8000a24 <leerADC+0xc0>)
 8000998:	f004 ffde 	bl	8005958 <HAL_SPI_Transmit>
		  HAL_GPIO_WritePin(ADC_CS_GPIO_Port, ADC_CS_Pin, 1);
 800099c:	2201      	movs	r2, #1
 800099e:	2101      	movs	r1, #1
 80009a0:	481f      	ldr	r0, [pc, #124]	; (8000a20 <leerADC+0xbc>)
 80009a2:	f002 fef4 	bl	800378e <HAL_GPIO_WritePin>
	  }
	  if (ch == 1){
 80009a6:	79fb      	ldrb	r3, [r7, #7]
 80009a8:	2b01      	cmp	r3, #1
 80009aa:	d110      	bne.n	80009ce <leerADC+0x6a>
		  HAL_GPIO_WritePin(ADC_CS_GPIO_Port, ADC_CS_Pin,0);
 80009ac:	2200      	movs	r2, #0
 80009ae:	2101      	movs	r1, #1
 80009b0:	481b      	ldr	r0, [pc, #108]	; (8000a20 <leerADC+0xbc>)
 80009b2:	f002 feec 	bl	800378e <HAL_GPIO_WritePin>
		  HAL_SPI_Transmit(&hspi1, (uint16_t *)&ADC_canal1, 1, 100);
 80009b6:	f107 010c 	add.w	r1, r7, #12
 80009ba:	2364      	movs	r3, #100	; 0x64
 80009bc:	2201      	movs	r2, #1
 80009be:	4819      	ldr	r0, [pc, #100]	; (8000a24 <leerADC+0xc0>)
 80009c0:	f004 ffca 	bl	8005958 <HAL_SPI_Transmit>
		  HAL_GPIO_WritePin(ADC_CS_GPIO_Port, ADC_CS_Pin, 1);
 80009c4:	2201      	movs	r2, #1
 80009c6:	2101      	movs	r1, #1
 80009c8:	4815      	ldr	r0, [pc, #84]	; (8000a20 <leerADC+0xbc>)
 80009ca:	f002 fee0 	bl	800378e <HAL_GPIO_WritePin>
	  }
	  HAL_GPIO_WritePin(ADC_CONVST_GPIO_Port, ADC_CONVST_Pin, 0);
 80009ce:	2200      	movs	r2, #0
 80009d0:	2104      	movs	r1, #4
 80009d2:	4815      	ldr	r0, [pc, #84]	; (8000a28 <leerADC+0xc4>)
 80009d4:	f002 fedb 	bl	800378e <HAL_GPIO_WritePin>
	  asm("nop");asm("nop");asm("nop");asm("nop");asm("nop");asm("nop");
 80009d8:	bf00      	nop
 80009da:	bf00      	nop
 80009dc:	bf00      	nop
 80009de:	bf00      	nop
 80009e0:	bf00      	nop
 80009e2:	bf00      	nop
	  HAL_GPIO_WritePin(ADC_CONVST_GPIO_Port, ADC_CONVST_Pin, 1);
 80009e4:	2201      	movs	r2, #1
 80009e6:	2104      	movs	r1, #4
 80009e8:	480f      	ldr	r0, [pc, #60]	; (8000a28 <leerADC+0xc4>)
 80009ea:	f002 fed0 	bl	800378e <HAL_GPIO_WritePin>
	  //while(HAL_GPIO_ReadPin(ADC_EOC_GPIO_Port, ADC_EOC_Pin) == 0){}

	  HAL_GPIO_WritePin(ADC_CS_GPIO_Port, ADC_CS_Pin, 0);
 80009ee:	2200      	movs	r2, #0
 80009f0:	2101      	movs	r1, #1
 80009f2:	480b      	ldr	r0, [pc, #44]	; (8000a20 <leerADC+0xbc>)
 80009f4:	f002 fecb 	bl	800378e <HAL_GPIO_WritePin>
	  HAL_SPI_TransmitReceive(&hspi1, (uint16_t *)&ADC_leer, spiDato, 1, 100);
 80009f8:	f107 0210 	add.w	r2, r7, #16
 80009fc:	f107 010a 	add.w	r1, r7, #10
 8000a00:	2364      	movs	r3, #100	; 0x64
 8000a02:	9300      	str	r3, [sp, #0]
 8000a04:	2301      	movs	r3, #1
 8000a06:	4807      	ldr	r0, [pc, #28]	; (8000a24 <leerADC+0xc0>)
 8000a08:	f005 f8e2 	bl	8005bd0 <HAL_SPI_TransmitReceive>
	  HAL_GPIO_WritePin(ADC_CS_GPIO_Port, ADC_CS_Pin, 1);
 8000a0c:	2201      	movs	r2, #1
 8000a0e:	2101      	movs	r1, #1
 8000a10:	4803      	ldr	r0, [pc, #12]	; (8000a20 <leerADC+0xbc>)
 8000a12:	f002 febc 	bl	800378e <HAL_GPIO_WritePin>
	  return spiDato[0];
 8000a16:	8a3b      	ldrh	r3, [r7, #16]
 }
 8000a18:	4618      	mov	r0, r3
 8000a1a:	3738      	adds	r7, #56	; 0x38
 8000a1c:	46bd      	mov	sp, r7
 8000a1e:	bd80      	pop	{r7, pc}
 8000a20:	40010c00 	.word	0x40010c00
 8000a24:	200004e0 	.word	0x200004e0
 8000a28:	40010800 	.word	0x40010800

08000a2c <systemInit>:


void systemInit(){
 8000a2c:	b580      	push	{r7, lr}
 8000a2e:	b082      	sub	sp, #8
 8000a30:	af00      	add	r7, sp, #0
	uint16_t DAC_CERO = 0b0000000000000000;
 8000a32:	2300      	movs	r3, #0
 8000a34:	80fb      	strh	r3, [r7, #6]
	HAL_GPIO_WritePin(DAC_CS_GPIO_Port, DAC_CS_Pin, 1);
 8000a36:	2201      	movs	r2, #1
 8000a38:	2108      	movs	r1, #8
 8000a3a:	481d      	ldr	r0, [pc, #116]	; (8000ab0 <systemInit+0x84>)
 8000a3c:	f002 fea7 	bl	800378e <HAL_GPIO_WritePin>
	HAL_GPIO_WritePin(ADC_CS_GPIO_Port, ADC_CS_Pin, 1);
 8000a40:	2201      	movs	r2, #1
 8000a42:	2101      	movs	r1, #1
 8000a44:	481b      	ldr	r0, [pc, #108]	; (8000ab4 <systemInit+0x88>)
 8000a46:	f002 fea2 	bl	800378e <HAL_GPIO_WritePin>
	HAL_GPIO_WritePin(LoadOnOff_GPIO_Port, LoadOnOff_Pin, 0);
 8000a4a:	2200      	movs	r2, #0
 8000a4c:	f44f 5180 	mov.w	r1, #4096	; 0x1000
 8000a50:	4818      	ldr	r0, [pc, #96]	; (8000ab4 <systemInit+0x88>)
 8000a52:	f002 fe9c 	bl	800378e <HAL_GPIO_WritePin>
	HAL_GPIO_WritePin(ADC_CONVST_GPIO_Port, ADC_CONVST_Pin, 1);
 8000a56:	2201      	movs	r2, #1
 8000a58:	2104      	movs	r1, #4
 8000a5a:	4815      	ldr	r0, [pc, #84]	; (8000ab0 <systemInit+0x84>)
 8000a5c:	f002 fe97 	bl	800378e <HAL_GPIO_WritePin>
	/* Configuracion del ADC*/
	const uint16_t ADC_bitCofig = 0b1110011111111101;
 8000a60:	f24e 73fd 	movw	r3, #59389	; 0xe7fd
 8000a64:	80bb      	strh	r3, [r7, #4]
/*	const uint16_t ADC_canal0 = 0b0000000000000000;
	const uint16_t ADC_canal1 = 0b0001000000000000;
	const uint16_t ADC_leer = 0b1101000000000000;
	const uint16_t ADC_leerConfig = 0b1100000000000000;*/
	HAL_GPIO_WritePin(ADC_CS_GPIO_Port, ADC_CS_Pin, 0);					// selecciona el ADC para comunicacion SPI
 8000a66:	2200      	movs	r2, #0
 8000a68:	2101      	movs	r1, #1
 8000a6a:	4812      	ldr	r0, [pc, #72]	; (8000ab4 <systemInit+0x88>)
 8000a6c:	f002 fe8f 	bl	800378e <HAL_GPIO_WritePin>
	HAL_SPI_Transmit(&hspi1, (uint16_t *)&ADC_bitCofig, 1, 100);		// se configura ADC
 8000a70:	1d39      	adds	r1, r7, #4
 8000a72:	2364      	movs	r3, #100	; 0x64
 8000a74:	2201      	movs	r2, #1
 8000a76:	4810      	ldr	r0, [pc, #64]	; (8000ab8 <systemInit+0x8c>)
 8000a78:	f004 ff6e 	bl	8005958 <HAL_SPI_Transmit>

	HAL_GPIO_WritePin(DAC_CS_GPIO_Port, DAC_CS_Pin, 0);
 8000a7c:	2200      	movs	r2, #0
 8000a7e:	2108      	movs	r1, #8
 8000a80:	480b      	ldr	r0, [pc, #44]	; (8000ab0 <systemInit+0x84>)
 8000a82:	f002 fe84 	bl	800378e <HAL_GPIO_WritePin>
	HAL_SPI_Transmit(&hspi1, (uint16_t *)&DAC_CERO, 1, 100);
 8000a86:	1db9      	adds	r1, r7, #6
 8000a88:	2364      	movs	r3, #100	; 0x64
 8000a8a:	2201      	movs	r2, #1
 8000a8c:	480a      	ldr	r0, [pc, #40]	; (8000ab8 <systemInit+0x8c>)
 8000a8e:	f004 ff63 	bl	8005958 <HAL_SPI_Transmit>
	HAL_GPIO_WritePin(DAC_CS_GPIO_Port, DAC_CS_Pin, 1);
 8000a92:	2201      	movs	r2, #1
 8000a94:	2108      	movs	r1, #8
 8000a96:	4806      	ldr	r0, [pc, #24]	; (8000ab0 <systemInit+0x84>)
 8000a98:	f002 fe79 	bl	800378e <HAL_GPIO_WritePin>
	HAL_TIM_Base_Start(&htim1);											//timer para el lcd y retardo de us.
 8000a9c:	4807      	ldr	r0, [pc, #28]	; (8000abc <systemInit+0x90>)
 8000a9e:	f005 fb2f 	bl	8006100 <HAL_TIM_Base_Start>
	lcdInit();
 8000aa2:	f001 f843 	bl	8001b2c <lcdInit>
	return;
 8000aa6:	bf00      	nop
}
 8000aa8:	3708      	adds	r7, #8
 8000aaa:	46bd      	mov	sp, r7
 8000aac:	bd80      	pop	{r7, pc}
 8000aae:	bf00      	nop
 8000ab0:	40010800 	.word	0x40010800
 8000ab4:	40010c00 	.word	0x40010c00
 8000ab8:	200004e0 	.word	0x200004e0
 8000abc:	20000498 	.word	0x20000498

08000ac0 <homeDisplay>:

void homeDisplay(){
 8000ac0:	b580      	push	{r7, lr}
 8000ac2:	af00      	add	r7, sp, #0
	lcdClear();
 8000ac4:	f000 ffee 	bl	8001aa4 <lcdClear>
	lcdString("Electronic DC Load");
 8000ac8:	4808      	ldr	r0, [pc, #32]	; (8000aec <homeDisplay+0x2c>)
 8000aca:	f001 f86e 	bl	8001baa <lcdString>
	lcdCursor(3, 11);
 8000ace:	210b      	movs	r1, #11
 8000ad0:	2003      	movs	r0, #3
 8000ad2:	f000 fff1 	bl	8001ab8 <lcdCursor>
	lcdString("Load: OFF");
 8000ad6:	4806      	ldr	r0, [pc, #24]	; (8000af0 <homeDisplay+0x30>)
 8000ad8:	f001 f867 	bl	8001baa <lcdString>
	lcdLinea4();
 8000adc:	f000 ff48 	bl	8001970 <lcdLinea4>
	lcdString("Mode: ");
 8000ae0:	4804      	ldr	r0, [pc, #16]	; (8000af4 <homeDisplay+0x34>)
 8000ae2:	f001 f862 	bl	8001baa <lcdString>
	return;
 8000ae6:	bf00      	nop
}
 8000ae8:	bd80      	pop	{r7, pc}
 8000aea:	bf00      	nop
 8000aec:	0800abec 	.word	0x0800abec
 8000af0:	0800ac00 	.word	0x0800ac00
 8000af4:	0800ac0c 	.word	0x0800ac0c

08000af8 <ccDisplay>:

void ccDisplay(){
 8000af8:	b580      	push	{r7, lr}
 8000afa:	af00      	add	r7, sp, #0
	lcdClear();
 8000afc:	f000 ffd2 	bl	8001aa4 <lcdClear>
	lcdString("Electronic DC Load");
 8000b00:	480e      	ldr	r0, [pc, #56]	; (8000b3c <ccDisplay+0x44>)
 8000b02:	f001 f852 	bl	8001baa <lcdString>
	lcdCursor(1, 0);
 8000b06:	2100      	movs	r1, #0
 8000b08:	2001      	movs	r0, #1
 8000b0a:	f000 ffd5 	bl	8001ab8 <lcdCursor>
	lcdString("Iset:      mA");
 8000b0e:	480c      	ldr	r0, [pc, #48]	; (8000b40 <ccDisplay+0x48>)
 8000b10:	f001 f84b 	bl	8001baa <lcdString>
	lcdLinea3();
 8000b14:	f000 ff17 	bl	8001946 <lcdLinea3>
	lcdString("Iread:     . mA");
 8000b18:	480a      	ldr	r0, [pc, #40]	; (8000b44 <ccDisplay+0x4c>)
 8000b1a:	f001 f846 	bl	8001baa <lcdString>
	lcdCursor(3, 11);
 8000b1e:	210b      	movs	r1, #11
 8000b20:	2003      	movs	r0, #3
 8000b22:	f000 ffc9 	bl	8001ab8 <lcdCursor>
	lcdString("Load: OFF");
 8000b26:	4808      	ldr	r0, [pc, #32]	; (8000b48 <ccDisplay+0x50>)
 8000b28:	f001 f83f 	bl	8001baa <lcdString>
	lcdLinea4();
 8000b2c:	f000 ff20 	bl	8001970 <lcdLinea4>
	lcdString("Mode: CC");
 8000b30:	4806      	ldr	r0, [pc, #24]	; (8000b4c <ccDisplay+0x54>)
 8000b32:	f001 f83a 	bl	8001baa <lcdString>
	return;
 8000b36:	bf00      	nop

}
 8000b38:	bd80      	pop	{r7, pc}
 8000b3a:	bf00      	nop
 8000b3c:	0800abec 	.word	0x0800abec
 8000b40:	0800ac14 	.word	0x0800ac14
 8000b44:	0800ac24 	.word	0x0800ac24
 8000b48:	0800ac00 	.word	0x0800ac00
 8000b4c:	0800ac34 	.word	0x0800ac34

08000b50 <tranDisplay>:
void tranDisplay(){
 8000b50:	b580      	push	{r7, lr}
 8000b52:	af00      	add	r7, sp, #0
	lcdClear();
 8000b54:	f000 ffa6 	bl	8001aa4 <lcdClear>
	lcdString("Electronic DC Load");
 8000b58:	4814      	ldr	r0, [pc, #80]	; (8000bac <tranDisplay+0x5c>)
 8000b5a:	f001 f826 	bl	8001baa <lcdString>
	lcdLinea2();
 8000b5e:	f000 feeb 	bl	8001938 <lcdLinea2>
	lcdString("Ilow:     . mA");
 8000b62:	4813      	ldr	r0, [pc, #76]	; (8000bb0 <tranDisplay+0x60>)
 8000b64:	f001 f821 	bl	8001baa <lcdString>
	lcdLinea3();
 8000b68:	f000 feed 	bl	8001946 <lcdLinea3>
	lcdString("Ihigh:     . mA");
 8000b6c:	4811      	ldr	r0, [pc, #68]	; (8000bb4 <tranDisplay+0x64>)
 8000b6e:	f001 f81c 	bl	8001baa <lcdString>
	lcdLinea4();
 8000b72:	f000 fefd 	bl	8001970 <lcdLinea4>
	lcdString("Mode: TRAN");
 8000b76:	4810      	ldr	r0, [pc, #64]	; (8000bb8 <tranDisplay+0x68>)
 8000b78:	f001 f817 	bl	8001baa <lcdString>
	lcdCursor(3, 11);
 8000b7c:	210b      	movs	r1, #11
 8000b7e:	2003      	movs	r0, #3
 8000b80:	f000 ff9a 	bl	8001ab8 <lcdCursor>
	lcdString("Load: OFF");
 8000b84:	480d      	ldr	r0, [pc, #52]	; (8000bbc <tranDisplay+0x6c>)
 8000b86:	f001 f810 	bl	8001baa <lcdString>
	lcdCursor(1, 14);
 8000b8a:	210e      	movs	r1, #14
 8000b8c:	2001      	movs	r0, #1
 8000b8e:	f000 ff93 	bl	8001ab8 <lcdCursor>
	lcdString("PW:   ");
 8000b92:	480b      	ldr	r0, [pc, #44]	; (8000bc0 <tranDisplay+0x70>)
 8000b94:	f001 f809 	bl	8001baa <lcdString>
	lcdCursor(2, 15);
 8000b98:	210f      	movs	r1, #15
 8000b9a:	2002      	movs	r0, #2
 8000b9c:	f000 ff8c 	bl	8001ab8 <lcdCursor>
	lcdString("f:  ");
 8000ba0:	4808      	ldr	r0, [pc, #32]	; (8000bc4 <tranDisplay+0x74>)
 8000ba2:	f001 f802 	bl	8001baa <lcdString>
	return;
 8000ba6:	bf00      	nop
}
 8000ba8:	bd80      	pop	{r7, pc}
 8000baa:	bf00      	nop
 8000bac:	0800abec 	.word	0x0800abec
 8000bb0:	0800ac40 	.word	0x0800ac40
 8000bb4:	0800ac50 	.word	0x0800ac50
 8000bb8:	0800ac60 	.word	0x0800ac60
 8000bbc:	0800ac00 	.word	0x0800ac00
 8000bc0:	0800ac6c 	.word	0x0800ac6c
 8000bc4:	0800ac74 	.word	0x0800ac74

08000bc8 <updateMeas>:
	lcdString("Mode: TRAN");
	lcdCursor(3, 11);
	lcdString("Load: OFF");
}

void updateMeas(uint16_t iRead, uint8_t modo){
 8000bc8:	b5b0      	push	{r4, r5, r7, lr}
 8000bca:	b084      	sub	sp, #16
 8000bcc:	af00      	add	r7, sp, #0
 8000bce:	4603      	mov	r3, r0
 8000bd0:	460a      	mov	r2, r1
 8000bd2:	80fb      	strh	r3, [r7, #6]
 8000bd4:	4613      	mov	r3, r2
 8000bd6:	717b      	strb	r3, [r7, #5]
	uint16_t entera = 0;
 8000bd8:	2300      	movs	r3, #0
 8000bda:	81fb      	strh	r3, [r7, #14]
	uint8_t decimal = 0;
 8000bdc:	2300      	movs	r3, #0
 8000bde:	737b      	strb	r3, [r7, #13]

	switch (modo){
 8000be0:	797b      	ldrb	r3, [r7, #5]
 8000be2:	2b00      	cmp	r3, #0
 8000be4:	d04b      	beq.n	8000c7e <updateMeas+0xb6>
 8000be6:	2b01      	cmp	r3, #1
 8000be8:	d14a      	bne.n	8000c80 <updateMeas+0xb8>

	case CC:
		//iRead = fixedPoint(iRead);
		entera = iRead/10;
 8000bea:	88fb      	ldrh	r3, [r7, #6]
 8000bec:	4a26      	ldr	r2, [pc, #152]	; (8000c88 <updateMeas+0xc0>)
 8000bee:	fba2 2303 	umull	r2, r3, r2, r3
 8000bf2:	08db      	lsrs	r3, r3, #3
 8000bf4:	81fb      	strh	r3, [r7, #14]
		decimal = (10*((double)iRead/10.0f - (int)iRead/10));
 8000bf6:	88fb      	ldrh	r3, [r7, #6]
 8000bf8:	4618      	mov	r0, r3
 8000bfa:	f7ff fbe9 	bl	80003d0 <__aeabi_ui2d>
 8000bfe:	f04f 0200 	mov.w	r2, #0
 8000c02:	4b22      	ldr	r3, [pc, #136]	; (8000c8c <updateMeas+0xc4>)
 8000c04:	f7ff fd88 	bl	8000718 <__aeabi_ddiv>
 8000c08:	4602      	mov	r2, r0
 8000c0a:	460b      	mov	r3, r1
 8000c0c:	4614      	mov	r4, r2
 8000c0e:	461d      	mov	r5, r3
 8000c10:	88fb      	ldrh	r3, [r7, #6]
 8000c12:	4a1d      	ldr	r2, [pc, #116]	; (8000c88 <updateMeas+0xc0>)
 8000c14:	fba2 2303 	umull	r2, r3, r2, r3
 8000c18:	08db      	lsrs	r3, r3, #3
 8000c1a:	b29b      	uxth	r3, r3
 8000c1c:	4618      	mov	r0, r3
 8000c1e:	f7ff fbe7 	bl	80003f0 <__aeabi_i2d>
 8000c22:	4602      	mov	r2, r0
 8000c24:	460b      	mov	r3, r1
 8000c26:	4620      	mov	r0, r4
 8000c28:	4629      	mov	r1, r5
 8000c2a:	f7ff fa93 	bl	8000154 <__aeabi_dsub>
 8000c2e:	4602      	mov	r2, r0
 8000c30:	460b      	mov	r3, r1
 8000c32:	4610      	mov	r0, r2
 8000c34:	4619      	mov	r1, r3
 8000c36:	f04f 0200 	mov.w	r2, #0
 8000c3a:	4b14      	ldr	r3, [pc, #80]	; (8000c8c <updateMeas+0xc4>)
 8000c3c:	f7ff fc42 	bl	80004c4 <__aeabi_dmul>
 8000c40:	4602      	mov	r2, r0
 8000c42:	460b      	mov	r3, r1
 8000c44:	4610      	mov	r0, r2
 8000c46:	4619      	mov	r1, r3
 8000c48:	f7ff fe4e 	bl	80008e8 <__aeabi_d2uiz>
 8000c4c:	4603      	mov	r3, r0
 8000c4e:	737b      	strb	r3, [r7, #13]
		lcdCursor(2, 7);
 8000c50:	2107      	movs	r1, #7
 8000c52:	2002      	movs	r0, #2
 8000c54:	f000 ff30 	bl	8001ab8 <lcdCursor>
		lcdString("      ");
 8000c58:	480d      	ldr	r0, [pc, #52]	; (8000c90 <updateMeas+0xc8>)
 8000c5a:	f000 ffa6 	bl	8001baa <lcdString>
		lcdCursor(2, 7);
 8000c5e:	2107      	movs	r1, #7
 8000c60:	2002      	movs	r0, #2
 8000c62:	f000 ff29 	bl	8001ab8 <lcdCursor>
		lcdEscribeInt(entera);
 8000c66:	89fb      	ldrh	r3, [r7, #14]
 8000c68:	4618      	mov	r0, r3
 8000c6a:	f000 ffc4 	bl	8001bf6 <lcdEscribeInt>
		lcdCaracter('.');
 8000c6e:	202e      	movs	r0, #46	; 0x2e
 8000c70:	f000 ffb0 	bl	8001bd4 <lcdCaracter>
		lcdEscribeInt(decimal);
 8000c74:	7b7b      	ldrb	r3, [r7, #13]
 8000c76:	4618      	mov	r0, r3
 8000c78:	f000 ffbd 	bl	8001bf6 <lcdEscribeInt>
		/*usbSendString("Iread: ");
		usbSendInt(entera);
		usbSendString(".");
		usbSendInt(decimal);
		usbSendString("\n\r");*/
		return;
 8000c7c:	e000      	b.n	8000c80 <updateMeas+0xb8>
		break;

	case TRAN:
		break;
 8000c7e:	bf00      	nop

	}
}
 8000c80:	3710      	adds	r7, #16
 8000c82:	46bd      	mov	sp, r7
 8000c84:	bdb0      	pop	{r4, r5, r7, pc}
 8000c86:	bf00      	nop
 8000c88:	cccccccd 	.word	0xcccccccd
 8000c8c:	40240000 	.word	0x40240000
 8000c90:	0800ac88 	.word	0x0800ac88

08000c94 <loadControl>:

void loadControl(bool loadOn){
 8000c94:	b580      	push	{r7, lr}
 8000c96:	b082      	sub	sp, #8
 8000c98:	af00      	add	r7, sp, #0
 8000c9a:	4603      	mov	r3, r0
 8000c9c:	71fb      	strb	r3, [r7, #7]
	if (loadOn){
 8000c9e:	79fb      	ldrb	r3, [r7, #7]
 8000ca0:	2b00      	cmp	r3, #0
 8000ca2:	d012      	beq.n	8000cca <loadControl+0x36>
		HAL_GPIO_WritePin(LoadOnOff_GPIO_Port, LoadOnOff_Pin, 1);
 8000ca4:	2201      	movs	r2, #1
 8000ca6:	f44f 5180 	mov.w	r1, #4096	; 0x1000
 8000caa:	4813      	ldr	r0, [pc, #76]	; (8000cf8 <loadControl+0x64>)
 8000cac:	f002 fd6f 	bl	800378e <HAL_GPIO_WritePin>
		lcdCursor(3, 17);
 8000cb0:	2111      	movs	r1, #17
 8000cb2:	2003      	movs	r0, #3
 8000cb4:	f000 ff00 	bl	8001ab8 <lcdCursor>
		lcdString("ON ");
 8000cb8:	4810      	ldr	r0, [pc, #64]	; (8000cfc <loadControl+0x68>)
 8000cba:	f000 ff76 	bl	8001baa <lcdString>
		HAL_GPIO_WritePin(Fan_GPIO_Port, Fan_Pin, 1);
 8000cbe:	2201      	movs	r2, #1
 8000cc0:	2102      	movs	r1, #2
 8000cc2:	480f      	ldr	r0, [pc, #60]	; (8000d00 <loadControl+0x6c>)
 8000cc4:	f002 fd63 	bl	800378e <HAL_GPIO_WritePin>
		HAL_GPIO_WritePin(LoadOnOff_GPIO_Port, LoadOnOff_Pin, 0);
		lcdCursor(3, 17);
		lcdString("OFF");
		HAL_GPIO_WritePin(Fan_GPIO_Port, Fan_Pin, 0);
	}
	return;
 8000cc8:	e012      	b.n	8000cf0 <loadControl+0x5c>
		HAL_GPIO_WritePin(LoadOnOff_GPIO_Port, LoadOnOff_Pin, 0);
 8000cca:	2200      	movs	r2, #0
 8000ccc:	f44f 5180 	mov.w	r1, #4096	; 0x1000
 8000cd0:	4809      	ldr	r0, [pc, #36]	; (8000cf8 <loadControl+0x64>)
 8000cd2:	f002 fd5c 	bl	800378e <HAL_GPIO_WritePin>
		lcdCursor(3, 17);
 8000cd6:	2111      	movs	r1, #17
 8000cd8:	2003      	movs	r0, #3
 8000cda:	f000 feed 	bl	8001ab8 <lcdCursor>
		lcdString("OFF");
 8000cde:	4809      	ldr	r0, [pc, #36]	; (8000d04 <loadControl+0x70>)
 8000ce0:	f000 ff63 	bl	8001baa <lcdString>
		HAL_GPIO_WritePin(Fan_GPIO_Port, Fan_Pin, 0);
 8000ce4:	2200      	movs	r2, #0
 8000ce6:	2102      	movs	r1, #2
 8000ce8:	4805      	ldr	r0, [pc, #20]	; (8000d00 <loadControl+0x6c>)
 8000cea:	f002 fd50 	bl	800378e <HAL_GPIO_WritePin>
	return;
 8000cee:	bf00      	nop
}
 8000cf0:	3708      	adds	r7, #8
 8000cf2:	46bd      	mov	sp, r7
 8000cf4:	bd80      	pop	{r7, pc}
 8000cf6:	bf00      	nop
 8000cf8:	40010c00 	.word	0x40010c00
 8000cfc:	0800ac90 	.word	0x0800ac90
 8000d00:	40010800 	.word	0x40010800
 8000d04:	0800ac94 	.word	0x0800ac94

08000d08 <usbReset>:
	uint32_t p = 0;
	p = ((val*ADC_LSB)>>ESCALA);
	return (uint16_t)p;
}

void usbReset(){
 8000d08:	b580      	push	{r7, lr}
 8000d0a:	b086      	sub	sp, #24
 8000d0c:	af00      	add	r7, sp, #0
	/* GPIO Ports Clock Enable */
	GPIO_InitTypeDef GPIO_InitStruct = {0};
 8000d0e:	f107 0308 	add.w	r3, r7, #8
 8000d12:	2200      	movs	r2, #0
 8000d14:	601a      	str	r2, [r3, #0]
 8000d16:	605a      	str	r2, [r3, #4]
 8000d18:	609a      	str	r2, [r3, #8]
 8000d1a:	60da      	str	r2, [r3, #12]
	__HAL_RCC_GPIOA_CLK_ENABLE();
 8000d1c:	4b12      	ldr	r3, [pc, #72]	; (8000d68 <usbReset+0x60>)
 8000d1e:	699b      	ldr	r3, [r3, #24]
 8000d20:	4a11      	ldr	r2, [pc, #68]	; (8000d68 <usbReset+0x60>)
 8000d22:	f043 0304 	orr.w	r3, r3, #4
 8000d26:	6193      	str	r3, [r2, #24]
 8000d28:	4b0f      	ldr	r3, [pc, #60]	; (8000d68 <usbReset+0x60>)
 8000d2a:	699b      	ldr	r3, [r3, #24]
 8000d2c:	f003 0304 	and.w	r3, r3, #4
 8000d30:	607b      	str	r3, [r7, #4]
 8000d32:	687b      	ldr	r3, [r7, #4]
	HAL_GPIO_WritePin(usbD_GPIO_Port, usbD_Pin, 0);
 8000d34:	2200      	movs	r2, #0
 8000d36:	f44f 5180 	mov.w	r1, #4096	; 0x1000
 8000d3a:	480c      	ldr	r0, [pc, #48]	; (8000d6c <usbReset+0x64>)
 8000d3c:	f002 fd27 	bl	800378e <HAL_GPIO_WritePin>
	/*Configure GPIO pin : usbD_Pin */
	GPIO_InitStruct.Pin = usbD_Pin;
 8000d40:	f44f 5380 	mov.w	r3, #4096	; 0x1000
 8000d44:	60bb      	str	r3, [r7, #8]
	GPIO_InitStruct.Mode = GPIO_MODE_OUTPUT_PP;
 8000d46:	2301      	movs	r3, #1
 8000d48:	60fb      	str	r3, [r7, #12]
	GPIO_InitStruct.Pull = GPIO_NOPULL;
 8000d4a:	2300      	movs	r3, #0
 8000d4c:	613b      	str	r3, [r7, #16]
	GPIO_InitStruct.Speed = GPIO_SPEED_FREQ_LOW;
 8000d4e:	2302      	movs	r3, #2
 8000d50:	617b      	str	r3, [r7, #20]
	HAL_GPIO_Init(usbD_GPIO_Port, &GPIO_InitStruct);
 8000d52:	f107 0308 	add.w	r3, r7, #8
 8000d56:	4619      	mov	r1, r3
 8000d58:	4804      	ldr	r0, [pc, #16]	; (8000d6c <usbReset+0x64>)
 8000d5a:	f002 fb7d 	bl	8003458 <HAL_GPIO_Init>
}
 8000d5e:	bf00      	nop
 8000d60:	3718      	adds	r7, #24
 8000d62:	46bd      	mov	sp, r7
 8000d64:	bd80      	pop	{r7, pc}
 8000d66:	bf00      	nop
 8000d68:	40021000 	.word	0x40021000
 8000d6c:	40010800 	.word	0x40010800

08000d70 <CDC_FreeToTransmit>:

uint8_t CDC_FreeToTransmit()
{
 8000d70:	b480      	push	{r7}
 8000d72:	b083      	sub	sp, #12
 8000d74:	af00      	add	r7, sp, #0
	USBD_CDC_HandleTypeDef *hcdc = (USBD_CDC_HandleTypeDef*)hUsbDeviceFS.pClassData;
 8000d76:	4b0c      	ldr	r3, [pc, #48]	; (8000da8 <CDC_FreeToTransmit+0x38>)
 8000d78:	f8d3 32b8 	ldr.w	r3, [r3, #696]	; 0x2b8
 8000d7c:	607b      	str	r3, [r7, #4]

	if (hUsbDeviceFS.dev_state != USBD_STATE_CONFIGURED){
 8000d7e:	4b0a      	ldr	r3, [pc, #40]	; (8000da8 <CDC_FreeToTransmit+0x38>)
 8000d80:	f893 329c 	ldrb.w	r3, [r3, #668]	; 0x29c
 8000d84:	2b03      	cmp	r3, #3
 8000d86:	d001      	beq.n	8000d8c <CDC_FreeToTransmit+0x1c>
		// el dispositivo aun no fue configurado
		return 0;
 8000d88:	2300      	movs	r3, #0
 8000d8a:	e007      	b.n	8000d9c <CDC_FreeToTransmit+0x2c>
	}
	if (hcdc->TxState != 0) {
 8000d8c:	687b      	ldr	r3, [r7, #4]
 8000d8e:	f8d3 3214 	ldr.w	r3, [r3, #532]	; 0x214
 8000d92:	2b00      	cmp	r3, #0
 8000d94:	d001      	beq.n	8000d9a <CDC_FreeToTransmit+0x2a>
		// ocupado, no esta listo para transmitir
		return 1;
 8000d96:	2301      	movs	r3, #1
 8000d98:	e000      	b.n	8000d9c <CDC_FreeToTransmit+0x2c>
	}
		//dispositivo listo para transmitir
	return 2;
 8000d9a:	2302      	movs	r3, #2
}
 8000d9c:	4618      	mov	r0, r3
 8000d9e:	370c      	adds	r7, #12
 8000da0:	46bd      	mov	sp, r7
 8000da2:	bc80      	pop	{r7}
 8000da4:	4770      	bx	lr
 8000da6:	bf00      	nop
 8000da8:	20000584 	.word	0x20000584

08000dac <usbSendInt>:

void usbSendInt(uint16_t num){
 8000dac:	b580      	push	{r7, lr}
 8000dae:	b088      	sub	sp, #32
 8000db0:	af00      	add	r7, sp, #0
 8000db2:	4603      	mov	r3, r0
 8000db4:	80fb      	strh	r3, [r7, #6]
	char buffer[20];
	itoa(num, buffer, 10);
 8000db6:	88fb      	ldrh	r3, [r7, #6]
 8000db8:	f107 010c 	add.w	r1, r7, #12
 8000dbc:	220a      	movs	r2, #10
 8000dbe:	4618      	mov	r0, r3
 8000dc0:	f009 febc 	bl	800ab3c <itoa>
	usbSendString(buffer);
 8000dc4:	f107 030c 	add.w	r3, r7, #12
 8000dc8:	4618      	mov	r0, r3
 8000dca:	f000 f804 	bl	8000dd6 <usbSendString>
	return;
 8000dce:	bf00      	nop
}
 8000dd0:	3720      	adds	r7, #32
 8000dd2:	46bd      	mov	sp, r7
 8000dd4:	bd80      	pop	{r7, pc}

08000dd6 <usbSendString>:

void usbSendString( char *st){
 8000dd6:	b580      	push	{r7, lr}
 8000dd8:	b084      	sub	sp, #16
 8000dda:	af00      	add	r7, sp, #0
 8000ddc:	6078      	str	r0, [r7, #4]
	uint8_t tam = 0;
 8000dde:	2300      	movs	r3, #0
 8000de0:	73fb      	strb	r3, [r7, #15]
	int8_t *pos = st;
 8000de2:	687b      	ldr	r3, [r7, #4]
 8000de4:	60bb      	str	r3, [r7, #8]
	switch (CDC_FreeToTransmit()){
 8000de6:	f7ff ffc3 	bl	8000d70 <CDC_FreeToTransmit>
 8000dea:	4603      	mov	r3, r0
 8000dec:	2b02      	cmp	r3, #2
 8000dee:	d00c      	beq.n	8000e0a <usbSendString+0x34>
 8000df0:	2b02      	cmp	r3, #2
 8000df2:	dc12      	bgt.n	8000e1a <usbSendString+0x44>
 8000df4:	2b00      	cmp	r3, #0
 8000df6:	d01c      	beq.n	8000e32 <usbSendString+0x5c>
 8000df8:	2b01      	cmp	r3, #1
 8000dfa:	d107      	bne.n	8000e0c <usbSendString+0x36>
	case 0:								// USB no configurado salir sin enviar
		return;
		break;
	case 1:								// USB no esta listo para transmitir
		while(CDC_FreeToTransmit() == 1){}
 8000dfc:	bf00      	nop
 8000dfe:	f7ff ffb7 	bl	8000d70 <CDC_FreeToTransmit>
 8000e02:	4603      	mov	r3, r0
 8000e04:	2b01      	cmp	r3, #1
 8000e06:	d0fa      	beq.n	8000dfe <usbSendString+0x28>
		break;
 8000e08:	e000      	b.n	8000e0c <usbSendString+0x36>
	case 2:								// USB listo para transmitir
		break;
 8000e0a:	bf00      	nop
	}

	while (*pos){
 8000e0c:	e005      	b.n	8000e1a <usbSendString+0x44>
		tam++;
 8000e0e:	7bfb      	ldrb	r3, [r7, #15]
 8000e10:	3301      	adds	r3, #1
 8000e12:	73fb      	strb	r3, [r7, #15]
		pos++;
 8000e14:	68bb      	ldr	r3, [r7, #8]
 8000e16:	3301      	adds	r3, #1
 8000e18:	60bb      	str	r3, [r7, #8]
	while (*pos){
 8000e1a:	68bb      	ldr	r3, [r7, #8]
 8000e1c:	f993 3000 	ldrsb.w	r3, [r3]
 8000e20:	2b00      	cmp	r3, #0
 8000e22:	d1f4      	bne.n	8000e0e <usbSendString+0x38>
	}
	CDC_Transmit_FS(st, tam);
 8000e24:	7bfb      	ldrb	r3, [r7, #15]
 8000e26:	b29b      	uxth	r3, r3
 8000e28:	4619      	mov	r1, r3
 8000e2a:	6878      	ldr	r0, [r7, #4]
 8000e2c:	f009 fa6c 	bl	800a308 <CDC_Transmit_FS>
	//free(*msg);
	return;
 8000e30:	e000      	b.n	8000e34 <usbSendString+0x5e>
		return;
 8000e32:	bf00      	nop
}
 8000e34:	3710      	adds	r7, #16
 8000e36:	46bd      	mov	sp, r7
 8000e38:	bd80      	pop	{r7, pc}
	...

08000e3c <editKeysHandle>:


void editKeysHandle(char tecla, mode modo){
 8000e3c:	b580      	push	{r7, lr}
 8000e3e:	b084      	sub	sp, #16
 8000e40:	af00      	add	r7, sp, #0
 8000e42:	4603      	mov	r3, r0
 8000e44:	460a      	mov	r2, r1
 8000e46:	71fb      	strb	r3, [r7, #7]
 8000e48:	4613      	mov	r3, r2
 8000e4a:	71bb      	strb	r3, [r7, #6]
	bool isNumber = false;
 8000e4c:	2300      	movs	r3, #0
 8000e4e:	73fb      	strb	r3, [r7, #15]
	lcdCursorON();
 8000e50:	f000 fd87 	bl	8001962 <lcdCursorON>
	switch (tecla){
 8000e54:	79fb      	ldrb	r3, [r7, #7]
 8000e56:	2b43      	cmp	r3, #67	; 0x43
 8000e58:	d02f      	beq.n	8000eba <editKeysHandle+0x7e>
 8000e5a:	2b43      	cmp	r3, #67	; 0x43
 8000e5c:	dc22      	bgt.n	8000ea4 <editKeysHandle+0x68>
 8000e5e:	2b23      	cmp	r3, #35	; 0x23
 8000e60:	d002      	beq.n	8000e68 <editKeysHandle+0x2c>
 8000e62:	2b2a      	cmp	r3, #42	; 0x2a
 8000e64:	d00f      	beq.n	8000e86 <editKeysHandle+0x4a>
 8000e66:	e01d      	b.n	8000ea4 <editKeysHandle+0x68>
	case '#':			//flecha derecha
		digitCursorDec(digito);
 8000e68:	4b16      	ldr	r3, [pc, #88]	; (8000ec4 <editKeysHandle+0x88>)
 8000e6a:	781b      	ldrb	r3, [r3, #0]
 8000e6c:	b2db      	uxtb	r3, r3
 8000e6e:	4618      	mov	r0, r3
 8000e70:	f000 f846 	bl	8000f00 <digitCursorDec>
		cursorMove(modo, isNumber, isEncoder);
 8000e74:	4b14      	ldr	r3, [pc, #80]	; (8000ec8 <editKeysHandle+0x8c>)
 8000e76:	781b      	ldrb	r3, [r3, #0]
 8000e78:	b2da      	uxtb	r2, r3
 8000e7a:	7bf9      	ldrb	r1, [r7, #15]
 8000e7c:	79bb      	ldrb	r3, [r7, #6]
 8000e7e:	4618      	mov	r0, r3
 8000e80:	f000 f858 	bl	8000f34 <cursorMove>
		break;
 8000e84:	e01a      	b.n	8000ebc <editKeysHandle+0x80>

	case '*':			//flecha izquierda
		digitCursorInc(digito);
 8000e86:	4b0f      	ldr	r3, [pc, #60]	; (8000ec4 <editKeysHandle+0x88>)
 8000e88:	781b      	ldrb	r3, [r3, #0]
 8000e8a:	b2db      	uxtb	r3, r3
 8000e8c:	4618      	mov	r0, r3
 8000e8e:	f000 f81d 	bl	8000ecc <digitCursorInc>
		cursorMove(modo, isNumber, isEncoder);
 8000e92:	4b0d      	ldr	r3, [pc, #52]	; (8000ec8 <editKeysHandle+0x8c>)
 8000e94:	781b      	ldrb	r3, [r3, #0]
 8000e96:	b2da      	uxtb	r2, r3
 8000e98:	7bf9      	ldrb	r1, [r7, #15]
 8000e9a:	79bb      	ldrb	r3, [r7, #6]
 8000e9c:	4618      	mov	r0, r3
 8000e9e:	f000 f849 	bl	8000f34 <cursorMove>
		break;
 8000ea2:	e00b      	b.n	8000ebc <editKeysHandle+0x80>
	case 'C':
		return;
		break;
	default:
		isNumber = true;
 8000ea4:	2301      	movs	r3, #1
 8000ea6:	73fb      	strb	r3, [r7, #15]
		cursorMove(modo, isNumber, isEncoder);
 8000ea8:	4b07      	ldr	r3, [pc, #28]	; (8000ec8 <editKeysHandle+0x8c>)
 8000eaa:	781b      	ldrb	r3, [r3, #0]
 8000eac:	b2da      	uxtb	r2, r3
 8000eae:	7bf9      	ldrb	r1, [r7, #15]
 8000eb0:	79bb      	ldrb	r3, [r7, #6]
 8000eb2:	4618      	mov	r0, r3
 8000eb4:	f000 f83e 	bl	8000f34 <cursorMove>
		break;
 8000eb8:	e000      	b.n	8000ebc <editKeysHandle+0x80>
		return;
 8000eba:	bf00      	nop
	}

}
 8000ebc:	3710      	adds	r7, #16
 8000ebe:	46bd      	mov	sp, r7
 8000ec0:	bd80      	pop	{r7, pc}
 8000ec2:	bf00      	nop
 8000ec4:	20000001 	.word	0x20000001
 8000ec8:	200001a1 	.word	0x200001a1

08000ecc <digitCursorInc>:

void digitCursorInc (digit d){
 8000ecc:	b480      	push	{r7}
 8000ece:	b083      	sub	sp, #12
 8000ed0:	af00      	add	r7, sp, #0
 8000ed2:	4603      	mov	r3, r0
 8000ed4:	71fb      	strb	r3, [r7, #7]
	if (d == UNIDAD_MIL){
 8000ed6:	79fb      	ldrb	r3, [r7, #7]
 8000ed8:	2b03      	cmp	r3, #3
 8000eda:	d103      	bne.n	8000ee4 <digitCursorInc+0x18>
		digito = UNIDAD;
 8000edc:	4b07      	ldr	r3, [pc, #28]	; (8000efc <digitCursorInc+0x30>)
 8000ede:	2200      	movs	r2, #0
 8000ee0:	701a      	strb	r2, [r3, #0]
		return;
 8000ee2:	e007      	b.n	8000ef4 <digitCursorInc+0x28>
	}else{
		digito ++;
 8000ee4:	4b05      	ldr	r3, [pc, #20]	; (8000efc <digitCursorInc+0x30>)
 8000ee6:	781b      	ldrb	r3, [r3, #0]
 8000ee8:	b2db      	uxtb	r3, r3
 8000eea:	3301      	adds	r3, #1
 8000eec:	b2da      	uxtb	r2, r3
 8000eee:	4b03      	ldr	r3, [pc, #12]	; (8000efc <digitCursorInc+0x30>)
 8000ef0:	701a      	strb	r2, [r3, #0]
		return;
 8000ef2:	bf00      	nop
	}
}
 8000ef4:	370c      	adds	r7, #12
 8000ef6:	46bd      	mov	sp, r7
 8000ef8:	bc80      	pop	{r7}
 8000efa:	4770      	bx	lr
 8000efc:	20000001 	.word	0x20000001

08000f00 <digitCursorDec>:

void digitCursorDec (digit d){
 8000f00:	b480      	push	{r7}
 8000f02:	b083      	sub	sp, #12
 8000f04:	af00      	add	r7, sp, #0
 8000f06:	4603      	mov	r3, r0
 8000f08:	71fb      	strb	r3, [r7, #7]
	if (d == UNIDAD){
 8000f0a:	79fb      	ldrb	r3, [r7, #7]
 8000f0c:	2b00      	cmp	r3, #0
 8000f0e:	d103      	bne.n	8000f18 <digitCursorDec+0x18>
		digito = UNIDAD_MIL;
 8000f10:	4b07      	ldr	r3, [pc, #28]	; (8000f30 <digitCursorDec+0x30>)
 8000f12:	2203      	movs	r2, #3
 8000f14:	701a      	strb	r2, [r3, #0]
		return;
 8000f16:	e007      	b.n	8000f28 <digitCursorDec+0x28>
	}else {
		digito -- ;
 8000f18:	4b05      	ldr	r3, [pc, #20]	; (8000f30 <digitCursorDec+0x30>)
 8000f1a:	781b      	ldrb	r3, [r3, #0]
 8000f1c:	b2db      	uxtb	r3, r3
 8000f1e:	3b01      	subs	r3, #1
 8000f20:	b2da      	uxtb	r2, r3
 8000f22:	4b03      	ldr	r3, [pc, #12]	; (8000f30 <digitCursorDec+0x30>)
 8000f24:	701a      	strb	r2, [r3, #0]
		return;
 8000f26:	bf00      	nop
	}
}
 8000f28:	370c      	adds	r7, #12
 8000f2a:	46bd      	mov	sp, r7
 8000f2c:	bc80      	pop	{r7}
 8000f2e:	4770      	bx	lr
 8000f30:	20000001 	.word	0x20000001

08000f34 <cursorMove>:

void cursorMove(mode modo, bool isNumber, bool isEncoder){
 8000f34:	b580      	push	{r7, lr}
 8000f36:	b082      	sub	sp, #8
 8000f38:	af00      	add	r7, sp, #0
 8000f3a:	4603      	mov	r3, r0
 8000f3c:	71fb      	strb	r3, [r7, #7]
 8000f3e:	460b      	mov	r3, r1
 8000f40:	71bb      	strb	r3, [r7, #6]
 8000f42:	4613      	mov	r3, r2
 8000f44:	717b      	strb	r3, [r7, #5]
	if (modo == CC){
 8000f46:	79fb      	ldrb	r3, [r7, #7]
 8000f48:	2b01      	cmp	r3, #1
 8000f4a:	f040 81cb 	bne.w	80012e4 <cursorMove+0x3b0>
		switch (digito){
 8000f4e:	4baa      	ldr	r3, [pc, #680]	; (80011f8 <cursorMove+0x2c4>)
 8000f50:	781b      	ldrb	r3, [r3, #0]
 8000f52:	b2db      	uxtb	r3, r3
 8000f54:	2b03      	cmp	r3, #3
 8000f56:	f200 81c5 	bhi.w	80012e4 <cursorMove+0x3b0>
 8000f5a:	a201      	add	r2, pc, #4	; (adr r2, 8000f60 <cursorMove+0x2c>)
 8000f5c:	f852 f023 	ldr.w	pc, [r2, r3, lsl #2]
 8000f60:	08000f71 	.word	0x08000f71
 8000f64:	08001047 	.word	0x08001047
 8000f68:	08001129 	.word	0x08001129
 8000f6c:	08001219 	.word	0x08001219
		case UNIDAD:
			lcdCursor(1, 9);
 8000f70:	2109      	movs	r1, #9
 8000f72:	2001      	movs	r0, #1
 8000f74:	f000 fda0 	bl	8001ab8 <lcdCursor>

			if (isNumber){
 8000f78:	79bb      	ldrb	r3, [r7, #6]
 8000f7a:	2b00      	cmp	r3, #0
 8000f7c:	d00e      	beq.n	8000f9c <cursorMove+0x68>
				unidad = tecla-'0';
 8000f7e:	4b9f      	ldr	r3, [pc, #636]	; (80011fc <cursorMove+0x2c8>)
 8000f80:	781b      	ldrb	r3, [r3, #0]
 8000f82:	3b30      	subs	r3, #48	; 0x30
 8000f84:	b2da      	uxtb	r2, r3
 8000f86:	4b9e      	ldr	r3, [pc, #632]	; (8001200 <cursorMove+0x2cc>)
 8000f88:	701a      	strb	r2, [r3, #0]
				lcdEscribeInt(unidad);
 8000f8a:	4b9d      	ldr	r3, [pc, #628]	; (8001200 <cursorMove+0x2cc>)
 8000f8c:	781b      	ldrb	r3, [r3, #0]
 8000f8e:	4618      	mov	r0, r3
 8000f90:	f000 fe31 	bl	8001bf6 <lcdEscribeInt>
				lcdCursor(1, 9);
 8000f94:	2109      	movs	r1, #9
 8000f96:	2001      	movs	r0, #1
 8000f98:	f000 fd8e 	bl	8001ab8 <lcdCursor>
			}
			if (isEncoder){
 8000f9c:	797b      	ldrb	r3, [r7, #5]
 8000f9e:	2b00      	cmp	r3, #0
 8000fa0:	d047      	beq.n	8001032 <cursorMove+0xfe>
				if (incEncoder){
 8000fa2:	4b98      	ldr	r3, [pc, #608]	; (8001204 <cursorMove+0x2d0>)
 8000fa4:	781b      	ldrb	r3, [r3, #0]
 8000fa6:	b2db      	uxtb	r3, r3
 8000fa8:	2b00      	cmp	r3, #0
 8000faa:	d020      	beq.n	8000fee <cursorMove+0xba>
					if (unidad == 9){
 8000fac:	4b94      	ldr	r3, [pc, #592]	; (8001200 <cursorMove+0x2cc>)
 8000fae:	781b      	ldrb	r3, [r3, #0]
 8000fb0:	2b09      	cmp	r3, #9
 8000fb2:	d10c      	bne.n	8000fce <cursorMove+0x9a>
						unidad = 0;
 8000fb4:	4b92      	ldr	r3, [pc, #584]	; (8001200 <cursorMove+0x2cc>)
 8000fb6:	2200      	movs	r2, #0
 8000fb8:	701a      	strb	r2, [r3, #0]
						lcdEscribeInt(unidad);
 8000fba:	4b91      	ldr	r3, [pc, #580]	; (8001200 <cursorMove+0x2cc>)
 8000fbc:	781b      	ldrb	r3, [r3, #0]
 8000fbe:	4618      	mov	r0, r3
 8000fc0:	f000 fe19 	bl	8001bf6 <lcdEscribeInt>
						lcdCursor(1, 9);
 8000fc4:	2109      	movs	r1, #9
 8000fc6:	2001      	movs	r0, #1
 8000fc8:	f000 fd76 	bl	8001ab8 <lcdCursor>
 8000fcc:	e02f      	b.n	800102e <cursorMove+0xfa>
					}else{
						unidad++;
 8000fce:	4b8c      	ldr	r3, [pc, #560]	; (8001200 <cursorMove+0x2cc>)
 8000fd0:	781b      	ldrb	r3, [r3, #0]
 8000fd2:	3301      	adds	r3, #1
 8000fd4:	b2da      	uxtb	r2, r3
 8000fd6:	4b8a      	ldr	r3, [pc, #552]	; (8001200 <cursorMove+0x2cc>)
 8000fd8:	701a      	strb	r2, [r3, #0]
						lcdEscribeInt(unidad);
 8000fda:	4b89      	ldr	r3, [pc, #548]	; (8001200 <cursorMove+0x2cc>)
 8000fdc:	781b      	ldrb	r3, [r3, #0]
 8000fde:	4618      	mov	r0, r3
 8000fe0:	f000 fe09 	bl	8001bf6 <lcdEscribeInt>
						lcdCursor(1, 9);
 8000fe4:	2109      	movs	r1, #9
 8000fe6:	2001      	movs	r0, #1
 8000fe8:	f000 fd66 	bl	8001ab8 <lcdCursor>
 8000fec:	e01f      	b.n	800102e <cursorMove+0xfa>
					}
				}else{
					if (unidad == 0){
 8000fee:	4b84      	ldr	r3, [pc, #528]	; (8001200 <cursorMove+0x2cc>)
 8000ff0:	781b      	ldrb	r3, [r3, #0]
 8000ff2:	2b00      	cmp	r3, #0
 8000ff4:	d10c      	bne.n	8001010 <cursorMove+0xdc>
						unidad = 9;
 8000ff6:	4b82      	ldr	r3, [pc, #520]	; (8001200 <cursorMove+0x2cc>)
 8000ff8:	2209      	movs	r2, #9
 8000ffa:	701a      	strb	r2, [r3, #0]
						lcdEscribeInt(unidad);
 8000ffc:	4b80      	ldr	r3, [pc, #512]	; (8001200 <cursorMove+0x2cc>)
 8000ffe:	781b      	ldrb	r3, [r3, #0]
 8001000:	4618      	mov	r0, r3
 8001002:	f000 fdf8 	bl	8001bf6 <lcdEscribeInt>
						lcdCursor(1, 9);
 8001006:	2109      	movs	r1, #9
 8001008:	2001      	movs	r0, #1
 800100a:	f000 fd55 	bl	8001ab8 <lcdCursor>
 800100e:	e00e      	b.n	800102e <cursorMove+0xfa>
					}else{
						unidad --;
 8001010:	4b7b      	ldr	r3, [pc, #492]	; (8001200 <cursorMove+0x2cc>)
 8001012:	781b      	ldrb	r3, [r3, #0]
 8001014:	3b01      	subs	r3, #1
 8001016:	b2da      	uxtb	r2, r3
 8001018:	4b79      	ldr	r3, [pc, #484]	; (8001200 <cursorMove+0x2cc>)
 800101a:	701a      	strb	r2, [r3, #0]
						lcdEscribeInt(unidad);
 800101c:	4b78      	ldr	r3, [pc, #480]	; (8001200 <cursorMove+0x2cc>)
 800101e:	781b      	ldrb	r3, [r3, #0]
 8001020:	4618      	mov	r0, r3
 8001022:	f000 fde8 	bl	8001bf6 <lcdEscribeInt>
						lcdCursor(1, 9);
 8001026:	2109      	movs	r1, #9
 8001028:	2001      	movs	r0, #1
 800102a:	f000 fd45 	bl	8001ab8 <lcdCursor>
					}
				}
				isEncoder = false;
 800102e:	2300      	movs	r3, #0
 8001030:	717b      	strb	r3, [r7, #5]
			}

			usbSendString("posicion cursor: ");
 8001032:	4875      	ldr	r0, [pc, #468]	; (8001208 <cursorMove+0x2d4>)
 8001034:	f7ff fecf 	bl	8000dd6 <usbSendString>
			usbSendInt(9);
 8001038:	2009      	movs	r0, #9
 800103a:	f7ff feb7 	bl	8000dac <usbSendInt>
			usbSendString("\n\r");
 800103e:	4873      	ldr	r0, [pc, #460]	; (800120c <cursorMove+0x2d8>)
 8001040:	f7ff fec9 	bl	8000dd6 <usbSendString>
			break;
 8001044:	e14e      	b.n	80012e4 <cursorMove+0x3b0>

		case DECENA:
			lcdCursor(1, 8);
 8001046:	2108      	movs	r1, #8
 8001048:	2001      	movs	r0, #1
 800104a:	f000 fd35 	bl	8001ab8 <lcdCursor>

			if (isNumber){
 800104e:	79bb      	ldrb	r3, [r7, #6]
 8001050:	2b00      	cmp	r3, #0
 8001052:	d014      	beq.n	800107e <cursorMove+0x14a>
				decena = tecla-'0';
 8001054:	4b69      	ldr	r3, [pc, #420]	; (80011fc <cursorMove+0x2c8>)
 8001056:	781b      	ldrb	r3, [r3, #0]
 8001058:	3b30      	subs	r3, #48	; 0x30
 800105a:	b2da      	uxtb	r2, r3
 800105c:	4b6c      	ldr	r3, [pc, #432]	; (8001210 <cursorMove+0x2dc>)
 800105e:	701a      	strb	r2, [r3, #0]
				lcdEscribeInt(decena);
 8001060:	4b6b      	ldr	r3, [pc, #428]	; (8001210 <cursorMove+0x2dc>)
 8001062:	781b      	ldrb	r3, [r3, #0]
 8001064:	4618      	mov	r0, r3
 8001066:	f000 fdc6 	bl	8001bf6 <lcdEscribeInt>
				digitCursorDec(digito);
 800106a:	4b63      	ldr	r3, [pc, #396]	; (80011f8 <cursorMove+0x2c4>)
 800106c:	781b      	ldrb	r3, [r3, #0]
 800106e:	b2db      	uxtb	r3, r3
 8001070:	4618      	mov	r0, r3
 8001072:	f7ff ff45 	bl	8000f00 <digitCursorDec>
				lcdCursor(1, 9);
 8001076:	2109      	movs	r1, #9
 8001078:	2001      	movs	r0, #1
 800107a:	f000 fd1d 	bl	8001ab8 <lcdCursor>
			}

			if (isEncoder){
 800107e:	797b      	ldrb	r3, [r7, #5]
 8001080:	2b00      	cmp	r3, #0
 8001082:	d047      	beq.n	8001114 <cursorMove+0x1e0>
				if (incEncoder){
 8001084:	4b5f      	ldr	r3, [pc, #380]	; (8001204 <cursorMove+0x2d0>)
 8001086:	781b      	ldrb	r3, [r3, #0]
 8001088:	b2db      	uxtb	r3, r3
 800108a:	2b00      	cmp	r3, #0
 800108c:	d020      	beq.n	80010d0 <cursorMove+0x19c>
					if (decena == 9){
 800108e:	4b60      	ldr	r3, [pc, #384]	; (8001210 <cursorMove+0x2dc>)
 8001090:	781b      	ldrb	r3, [r3, #0]
 8001092:	2b09      	cmp	r3, #9
 8001094:	d10c      	bne.n	80010b0 <cursorMove+0x17c>
						decena = 0;
 8001096:	4b5e      	ldr	r3, [pc, #376]	; (8001210 <cursorMove+0x2dc>)
 8001098:	2200      	movs	r2, #0
 800109a:	701a      	strb	r2, [r3, #0]
						lcdEscribeInt(decena);
 800109c:	4b5c      	ldr	r3, [pc, #368]	; (8001210 <cursorMove+0x2dc>)
 800109e:	781b      	ldrb	r3, [r3, #0]
 80010a0:	4618      	mov	r0, r3
 80010a2:	f000 fda8 	bl	8001bf6 <lcdEscribeInt>
						lcdCursor(1, 8);
 80010a6:	2108      	movs	r1, #8
 80010a8:	2001      	movs	r0, #1
 80010aa:	f000 fd05 	bl	8001ab8 <lcdCursor>
 80010ae:	e02f      	b.n	8001110 <cursorMove+0x1dc>
					}else{
						decena++;
 80010b0:	4b57      	ldr	r3, [pc, #348]	; (8001210 <cursorMove+0x2dc>)
 80010b2:	781b      	ldrb	r3, [r3, #0]
 80010b4:	3301      	adds	r3, #1
 80010b6:	b2da      	uxtb	r2, r3
 80010b8:	4b55      	ldr	r3, [pc, #340]	; (8001210 <cursorMove+0x2dc>)
 80010ba:	701a      	strb	r2, [r3, #0]
						lcdEscribeInt(decena);
 80010bc:	4b54      	ldr	r3, [pc, #336]	; (8001210 <cursorMove+0x2dc>)
 80010be:	781b      	ldrb	r3, [r3, #0]
 80010c0:	4618      	mov	r0, r3
 80010c2:	f000 fd98 	bl	8001bf6 <lcdEscribeInt>
						lcdCursor(1, 8);
 80010c6:	2108      	movs	r1, #8
 80010c8:	2001      	movs	r0, #1
 80010ca:	f000 fcf5 	bl	8001ab8 <lcdCursor>
 80010ce:	e01f      	b.n	8001110 <cursorMove+0x1dc>
					}
				}else{
					if (decena == 0){
 80010d0:	4b4f      	ldr	r3, [pc, #316]	; (8001210 <cursorMove+0x2dc>)
 80010d2:	781b      	ldrb	r3, [r3, #0]
 80010d4:	2b00      	cmp	r3, #0
 80010d6:	d10c      	bne.n	80010f2 <cursorMove+0x1be>
						decena = 9;
 80010d8:	4b4d      	ldr	r3, [pc, #308]	; (8001210 <cursorMove+0x2dc>)
 80010da:	2209      	movs	r2, #9
 80010dc:	701a      	strb	r2, [r3, #0]
						lcdEscribeInt(decena);
 80010de:	4b4c      	ldr	r3, [pc, #304]	; (8001210 <cursorMove+0x2dc>)
 80010e0:	781b      	ldrb	r3, [r3, #0]
 80010e2:	4618      	mov	r0, r3
 80010e4:	f000 fd87 	bl	8001bf6 <lcdEscribeInt>
						lcdCursor(1, 8);
 80010e8:	2108      	movs	r1, #8
 80010ea:	2001      	movs	r0, #1
 80010ec:	f000 fce4 	bl	8001ab8 <lcdCursor>
 80010f0:	e00e      	b.n	8001110 <cursorMove+0x1dc>
					}else{
						decena --;
 80010f2:	4b47      	ldr	r3, [pc, #284]	; (8001210 <cursorMove+0x2dc>)
 80010f4:	781b      	ldrb	r3, [r3, #0]
 80010f6:	3b01      	subs	r3, #1
 80010f8:	b2da      	uxtb	r2, r3
 80010fa:	4b45      	ldr	r3, [pc, #276]	; (8001210 <cursorMove+0x2dc>)
 80010fc:	701a      	strb	r2, [r3, #0]
						lcdEscribeInt(decena);
 80010fe:	4b44      	ldr	r3, [pc, #272]	; (8001210 <cursorMove+0x2dc>)
 8001100:	781b      	ldrb	r3, [r3, #0]
 8001102:	4618      	mov	r0, r3
 8001104:	f000 fd77 	bl	8001bf6 <lcdEscribeInt>
						lcdCursor(1, 8);
 8001108:	2108      	movs	r1, #8
 800110a:	2001      	movs	r0, #1
 800110c:	f000 fcd4 	bl	8001ab8 <lcdCursor>
					}
				}
				isEncoder = false;
 8001110:	2300      	movs	r3, #0
 8001112:	717b      	strb	r3, [r7, #5]
			}

			usbSendString("posicion cursor: ");
 8001114:	483c      	ldr	r0, [pc, #240]	; (8001208 <cursorMove+0x2d4>)
 8001116:	f7ff fe5e 	bl	8000dd6 <usbSendString>
			usbSendInt(8);
 800111a:	2008      	movs	r0, #8
 800111c:	f7ff fe46 	bl	8000dac <usbSendInt>
			usbSendString("\n\r");
 8001120:	483a      	ldr	r0, [pc, #232]	; (800120c <cursorMove+0x2d8>)
 8001122:	f7ff fe58 	bl	8000dd6 <usbSendString>
			break;
 8001126:	e0dd      	b.n	80012e4 <cursorMove+0x3b0>

		case CENTENA:
			lcdCursor(1, 7);
 8001128:	2107      	movs	r1, #7
 800112a:	2001      	movs	r0, #1
 800112c:	f000 fcc4 	bl	8001ab8 <lcdCursor>

			if (isNumber){
 8001130:	79bb      	ldrb	r3, [r7, #6]
 8001132:	2b00      	cmp	r3, #0
 8001134:	d014      	beq.n	8001160 <cursorMove+0x22c>
				centena = tecla-'0';
 8001136:	4b31      	ldr	r3, [pc, #196]	; (80011fc <cursorMove+0x2c8>)
 8001138:	781b      	ldrb	r3, [r3, #0]
 800113a:	3b30      	subs	r3, #48	; 0x30
 800113c:	b2da      	uxtb	r2, r3
 800113e:	4b35      	ldr	r3, [pc, #212]	; (8001214 <cursorMove+0x2e0>)
 8001140:	701a      	strb	r2, [r3, #0]
				lcdEscribeInt(centena);
 8001142:	4b34      	ldr	r3, [pc, #208]	; (8001214 <cursorMove+0x2e0>)
 8001144:	781b      	ldrb	r3, [r3, #0]
 8001146:	4618      	mov	r0, r3
 8001148:	f000 fd55 	bl	8001bf6 <lcdEscribeInt>
				digitCursorDec(digito);
 800114c:	4b2a      	ldr	r3, [pc, #168]	; (80011f8 <cursorMove+0x2c4>)
 800114e:	781b      	ldrb	r3, [r3, #0]
 8001150:	b2db      	uxtb	r3, r3
 8001152:	4618      	mov	r0, r3
 8001154:	f7ff fed4 	bl	8000f00 <digitCursorDec>
				lcdCursor(1, 8);
 8001158:	2108      	movs	r1, #8
 800115a:	2001      	movs	r0, #1
 800115c:	f000 fcac 	bl	8001ab8 <lcdCursor>
			}

			if (isEncoder){
 8001160:	797b      	ldrb	r3, [r7, #5]
 8001162:	2b00      	cmp	r3, #0
 8001164:	d03e      	beq.n	80011e4 <cursorMove+0x2b0>
				if (incEncoder){
 8001166:	4b27      	ldr	r3, [pc, #156]	; (8001204 <cursorMove+0x2d0>)
 8001168:	781b      	ldrb	r3, [r3, #0]
 800116a:	b2db      	uxtb	r3, r3
 800116c:	2b00      	cmp	r3, #0
 800116e:	d017      	beq.n	80011a0 <cursorMove+0x26c>
					if (centena == 9){
 8001170:	4b28      	ldr	r3, [pc, #160]	; (8001214 <cursorMove+0x2e0>)
 8001172:	781b      	ldrb	r3, [r3, #0]
 8001174:	2b09      	cmp	r3, #9
 8001176:	d103      	bne.n	8001180 <cursorMove+0x24c>
						centena = 0;
 8001178:	4b26      	ldr	r3, [pc, #152]	; (8001214 <cursorMove+0x2e0>)
 800117a:	2200      	movs	r2, #0
 800117c:	701a      	strb	r2, [r3, #0]
 800117e:	e005      	b.n	800118c <cursorMove+0x258>
					}else{
						centena++;
 8001180:	4b24      	ldr	r3, [pc, #144]	; (8001214 <cursorMove+0x2e0>)
 8001182:	781b      	ldrb	r3, [r3, #0]
 8001184:	3301      	adds	r3, #1
 8001186:	b2da      	uxtb	r2, r3
 8001188:	4b22      	ldr	r3, [pc, #136]	; (8001214 <cursorMove+0x2e0>)
 800118a:	701a      	strb	r2, [r3, #0]
					}
					lcdEscribeInt(centena);
 800118c:	4b21      	ldr	r3, [pc, #132]	; (8001214 <cursorMove+0x2e0>)
 800118e:	781b      	ldrb	r3, [r3, #0]
 8001190:	4618      	mov	r0, r3
 8001192:	f000 fd30 	bl	8001bf6 <lcdEscribeInt>
					lcdCursor(1, 7);
 8001196:	2107      	movs	r1, #7
 8001198:	2001      	movs	r0, #1
 800119a:	f000 fc8d 	bl	8001ab8 <lcdCursor>
 800119e:	e01f      	b.n	80011e0 <cursorMove+0x2ac>
				}else{
					if (centena == 0){
 80011a0:	4b1c      	ldr	r3, [pc, #112]	; (8001214 <cursorMove+0x2e0>)
 80011a2:	781b      	ldrb	r3, [r3, #0]
 80011a4:	2b00      	cmp	r3, #0
 80011a6:	d10c      	bne.n	80011c2 <cursorMove+0x28e>
						centena = 9;
 80011a8:	4b1a      	ldr	r3, [pc, #104]	; (8001214 <cursorMove+0x2e0>)
 80011aa:	2209      	movs	r2, #9
 80011ac:	701a      	strb	r2, [r3, #0]
						lcdEscribeInt(centena);
 80011ae:	4b19      	ldr	r3, [pc, #100]	; (8001214 <cursorMove+0x2e0>)
 80011b0:	781b      	ldrb	r3, [r3, #0]
 80011b2:	4618      	mov	r0, r3
 80011b4:	f000 fd1f 	bl	8001bf6 <lcdEscribeInt>
						lcdCursor(1, 7);
 80011b8:	2107      	movs	r1, #7
 80011ba:	2001      	movs	r0, #1
 80011bc:	f000 fc7c 	bl	8001ab8 <lcdCursor>
 80011c0:	e00e      	b.n	80011e0 <cursorMove+0x2ac>
					}else{
						centena --;
 80011c2:	4b14      	ldr	r3, [pc, #80]	; (8001214 <cursorMove+0x2e0>)
 80011c4:	781b      	ldrb	r3, [r3, #0]
 80011c6:	3b01      	subs	r3, #1
 80011c8:	b2da      	uxtb	r2, r3
 80011ca:	4b12      	ldr	r3, [pc, #72]	; (8001214 <cursorMove+0x2e0>)
 80011cc:	701a      	strb	r2, [r3, #0]
						lcdEscribeInt(centena);
 80011ce:	4b11      	ldr	r3, [pc, #68]	; (8001214 <cursorMove+0x2e0>)
 80011d0:	781b      	ldrb	r3, [r3, #0]
 80011d2:	4618      	mov	r0, r3
 80011d4:	f000 fd0f 	bl	8001bf6 <lcdEscribeInt>
						lcdCursor(1, 7);
 80011d8:	2107      	movs	r1, #7
 80011da:	2001      	movs	r0, #1
 80011dc:	f000 fc6c 	bl	8001ab8 <lcdCursor>
					}
				}
				isEncoder = false;
 80011e0:	2300      	movs	r3, #0
 80011e2:	717b      	strb	r3, [r7, #5]
			}

			usbSendString("posicion cursor: ");
 80011e4:	4808      	ldr	r0, [pc, #32]	; (8001208 <cursorMove+0x2d4>)
 80011e6:	f7ff fdf6 	bl	8000dd6 <usbSendString>
			usbSendInt(7);
 80011ea:	2007      	movs	r0, #7
 80011ec:	f7ff fdde 	bl	8000dac <usbSendInt>
			usbSendString("\n\r");
 80011f0:	4806      	ldr	r0, [pc, #24]	; (800120c <cursorMove+0x2d8>)
 80011f2:	f7ff fdf0 	bl	8000dd6 <usbSendString>
			break;
 80011f6:	e075      	b.n	80012e4 <cursorMove+0x3b0>
 80011f8:	20000001 	.word	0x20000001
 80011fc:	20000000 	.word	0x20000000
 8001200:	200003ce 	.word	0x200003ce
 8001204:	200001a0 	.word	0x200001a0
 8001208:	0800ac98 	.word	0x0800ac98
 800120c:	0800acac 	.word	0x0800acac
 8001210:	200003cd 	.word	0x200003cd
 8001214:	200003cc 	.word	0x200003cc

		case UNIDAD_MIL:
			lcdCursor(1, 6);
 8001218:	2106      	movs	r1, #6
 800121a:	2001      	movs	r0, #1
 800121c:	f000 fc4c 	bl	8001ab8 <lcdCursor>

			if (isNumber){
 8001220:	79bb      	ldrb	r3, [r7, #6]
 8001222:	2b00      	cmp	r3, #0
 8001224:	d01b      	beq.n	800125e <cursorMove+0x32a>
				unidad_mil = tecla-'0';
 8001226:	4b31      	ldr	r3, [pc, #196]	; (80012ec <cursorMove+0x3b8>)
 8001228:	781b      	ldrb	r3, [r3, #0]
 800122a:	3b30      	subs	r3, #48	; 0x30
 800122c:	b2da      	uxtb	r2, r3
 800122e:	4b30      	ldr	r3, [pc, #192]	; (80012f0 <cursorMove+0x3bc>)
 8001230:	701a      	strb	r2, [r3, #0]
				if (unidad_mil > 3){
 8001232:	4b2f      	ldr	r3, [pc, #188]	; (80012f0 <cursorMove+0x3bc>)
 8001234:	781b      	ldrb	r3, [r3, #0]
 8001236:	2b03      	cmp	r3, #3
 8001238:	d902      	bls.n	8001240 <cursorMove+0x30c>
					unidad_mil = 3;
 800123a:	4b2d      	ldr	r3, [pc, #180]	; (80012f0 <cursorMove+0x3bc>)
 800123c:	2203      	movs	r2, #3
 800123e:	701a      	strb	r2, [r3, #0]
				}
				lcdEscribeInt(unidad_mil);
 8001240:	4b2b      	ldr	r3, [pc, #172]	; (80012f0 <cursorMove+0x3bc>)
 8001242:	781b      	ldrb	r3, [r3, #0]
 8001244:	4618      	mov	r0, r3
 8001246:	f000 fcd6 	bl	8001bf6 <lcdEscribeInt>
				digitCursorDec(digito);
 800124a:	4b2a      	ldr	r3, [pc, #168]	; (80012f4 <cursorMove+0x3c0>)
 800124c:	781b      	ldrb	r3, [r3, #0]
 800124e:	b2db      	uxtb	r3, r3
 8001250:	4618      	mov	r0, r3
 8001252:	f7ff fe55 	bl	8000f00 <digitCursorDec>
				lcdCursor(1, 7);
 8001256:	2107      	movs	r1, #7
 8001258:	2001      	movs	r0, #1
 800125a:	f000 fc2d 	bl	8001ab8 <lcdCursor>
			}

			if (isEncoder){
 800125e:	797b      	ldrb	r3, [r7, #5]
 8001260:	2b00      	cmp	r3, #0
 8001262:	d035      	beq.n	80012d0 <cursorMove+0x39c>
				if (incEncoder){
 8001264:	4b24      	ldr	r3, [pc, #144]	; (80012f8 <cursorMove+0x3c4>)
 8001266:	781b      	ldrb	r3, [r3, #0]
 8001268:	b2db      	uxtb	r3, r3
 800126a:	2b00      	cmp	r3, #0
 800126c:	d017      	beq.n	800129e <cursorMove+0x36a>
					if (unidad_mil == 3){
 800126e:	4b20      	ldr	r3, [pc, #128]	; (80012f0 <cursorMove+0x3bc>)
 8001270:	781b      	ldrb	r3, [r3, #0]
 8001272:	2b03      	cmp	r3, #3
 8001274:	d103      	bne.n	800127e <cursorMove+0x34a>
						unidad_mil = 0;
 8001276:	4b1e      	ldr	r3, [pc, #120]	; (80012f0 <cursorMove+0x3bc>)
 8001278:	2200      	movs	r2, #0
 800127a:	701a      	strb	r2, [r3, #0]
 800127c:	e005      	b.n	800128a <cursorMove+0x356>
					}else{
						unidad_mil++;
 800127e:	4b1c      	ldr	r3, [pc, #112]	; (80012f0 <cursorMove+0x3bc>)
 8001280:	781b      	ldrb	r3, [r3, #0]
 8001282:	3301      	adds	r3, #1
 8001284:	b2da      	uxtb	r2, r3
 8001286:	4b1a      	ldr	r3, [pc, #104]	; (80012f0 <cursorMove+0x3bc>)
 8001288:	701a      	strb	r2, [r3, #0]
					}
					lcdEscribeInt(unidad_mil);
 800128a:	4b19      	ldr	r3, [pc, #100]	; (80012f0 <cursorMove+0x3bc>)
 800128c:	781b      	ldrb	r3, [r3, #0]
 800128e:	4618      	mov	r0, r3
 8001290:	f000 fcb1 	bl	8001bf6 <lcdEscribeInt>
					lcdCursor(1, 6);
 8001294:	2106      	movs	r1, #6
 8001296:	2001      	movs	r0, #1
 8001298:	f000 fc0e 	bl	8001ab8 <lcdCursor>
 800129c:	e016      	b.n	80012cc <cursorMove+0x398>
				}else{
					if (unidad_mil == 0){
 800129e:	4b14      	ldr	r3, [pc, #80]	; (80012f0 <cursorMove+0x3bc>)
 80012a0:	781b      	ldrb	r3, [r3, #0]
 80012a2:	2b00      	cmp	r3, #0
 80012a4:	d103      	bne.n	80012ae <cursorMove+0x37a>
						unidad_mil = 3;
 80012a6:	4b12      	ldr	r3, [pc, #72]	; (80012f0 <cursorMove+0x3bc>)
 80012a8:	2203      	movs	r2, #3
 80012aa:	701a      	strb	r2, [r3, #0]
 80012ac:	e005      	b.n	80012ba <cursorMove+0x386>
					}else{
						unidad_mil --;
 80012ae:	4b10      	ldr	r3, [pc, #64]	; (80012f0 <cursorMove+0x3bc>)
 80012b0:	781b      	ldrb	r3, [r3, #0]
 80012b2:	3b01      	subs	r3, #1
 80012b4:	b2da      	uxtb	r2, r3
 80012b6:	4b0e      	ldr	r3, [pc, #56]	; (80012f0 <cursorMove+0x3bc>)
 80012b8:	701a      	strb	r2, [r3, #0]
					}
					lcdEscribeInt(unidad_mil);
 80012ba:	4b0d      	ldr	r3, [pc, #52]	; (80012f0 <cursorMove+0x3bc>)
 80012bc:	781b      	ldrb	r3, [r3, #0]
 80012be:	4618      	mov	r0, r3
 80012c0:	f000 fc99 	bl	8001bf6 <lcdEscribeInt>
					lcdCursor(1, 6);
 80012c4:	2106      	movs	r1, #6
 80012c6:	2001      	movs	r0, #1
 80012c8:	f000 fbf6 	bl	8001ab8 <lcdCursor>
				}
				isEncoder = false;
 80012cc:	2300      	movs	r3, #0
 80012ce:	717b      	strb	r3, [r7, #5]
			}

			usbSendString("posicion cursor: ");
 80012d0:	480a      	ldr	r0, [pc, #40]	; (80012fc <cursorMove+0x3c8>)
 80012d2:	f7ff fd80 	bl	8000dd6 <usbSendString>
			usbSendInt(6);
 80012d6:	2006      	movs	r0, #6
 80012d8:	f7ff fd68 	bl	8000dac <usbSendInt>
			usbSendString("\n\r");
 80012dc:	4808      	ldr	r0, [pc, #32]	; (8001300 <cursorMove+0x3cc>)
 80012de:	f7ff fd7a 	bl	8000dd6 <usbSendString>
			break;
 80012e2:	bf00      	nop
		}

	}else{

	}
}
 80012e4:	bf00      	nop
 80012e6:	3708      	adds	r7, #8
 80012e8:	46bd      	mov	sp, r7
 80012ea:	bd80      	pop	{r7, pc}
 80012ec:	20000000 	.word	0x20000000
 80012f0:	200003cf 	.word	0x200003cf
 80012f4:	20000001 	.word	0x20000001
 80012f8:	200001a0 	.word	0x200001a0
 80012fc:	0800ac98 	.word	0x0800ac98
 8001300:	0800acac 	.word	0x0800acac

08001304 <sort>:
 * @brief Ordena N muestras del ADC
 * @param Muestras del ADC a ser ordenadas
 * @param cantidad de muestras a ser ordenadas
 * @retval None
 */
void sort (uint16_t *data, uint16_t lenght){
 8001304:	b480      	push	{r7}
 8001306:	b085      	sub	sp, #20
 8001308:	af00      	add	r7, sp, #0
 800130a:	6078      	str	r0, [r7, #4]
 800130c:	460b      	mov	r3, r1
 800130e:	807b      	strh	r3, [r7, #2]
	uint8_t exchange = 1;
 8001310:	2301      	movs	r3, #1
 8001312:	73fb      	strb	r3, [r7, #15]
	uint16_t tmp = 0;
 8001314:	2300      	movs	r3, #0
 8001316:	817b      	strh	r3, [r7, #10]
	/* Sort tab */
	while(exchange==1)
 8001318:	e033      	b.n	8001382 <sort+0x7e>
	{
		exchange=0;
 800131a:	2300      	movs	r3, #0
 800131c:	73fb      	strb	r3, [r7, #15]
		for(uint16_t l=0; l<lenght-1; l++)
 800131e:	2300      	movs	r3, #0
 8001320:	81bb      	strh	r3, [r7, #12]
 8001322:	e029      	b.n	8001378 <sort+0x74>
		{
			if( data[l] > data[l+1] )
 8001324:	89bb      	ldrh	r3, [r7, #12]
 8001326:	005b      	lsls	r3, r3, #1
 8001328:	687a      	ldr	r2, [r7, #4]
 800132a:	4413      	add	r3, r2
 800132c:	881a      	ldrh	r2, [r3, #0]
 800132e:	89bb      	ldrh	r3, [r7, #12]
 8001330:	3301      	adds	r3, #1
 8001332:	005b      	lsls	r3, r3, #1
 8001334:	6879      	ldr	r1, [r7, #4]
 8001336:	440b      	add	r3, r1
 8001338:	881b      	ldrh	r3, [r3, #0]
 800133a:	429a      	cmp	r2, r3
 800133c:	d919      	bls.n	8001372 <sort+0x6e>
			{
				tmp = data[l];
 800133e:	89bb      	ldrh	r3, [r7, #12]
 8001340:	005b      	lsls	r3, r3, #1
 8001342:	687a      	ldr	r2, [r7, #4]
 8001344:	4413      	add	r3, r2
 8001346:	881b      	ldrh	r3, [r3, #0]
 8001348:	817b      	strh	r3, [r7, #10]
				data[l] = data[l+1];
 800134a:	89bb      	ldrh	r3, [r7, #12]
 800134c:	3301      	adds	r3, #1
 800134e:	005b      	lsls	r3, r3, #1
 8001350:	687a      	ldr	r2, [r7, #4]
 8001352:	441a      	add	r2, r3
 8001354:	89bb      	ldrh	r3, [r7, #12]
 8001356:	005b      	lsls	r3, r3, #1
 8001358:	6879      	ldr	r1, [r7, #4]
 800135a:	440b      	add	r3, r1
 800135c:	8812      	ldrh	r2, [r2, #0]
 800135e:	801a      	strh	r2, [r3, #0]
				data[l+1] = tmp;
 8001360:	89bb      	ldrh	r3, [r7, #12]
 8001362:	3301      	adds	r3, #1
 8001364:	005b      	lsls	r3, r3, #1
 8001366:	687a      	ldr	r2, [r7, #4]
 8001368:	4413      	add	r3, r2
 800136a:	897a      	ldrh	r2, [r7, #10]
 800136c:	801a      	strh	r2, [r3, #0]
				exchange=1;
 800136e:	2301      	movs	r3, #1
 8001370:	73fb      	strb	r3, [r7, #15]
		for(uint16_t l=0; l<lenght-1; l++)
 8001372:	89bb      	ldrh	r3, [r7, #12]
 8001374:	3301      	adds	r3, #1
 8001376:	81bb      	strh	r3, [r7, #12]
 8001378:	89ba      	ldrh	r2, [r7, #12]
 800137a:	887b      	ldrh	r3, [r7, #2]
 800137c:	3b01      	subs	r3, #1
 800137e:	429a      	cmp	r2, r3
 8001380:	dbd0      	blt.n	8001324 <sort+0x20>
	while(exchange==1)
 8001382:	7bfb      	ldrb	r3, [r7, #15]
 8001384:	2b01      	cmp	r3, #1
 8001386:	d0c8      	beq.n	800131a <sort+0x16>
			}
		}
	}
}
 8001388:	bf00      	nop
 800138a:	bf00      	nop
 800138c:	3714      	adds	r7, #20
 800138e:	46bd      	mov	sp, r7
 8001390:	bc80      	pop	{r7}
 8001392:	4770      	bx	lr

08001394 <promedioN_X>:
 * @brief obtiene el promedio de N-X muestras del ADC
 * @param Cantidad de mustras del ADC a ser eliminadas (N)
 * @param Cantidad de muestras del ADC a ser promediadas (X)
 * @retval El valor promedio
 */
uint16_t promedioN_X(uint16_t N , uint16_t X){
 8001394:	b5b0      	push	{r4, r5, r7, lr}
 8001396:	b088      	sub	sp, #32
 8001398:	af00      	add	r7, sp, #0
 800139a:	4603      	mov	r3, r0
 800139c:	460a      	mov	r2, r1
 800139e:	80fb      	strh	r3, [r7, #6]
 80013a0:	4613      	mov	r3, r2
 80013a2:	80bb      	strh	r3, [r7, #4]
 80013a4:	466b      	mov	r3, sp
 80013a6:	461d      	mov	r5, r3
	uint32_t avg_sample = 0;
 80013a8:	2300      	movs	r3, #0
 80013aa:	61bb      	str	r3, [r7, #24]
	uint16_t adc_sample[X];
 80013ac:	88bc      	ldrh	r4, [r7, #4]
 80013ae:	4623      	mov	r3, r4
 80013b0:	3b01      	subs	r3, #1
 80013b2:	617b      	str	r3, [r7, #20]
 80013b4:	b2a0      	uxth	r0, r4
 80013b6:	f04f 0100 	mov.w	r1, #0
 80013ba:	f04f 0200 	mov.w	r2, #0
 80013be:	f04f 0300 	mov.w	r3, #0
 80013c2:	010b      	lsls	r3, r1, #4
 80013c4:	ea43 7310 	orr.w	r3, r3, r0, lsr #28
 80013c8:	0102      	lsls	r2, r0, #4
 80013ca:	b2a0      	uxth	r0, r4
 80013cc:	f04f 0100 	mov.w	r1, #0
 80013d0:	f04f 0200 	mov.w	r2, #0
 80013d4:	f04f 0300 	mov.w	r3, #0
 80013d8:	010b      	lsls	r3, r1, #4
 80013da:	ea43 7310 	orr.w	r3, r3, r0, lsr #28
 80013de:	0102      	lsls	r2, r0, #4
 80013e0:	4623      	mov	r3, r4
 80013e2:	005b      	lsls	r3, r3, #1
 80013e4:	3307      	adds	r3, #7
 80013e6:	08db      	lsrs	r3, r3, #3
 80013e8:	00db      	lsls	r3, r3, #3
 80013ea:	ebad 0d03 	sub.w	sp, sp, r3
 80013ee:	466b      	mov	r3, sp
 80013f0:	3301      	adds	r3, #1
 80013f2:	085b      	lsrs	r3, r3, #1
 80013f4:	005b      	lsls	r3, r3, #1
 80013f6:	613b      	str	r3, [r7, #16]

	//se obtien las muestras del ADC
	for (uint16_t i = 0 ; i < ADC_MUESTRAS ; i++){
 80013f8:	2300      	movs	r3, #0
 80013fa:	83bb      	strh	r3, [r7, #28]
 80013fc:	e01a      	b.n	8001434 <promedioN_X+0xa0>
		adc_sample[i] = leerADC(1);
 80013fe:	8bbc      	ldrh	r4, [r7, #28]
 8001400:	2001      	movs	r0, #1
 8001402:	f7ff faaf 	bl	8000964 <leerADC>
 8001406:	4603      	mov	r3, r0
 8001408:	461a      	mov	r2, r3
 800140a:	693b      	ldr	r3, [r7, #16]
 800140c:	f823 2014 	strh.w	r2, [r3, r4, lsl #1]
		adc_sample[i] = (29990*adc_sample[i])>>ESCALA;
 8001410:	8bba      	ldrh	r2, [r7, #28]
 8001412:	693b      	ldr	r3, [r7, #16]
 8001414:	f833 3012 	ldrh.w	r3, [r3, r2, lsl #1]
 8001418:	461a      	mov	r2, r3
 800141a:	f247 5326 	movw	r3, #29990	; 0x7526
 800141e:	fb03 f302 	mul.w	r3, r3, r2
 8001422:	141b      	asrs	r3, r3, #16
 8001424:	8bba      	ldrh	r2, [r7, #28]
 8001426:	b299      	uxth	r1, r3
 8001428:	693b      	ldr	r3, [r7, #16]
 800142a:	f823 1012 	strh.w	r1, [r3, r2, lsl #1]
	for (uint16_t i = 0 ; i < ADC_MUESTRAS ; i++){
 800142e:	8bbb      	ldrh	r3, [r7, #28]
 8001430:	3301      	adds	r3, #1
 8001432:	83bb      	strh	r3, [r7, #28]
 8001434:	4b24      	ldr	r3, [pc, #144]	; (80014c8 <promedioN_X+0x134>)
 8001436:	881b      	ldrh	r3, [r3, #0]
 8001438:	8bba      	ldrh	r2, [r7, #28]
 800143a:	429a      	cmp	r2, r3
 800143c:	d3df      	bcc.n	80013fe <promedioN_X+0x6a>
	}

	/* ordenar muestras del ADC */
	sort(adc_sample, X);
 800143e:	693b      	ldr	r3, [r7, #16]
 8001440:	88ba      	ldrh	r2, [r7, #4]
 8001442:	4611      	mov	r1, r2
 8001444:	4618      	mov	r0, r3
 8001446:	f7ff ff5d 	bl	8001304 <sort>

	/* sumar las N muestras del ADC */
	uint16_t d = N>>1;              // N/2
 800144a:	88fb      	ldrh	r3, [r7, #6]
 800144c:	085b      	lsrs	r3, r3, #1
 800144e:	81fb      	strh	r3, [r7, #14]
	for (uint16_t index=d; index<X-d; index++)
 8001450:	89fb      	ldrh	r3, [r7, #14]
 8001452:	83fb      	strh	r3, [r7, #30]
 8001454:	e00a      	b.n	800146c <promedioN_X+0xd8>
	{
		avg_sample += adc_sample[index];
 8001456:	8bfa      	ldrh	r2, [r7, #30]
 8001458:	693b      	ldr	r3, [r7, #16]
 800145a:	f833 3012 	ldrh.w	r3, [r3, r2, lsl #1]
 800145e:	461a      	mov	r2, r3
 8001460:	69bb      	ldr	r3, [r7, #24]
 8001462:	4413      	add	r3, r2
 8001464:	61bb      	str	r3, [r7, #24]
	for (uint16_t index=d; index<X-d; index++)
 8001466:	8bfb      	ldrh	r3, [r7, #30]
 8001468:	3301      	adds	r3, #1
 800146a:	83fb      	strh	r3, [r7, #30]
 800146c:	8bfa      	ldrh	r2, [r7, #30]
 800146e:	88b9      	ldrh	r1, [r7, #4]
 8001470:	89fb      	ldrh	r3, [r7, #14]
 8001472:	1acb      	subs	r3, r1, r3
 8001474:	429a      	cmp	r2, r3
 8001476:	dbee      	blt.n	8001456 <promedioN_X+0xc2>
	}
	/* Calcular el promedio de N-X muestras del ADC */
	avg_sample /= X-N;
 8001478:	88ba      	ldrh	r2, [r7, #4]
 800147a:	88fb      	ldrh	r3, [r7, #6]
 800147c:	1ad3      	subs	r3, r2, r3
 800147e:	461a      	mov	r2, r3
 8001480:	69bb      	ldr	r3, [r7, #24]
 8001482:	fbb3 f3f2 	udiv	r3, r3, r2
 8001486:	61bb      	str	r3, [r7, #24]
	/* Retornar el valor promedio */
	if (avg_sample <= 600){
 8001488:	69bb      	ldr	r3, [r7, #24]
 800148a:	f5b3 7f16 	cmp.w	r3, #600	; 0x258
 800148e:	d804      	bhi.n	800149a <promedioN_X+0x106>
		return avg_sample+5;
 8001490:	69bb      	ldr	r3, [r7, #24]
 8001492:	b29b      	uxth	r3, r3
 8001494:	3305      	adds	r3, #5
 8001496:	b29b      	uxth	r3, r3
 8001498:	e010      	b.n	80014bc <promedioN_X+0x128>
	}else if (avg_sample <=2000 && avg_sample > 600 ) {
 800149a:	69bb      	ldr	r3, [r7, #24]
 800149c:	f5b3 6ffa 	cmp.w	r3, #2000	; 0x7d0
 80014a0:	d808      	bhi.n	80014b4 <promedioN_X+0x120>
 80014a2:	69bb      	ldr	r3, [r7, #24]
 80014a4:	f5b3 7f16 	cmp.w	r3, #600	; 0x258
 80014a8:	d904      	bls.n	80014b4 <promedioN_X+0x120>
		return avg_sample + 8;
 80014aa:	69bb      	ldr	r3, [r7, #24]
 80014ac:	b29b      	uxth	r3, r3
 80014ae:	3308      	adds	r3, #8
 80014b0:	b29b      	uxth	r3, r3
 80014b2:	e003      	b.n	80014bc <promedioN_X+0x128>
	}else{return avg_sample+5;}
 80014b4:	69bb      	ldr	r3, [r7, #24]
 80014b6:	b29b      	uxth	r3, r3
 80014b8:	3305      	adds	r3, #5
 80014ba:	b29b      	uxth	r3, r3
 80014bc:	46ad      	mov	sp, r5
}
 80014be:	4618      	mov	r0, r3
 80014c0:	3720      	adds	r7, #32
 80014c2:	46bd      	mov	sp, r7
 80014c4:	bdb0      	pop	{r4, r5, r7, pc}
 80014c6:	bf00      	nop
 80014c8:	20000002 	.word	0x20000002

080014cc <highFilas>:
#define c3_GPIO_Port GPIOB
#define c4_Pin GPIO_PIN_5		//	PB5
#define c4_GPIO_Port GPIOB


  void highFilas(){
 80014cc:	b580      	push	{r7, lr}
 80014ce:	af00      	add	r7, sp, #0
	HAL_GPIO_WritePin(f1_GPIO_Port, f1_Pin, 1);
 80014d0:	2201      	movs	r2, #1
 80014d2:	2140      	movs	r1, #64	; 0x40
 80014d4:	480a      	ldr	r0, [pc, #40]	; (8001500 <highFilas+0x34>)
 80014d6:	f002 f95a 	bl	800378e <HAL_GPIO_WritePin>
	HAL_GPIO_WritePin(f2_GPIO_Port, f2_Pin, 1);
 80014da:	2201      	movs	r2, #1
 80014dc:	2180      	movs	r1, #128	; 0x80
 80014de:	4808      	ldr	r0, [pc, #32]	; (8001500 <highFilas+0x34>)
 80014e0:	f002 f955 	bl	800378e <HAL_GPIO_WritePin>
	HAL_GPIO_WritePin(f3_GPIO_Port, f3_Pin, 1);
 80014e4:	2201      	movs	r2, #1
 80014e6:	f44f 7180 	mov.w	r1, #256	; 0x100
 80014ea:	4805      	ldr	r0, [pc, #20]	; (8001500 <highFilas+0x34>)
 80014ec:	f002 f94f 	bl	800378e <HAL_GPIO_WritePin>
	HAL_GPIO_WritePin(f4_GPIO_Port, f4_Pin, 1);
 80014f0:	2201      	movs	r2, #1
 80014f2:	f44f 7100 	mov.w	r1, #512	; 0x200
 80014f6:	4802      	ldr	r0, [pc, #8]	; (8001500 <highFilas+0x34>)
 80014f8:	f002 f949 	bl	800378e <HAL_GPIO_WritePin>
}
 80014fc:	bf00      	nop
 80014fe:	bd80      	pop	{r7, pc}
 8001500:	40010c00 	.word	0x40010c00

08001504 <lowFilas>:

void lowFilas(){
 8001504:	b580      	push	{r7, lr}
 8001506:	af00      	add	r7, sp, #0
	HAL_GPIO_WritePin(f1_GPIO_Port, f1_Pin, 0);
 8001508:	2200      	movs	r2, #0
 800150a:	2140      	movs	r1, #64	; 0x40
 800150c:	480a      	ldr	r0, [pc, #40]	; (8001538 <lowFilas+0x34>)
 800150e:	f002 f93e 	bl	800378e <HAL_GPIO_WritePin>
	HAL_GPIO_WritePin(f2_GPIO_Port, f2_Pin, 0);
 8001512:	2200      	movs	r2, #0
 8001514:	2180      	movs	r1, #128	; 0x80
 8001516:	4808      	ldr	r0, [pc, #32]	; (8001538 <lowFilas+0x34>)
 8001518:	f002 f939 	bl	800378e <HAL_GPIO_WritePin>
	HAL_GPIO_WritePin(f3_GPIO_Port, f3_Pin, 0);
 800151c:	2200      	movs	r2, #0
 800151e:	f44f 7180 	mov.w	r1, #256	; 0x100
 8001522:	4805      	ldr	r0, [pc, #20]	; (8001538 <lowFilas+0x34>)
 8001524:	f002 f933 	bl	800378e <HAL_GPIO_WritePin>
	HAL_GPIO_WritePin(f4_GPIO_Port, f4_Pin, 0);
 8001528:	2200      	movs	r2, #0
 800152a:	f44f 7100 	mov.w	r1, #512	; 0x200
 800152e:	4802      	ldr	r0, [pc, #8]	; (8001538 <lowFilas+0x34>)
 8001530:	f002 f92d 	bl	800378e <HAL_GPIO_WritePin>
}
 8001534:	bf00      	nop
 8001536:	bd80      	pop	{r7, pc}
 8001538:	40010c00 	.word	0x40010c00

0800153c <scanF1>:

int scanF1(){
 800153c:	b580      	push	{r7, lr}
 800153e:	af00      	add	r7, sp, #0

	HAL_GPIO_WritePin(f1_GPIO_Port, f1_Pin, 0);
 8001540:	2200      	movs	r2, #0
 8001542:	2140      	movs	r1, #64	; 0x40
 8001544:	4826      	ldr	r0, [pc, #152]	; (80015e0 <scanF1+0xa4>)
 8001546:	f002 f922 	bl	800378e <HAL_GPIO_WritePin>
	if (HAL_GPIO_ReadPin(c1_GPIO_Port, c1_Pin) == 0){
 800154a:	f44f 4100 	mov.w	r1, #32768	; 0x8000
 800154e:	4825      	ldr	r0, [pc, #148]	; (80015e4 <scanF1+0xa8>)
 8001550:	f002 f906 	bl	8003760 <HAL_GPIO_ReadPin>
 8001554:	4603      	mov	r3, r0
 8001556:	2b00      	cmp	r3, #0
 8001558:	d10a      	bne.n	8001570 <scanF1+0x34>
		while (HAL_GPIO_ReadPin(c1_GPIO_Port, c1_Pin) == 0){}
 800155a:	bf00      	nop
 800155c:	f44f 4100 	mov.w	r1, #32768	; 0x8000
 8001560:	4820      	ldr	r0, [pc, #128]	; (80015e4 <scanF1+0xa8>)
 8001562:	f002 f8fd 	bl	8003760 <HAL_GPIO_ReadPin>
 8001566:	4603      	mov	r3, r0
 8001568:	2b00      	cmp	r3, #0
 800156a:	d0f7      	beq.n	800155c <scanF1+0x20>
		return 1;
 800156c:	2301      	movs	r3, #1
 800156e:	e035      	b.n	80015dc <scanF1+0xa0>
	}else if (HAL_GPIO_ReadPin(c2_GPIO_Port, c2_Pin) == 0){
 8001570:	2108      	movs	r1, #8
 8001572:	481b      	ldr	r0, [pc, #108]	; (80015e0 <scanF1+0xa4>)
 8001574:	f002 f8f4 	bl	8003760 <HAL_GPIO_ReadPin>
 8001578:	4603      	mov	r3, r0
 800157a:	2b00      	cmp	r3, #0
 800157c:	d109      	bne.n	8001592 <scanF1+0x56>
		while (HAL_GPIO_ReadPin(c2_GPIO_Port, c2_Pin) == 0){}
 800157e:	bf00      	nop
 8001580:	2108      	movs	r1, #8
 8001582:	4817      	ldr	r0, [pc, #92]	; (80015e0 <scanF1+0xa4>)
 8001584:	f002 f8ec 	bl	8003760 <HAL_GPIO_ReadPin>
 8001588:	4603      	mov	r3, r0
 800158a:	2b00      	cmp	r3, #0
 800158c:	d0f8      	beq.n	8001580 <scanF1+0x44>
		return 2;
 800158e:	2302      	movs	r3, #2
 8001590:	e024      	b.n	80015dc <scanF1+0xa0>

	}else if(HAL_GPIO_ReadPin(c3_GPIO_Port, c3_Pin) == 0){
 8001592:	2110      	movs	r1, #16
 8001594:	4812      	ldr	r0, [pc, #72]	; (80015e0 <scanF1+0xa4>)
 8001596:	f002 f8e3 	bl	8003760 <HAL_GPIO_ReadPin>
 800159a:	4603      	mov	r3, r0
 800159c:	2b00      	cmp	r3, #0
 800159e:	d109      	bne.n	80015b4 <scanF1+0x78>
		while (HAL_GPIO_ReadPin(c3_GPIO_Port, c3_Pin) == 0){}
 80015a0:	bf00      	nop
 80015a2:	2110      	movs	r1, #16
 80015a4:	480e      	ldr	r0, [pc, #56]	; (80015e0 <scanF1+0xa4>)
 80015a6:	f002 f8db 	bl	8003760 <HAL_GPIO_ReadPin>
 80015aa:	4603      	mov	r3, r0
 80015ac:	2b00      	cmp	r3, #0
 80015ae:	d0f8      	beq.n	80015a2 <scanF1+0x66>
		return 3;
 80015b0:	2303      	movs	r3, #3
 80015b2:	e013      	b.n	80015dc <scanF1+0xa0>
	}else if(HAL_GPIO_ReadPin(c4_GPIO_Port, c4_Pin) == 0){
 80015b4:	2120      	movs	r1, #32
 80015b6:	480a      	ldr	r0, [pc, #40]	; (80015e0 <scanF1+0xa4>)
 80015b8:	f002 f8d2 	bl	8003760 <HAL_GPIO_ReadPin>
 80015bc:	4603      	mov	r3, r0
 80015be:	2b00      	cmp	r3, #0
 80015c0:	d109      	bne.n	80015d6 <scanF1+0x9a>
		while (HAL_GPIO_ReadPin(c4_GPIO_Port, c4_Pin) == 0){}
 80015c2:	bf00      	nop
 80015c4:	2120      	movs	r1, #32
 80015c6:	4806      	ldr	r0, [pc, #24]	; (80015e0 <scanF1+0xa4>)
 80015c8:	f002 f8ca 	bl	8003760 <HAL_GPIO_ReadPin>
 80015cc:	4603      	mov	r3, r0
 80015ce:	2b00      	cmp	r3, #0
 80015d0:	d0f8      	beq.n	80015c4 <scanF1+0x88>
		return 4;
 80015d2:	2304      	movs	r3, #4
 80015d4:	e002      	b.n	80015dc <scanF1+0xa0>
	}else{
		highFilas();
 80015d6:	f7ff ff79 	bl	80014cc <highFilas>
		return 32;
 80015da:	2320      	movs	r3, #32
	}
}
 80015dc:	4618      	mov	r0, r3
 80015de:	bd80      	pop	{r7, pc}
 80015e0:	40010c00 	.word	0x40010c00
 80015e4:	40010800 	.word	0x40010800

080015e8 <scanF2>:


char scanF2(){
 80015e8:	b580      	push	{r7, lr}
 80015ea:	af00      	add	r7, sp, #0

	HAL_GPIO_WritePin(f2_GPIO_Port, f2_Pin, 0);
 80015ec:	2200      	movs	r2, #0
 80015ee:	2180      	movs	r1, #128	; 0x80
 80015f0:	4826      	ldr	r0, [pc, #152]	; (800168c <scanF2+0xa4>)
 80015f2:	f002 f8cc 	bl	800378e <HAL_GPIO_WritePin>
	if (HAL_GPIO_ReadPin(c1_GPIO_Port, c1_Pin) == 0){
 80015f6:	f44f 4100 	mov.w	r1, #32768	; 0x8000
 80015fa:	4825      	ldr	r0, [pc, #148]	; (8001690 <scanF2+0xa8>)
 80015fc:	f002 f8b0 	bl	8003760 <HAL_GPIO_ReadPin>
 8001600:	4603      	mov	r3, r0
 8001602:	2b00      	cmp	r3, #0
 8001604:	d10a      	bne.n	800161c <scanF2+0x34>
		while (HAL_GPIO_ReadPin(c1_GPIO_Port, c1_Pin) == 0){}
 8001606:	bf00      	nop
 8001608:	f44f 4100 	mov.w	r1, #32768	; 0x8000
 800160c:	4820      	ldr	r0, [pc, #128]	; (8001690 <scanF2+0xa8>)
 800160e:	f002 f8a7 	bl	8003760 <HAL_GPIO_ReadPin>
 8001612:	4603      	mov	r3, r0
 8001614:	2b00      	cmp	r3, #0
 8001616:	d0f7      	beq.n	8001608 <scanF2+0x20>
		return 5;
 8001618:	2305      	movs	r3, #5
 800161a:	e035      	b.n	8001688 <scanF2+0xa0>
	}else if (HAL_GPIO_ReadPin(c2_GPIO_Port, c2_Pin) == 0){
 800161c:	2108      	movs	r1, #8
 800161e:	481b      	ldr	r0, [pc, #108]	; (800168c <scanF2+0xa4>)
 8001620:	f002 f89e 	bl	8003760 <HAL_GPIO_ReadPin>
 8001624:	4603      	mov	r3, r0
 8001626:	2b00      	cmp	r3, #0
 8001628:	d109      	bne.n	800163e <scanF2+0x56>
		while (HAL_GPIO_ReadPin(c2_GPIO_Port, c2_Pin) == 0){}
 800162a:	bf00      	nop
 800162c:	2108      	movs	r1, #8
 800162e:	4817      	ldr	r0, [pc, #92]	; (800168c <scanF2+0xa4>)
 8001630:	f002 f896 	bl	8003760 <HAL_GPIO_ReadPin>
 8001634:	4603      	mov	r3, r0
 8001636:	2b00      	cmp	r3, #0
 8001638:	d0f8      	beq.n	800162c <scanF2+0x44>
		return 6;
 800163a:	2306      	movs	r3, #6
 800163c:	e024      	b.n	8001688 <scanF2+0xa0>

	}else if(HAL_GPIO_ReadPin(c3_GPIO_Port, c3_Pin) == 0){
 800163e:	2110      	movs	r1, #16
 8001640:	4812      	ldr	r0, [pc, #72]	; (800168c <scanF2+0xa4>)
 8001642:	f002 f88d 	bl	8003760 <HAL_GPIO_ReadPin>
 8001646:	4603      	mov	r3, r0
 8001648:	2b00      	cmp	r3, #0
 800164a:	d109      	bne.n	8001660 <scanF2+0x78>
		while (HAL_GPIO_ReadPin(c3_GPIO_Port, c3_Pin) == 0){}
 800164c:	bf00      	nop
 800164e:	2110      	movs	r1, #16
 8001650:	480e      	ldr	r0, [pc, #56]	; (800168c <scanF2+0xa4>)
 8001652:	f002 f885 	bl	8003760 <HAL_GPIO_ReadPin>
 8001656:	4603      	mov	r3, r0
 8001658:	2b00      	cmp	r3, #0
 800165a:	d0f8      	beq.n	800164e <scanF2+0x66>
		return 7;
 800165c:	2307      	movs	r3, #7
 800165e:	e013      	b.n	8001688 <scanF2+0xa0>
	}else if(HAL_GPIO_ReadPin(c4_GPIO_Port, c4_Pin) == 0){
 8001660:	2120      	movs	r1, #32
 8001662:	480a      	ldr	r0, [pc, #40]	; (800168c <scanF2+0xa4>)
 8001664:	f002 f87c 	bl	8003760 <HAL_GPIO_ReadPin>
 8001668:	4603      	mov	r3, r0
 800166a:	2b00      	cmp	r3, #0
 800166c:	d109      	bne.n	8001682 <scanF2+0x9a>
		while (HAL_GPIO_ReadPin(c4_GPIO_Port, c4_Pin) == 0){}
 800166e:	bf00      	nop
 8001670:	2120      	movs	r1, #32
 8001672:	4806      	ldr	r0, [pc, #24]	; (800168c <scanF2+0xa4>)
 8001674:	f002 f874 	bl	8003760 <HAL_GPIO_ReadPin>
 8001678:	4603      	mov	r3, r0
 800167a:	2b00      	cmp	r3, #0
 800167c:	d0f8      	beq.n	8001670 <scanF2+0x88>
		return 8;
 800167e:	2308      	movs	r3, #8
 8001680:	e002      	b.n	8001688 <scanF2+0xa0>
	}else{
		highFilas();
 8001682:	f7ff ff23 	bl	80014cc <highFilas>
		return 32;
 8001686:	2320      	movs	r3, #32
	}
}
 8001688:	4618      	mov	r0, r3
 800168a:	bd80      	pop	{r7, pc}
 800168c:	40010c00 	.word	0x40010c00
 8001690:	40010800 	.word	0x40010800

08001694 <scanF3>:

uint8_t scanF3(){
 8001694:	b580      	push	{r7, lr}
 8001696:	af00      	add	r7, sp, #0

	HAL_GPIO_WritePin(f3_GPIO_Port, f3_Pin, 0);
 8001698:	2200      	movs	r2, #0
 800169a:	f44f 7180 	mov.w	r1, #256	; 0x100
 800169e:	4827      	ldr	r0, [pc, #156]	; (800173c <scanF3+0xa8>)
 80016a0:	f002 f875 	bl	800378e <HAL_GPIO_WritePin>
	if (HAL_GPIO_ReadPin(c1_GPIO_Port, c1_Pin) == 0){
 80016a4:	f44f 4100 	mov.w	r1, #32768	; 0x8000
 80016a8:	4825      	ldr	r0, [pc, #148]	; (8001740 <scanF3+0xac>)
 80016aa:	f002 f859 	bl	8003760 <HAL_GPIO_ReadPin>
 80016ae:	4603      	mov	r3, r0
 80016b0:	2b00      	cmp	r3, #0
 80016b2:	d10a      	bne.n	80016ca <scanF3+0x36>
		while (HAL_GPIO_ReadPin(c1_GPIO_Port, c1_Pin) == 0){}
 80016b4:	bf00      	nop
 80016b6:	f44f 4100 	mov.w	r1, #32768	; 0x8000
 80016ba:	4821      	ldr	r0, [pc, #132]	; (8001740 <scanF3+0xac>)
 80016bc:	f002 f850 	bl	8003760 <HAL_GPIO_ReadPin>
 80016c0:	4603      	mov	r3, r0
 80016c2:	2b00      	cmp	r3, #0
 80016c4:	d0f7      	beq.n	80016b6 <scanF3+0x22>
		return 9;
 80016c6:	2309      	movs	r3, #9
 80016c8:	e035      	b.n	8001736 <scanF3+0xa2>
	}else if (HAL_GPIO_ReadPin(c2_GPIO_Port, c2_Pin) == 0){
 80016ca:	2108      	movs	r1, #8
 80016cc:	481b      	ldr	r0, [pc, #108]	; (800173c <scanF3+0xa8>)
 80016ce:	f002 f847 	bl	8003760 <HAL_GPIO_ReadPin>
 80016d2:	4603      	mov	r3, r0
 80016d4:	2b00      	cmp	r3, #0
 80016d6:	d109      	bne.n	80016ec <scanF3+0x58>
		while (HAL_GPIO_ReadPin(c2_GPIO_Port, c2_Pin) == 0){}
 80016d8:	bf00      	nop
 80016da:	2108      	movs	r1, #8
 80016dc:	4817      	ldr	r0, [pc, #92]	; (800173c <scanF3+0xa8>)
 80016de:	f002 f83f 	bl	8003760 <HAL_GPIO_ReadPin>
 80016e2:	4603      	mov	r3, r0
 80016e4:	2b00      	cmp	r3, #0
 80016e6:	d0f8      	beq.n	80016da <scanF3+0x46>
		return 10;
 80016e8:	230a      	movs	r3, #10
 80016ea:	e024      	b.n	8001736 <scanF3+0xa2>

	}else if(HAL_GPIO_ReadPin(c3_GPIO_Port, c3_Pin) == 0){
 80016ec:	2110      	movs	r1, #16
 80016ee:	4813      	ldr	r0, [pc, #76]	; (800173c <scanF3+0xa8>)
 80016f0:	f002 f836 	bl	8003760 <HAL_GPIO_ReadPin>
 80016f4:	4603      	mov	r3, r0
 80016f6:	2b00      	cmp	r3, #0
 80016f8:	d109      	bne.n	800170e <scanF3+0x7a>
		while (HAL_GPIO_ReadPin(c3_GPIO_Port, c3_Pin) == 0){}
 80016fa:	bf00      	nop
 80016fc:	2110      	movs	r1, #16
 80016fe:	480f      	ldr	r0, [pc, #60]	; (800173c <scanF3+0xa8>)
 8001700:	f002 f82e 	bl	8003760 <HAL_GPIO_ReadPin>
 8001704:	4603      	mov	r3, r0
 8001706:	2b00      	cmp	r3, #0
 8001708:	d0f8      	beq.n	80016fc <scanF3+0x68>
		return 11;
 800170a:	230b      	movs	r3, #11
 800170c:	e013      	b.n	8001736 <scanF3+0xa2>
	}else if(HAL_GPIO_ReadPin(c4_GPIO_Port, c4_Pin) == 0){
 800170e:	2120      	movs	r1, #32
 8001710:	480a      	ldr	r0, [pc, #40]	; (800173c <scanF3+0xa8>)
 8001712:	f002 f825 	bl	8003760 <HAL_GPIO_ReadPin>
 8001716:	4603      	mov	r3, r0
 8001718:	2b00      	cmp	r3, #0
 800171a:	d109      	bne.n	8001730 <scanF3+0x9c>
		while (HAL_GPIO_ReadPin(c4_GPIO_Port, c4_Pin) == 0){}
 800171c:	bf00      	nop
 800171e:	2120      	movs	r1, #32
 8001720:	4806      	ldr	r0, [pc, #24]	; (800173c <scanF3+0xa8>)
 8001722:	f002 f81d 	bl	8003760 <HAL_GPIO_ReadPin>
 8001726:	4603      	mov	r3, r0
 8001728:	2b00      	cmp	r3, #0
 800172a:	d0f8      	beq.n	800171e <scanF3+0x8a>
		return 12;
 800172c:	230c      	movs	r3, #12
 800172e:	e002      	b.n	8001736 <scanF3+0xa2>
	}else{
		highFilas();
 8001730:	f7ff fecc 	bl	80014cc <highFilas>
		return 32;
 8001734:	2320      	movs	r3, #32
	}
}
 8001736:	4618      	mov	r0, r3
 8001738:	bd80      	pop	{r7, pc}
 800173a:	bf00      	nop
 800173c:	40010c00 	.word	0x40010c00
 8001740:	40010800 	.word	0x40010800

08001744 <scanF4>:

uint8_t scanF4(){
 8001744:	b580      	push	{r7, lr}
 8001746:	af00      	add	r7, sp, #0

	HAL_GPIO_WritePin(f4_GPIO_Port, f4_Pin, 0);
 8001748:	2200      	movs	r2, #0
 800174a:	f44f 7100 	mov.w	r1, #512	; 0x200
 800174e:	4827      	ldr	r0, [pc, #156]	; (80017ec <scanF4+0xa8>)
 8001750:	f002 f81d 	bl	800378e <HAL_GPIO_WritePin>
	if (HAL_GPIO_ReadPin(c1_GPIO_Port, c1_Pin) == 0){
 8001754:	f44f 4100 	mov.w	r1, #32768	; 0x8000
 8001758:	4825      	ldr	r0, [pc, #148]	; (80017f0 <scanF4+0xac>)
 800175a:	f002 f801 	bl	8003760 <HAL_GPIO_ReadPin>
 800175e:	4603      	mov	r3, r0
 8001760:	2b00      	cmp	r3, #0
 8001762:	d10a      	bne.n	800177a <scanF4+0x36>
		while (HAL_GPIO_ReadPin(c1_GPIO_Port, c1_Pin) == 0){};
 8001764:	bf00      	nop
 8001766:	f44f 4100 	mov.w	r1, #32768	; 0x8000
 800176a:	4821      	ldr	r0, [pc, #132]	; (80017f0 <scanF4+0xac>)
 800176c:	f001 fff8 	bl	8003760 <HAL_GPIO_ReadPin>
 8001770:	4603      	mov	r3, r0
 8001772:	2b00      	cmp	r3, #0
 8001774:	d0f7      	beq.n	8001766 <scanF4+0x22>
		return 13;
 8001776:	230d      	movs	r3, #13
 8001778:	e035      	b.n	80017e6 <scanF4+0xa2>
	}else if (HAL_GPIO_ReadPin(c2_GPIO_Port, c2_Pin) == 0){
 800177a:	2108      	movs	r1, #8
 800177c:	481b      	ldr	r0, [pc, #108]	; (80017ec <scanF4+0xa8>)
 800177e:	f001 ffef 	bl	8003760 <HAL_GPIO_ReadPin>
 8001782:	4603      	mov	r3, r0
 8001784:	2b00      	cmp	r3, #0
 8001786:	d109      	bne.n	800179c <scanF4+0x58>
		while (HAL_GPIO_ReadPin(c2_GPIO_Port, c2_Pin) == 0){}
 8001788:	bf00      	nop
 800178a:	2108      	movs	r1, #8
 800178c:	4817      	ldr	r0, [pc, #92]	; (80017ec <scanF4+0xa8>)
 800178e:	f001 ffe7 	bl	8003760 <HAL_GPIO_ReadPin>
 8001792:	4603      	mov	r3, r0
 8001794:	2b00      	cmp	r3, #0
 8001796:	d0f8      	beq.n	800178a <scanF4+0x46>
		return 14;
 8001798:	230e      	movs	r3, #14
 800179a:	e024      	b.n	80017e6 <scanF4+0xa2>

	}else if(HAL_GPIO_ReadPin(c3_GPIO_Port, c3_Pin) == 0){
 800179c:	2110      	movs	r1, #16
 800179e:	4813      	ldr	r0, [pc, #76]	; (80017ec <scanF4+0xa8>)
 80017a0:	f001 ffde 	bl	8003760 <HAL_GPIO_ReadPin>
 80017a4:	4603      	mov	r3, r0
 80017a6:	2b00      	cmp	r3, #0
 80017a8:	d109      	bne.n	80017be <scanF4+0x7a>
		while (HAL_GPIO_ReadPin(c3_GPIO_Port, c3_Pin) == 0){}
 80017aa:	bf00      	nop
 80017ac:	2110      	movs	r1, #16
 80017ae:	480f      	ldr	r0, [pc, #60]	; (80017ec <scanF4+0xa8>)
 80017b0:	f001 ffd6 	bl	8003760 <HAL_GPIO_ReadPin>
 80017b4:	4603      	mov	r3, r0
 80017b6:	2b00      	cmp	r3, #0
 80017b8:	d0f8      	beq.n	80017ac <scanF4+0x68>
		return 15;
 80017ba:	230f      	movs	r3, #15
 80017bc:	e013      	b.n	80017e6 <scanF4+0xa2>
	}else if(HAL_GPIO_ReadPin(c4_GPIO_Port, c4_Pin) == 0){
 80017be:	2120      	movs	r1, #32
 80017c0:	480a      	ldr	r0, [pc, #40]	; (80017ec <scanF4+0xa8>)
 80017c2:	f001 ffcd 	bl	8003760 <HAL_GPIO_ReadPin>
 80017c6:	4603      	mov	r3, r0
 80017c8:	2b00      	cmp	r3, #0
 80017ca:	d109      	bne.n	80017e0 <scanF4+0x9c>
		while (HAL_GPIO_ReadPin(c4_GPIO_Port, c4_Pin) == 0){}
 80017cc:	bf00      	nop
 80017ce:	2120      	movs	r1, #32
 80017d0:	4806      	ldr	r0, [pc, #24]	; (80017ec <scanF4+0xa8>)
 80017d2:	f001 ffc5 	bl	8003760 <HAL_GPIO_ReadPin>
 80017d6:	4603      	mov	r3, r0
 80017d8:	2b00      	cmp	r3, #0
 80017da:	d0f8      	beq.n	80017ce <scanF4+0x8a>
		return 16;
 80017dc:	2310      	movs	r3, #16
 80017de:	e002      	b.n	80017e6 <scanF4+0xa2>
	}else{
		highFilas();
 80017e0:	f7ff fe74 	bl	80014cc <highFilas>
		return 32;
 80017e4:	2320      	movs	r3, #32
	}
}
 80017e6:	4618      	mov	r0, r3
 80017e8:	bd80      	pop	{r7, pc}
 80017ea:	bf00      	nop
 80017ec:	40010c00 	.word	0x40010c00
 80017f0:	40010800 	.word	0x40010800

080017f4 <tecladoScan>:
 * si retorna . no se presiono tecla alguna, cualquier otro valor simboliza		   *
 * una tecla, y se le deberá asignar un valor o función en el programa principal   *
 * 																				   *
 ***********************************************************************************/

uint8_t tecladoScan(){
 80017f4:	b580      	push	{r7, lr}
 80017f6:	b082      	sub	sp, #8
 80017f8:	af00      	add	r7, sp, #0
	uint8_t teclaOrden;

	highFilas();
 80017fa:	f7ff fe67 	bl	80014cc <highFilas>
	teclaOrden = scanF1();
 80017fe:	f7ff fe9d 	bl	800153c <scanF1>
 8001802:	4603      	mov	r3, r0
 8001804:	71fb      	strb	r3, [r7, #7]
	if (teclaOrden != 32){
 8001806:	79fb      	ldrb	r3, [r7, #7]
 8001808:	2b20      	cmp	r3, #32
 800180a:	d003      	beq.n	8001814 <tecladoScan+0x20>
		lowFilas();					/* SACAR ESTA FILA SI NO SE USA DEBOUNCING POR INTERRUPCIÓN */
 800180c:	f7ff fe7a 	bl	8001504 <lowFilas>
		return teclaOrden;
 8001810:	79fb      	ldrb	r3, [r7, #7]
 8001812:	e023      	b.n	800185c <tecladoScan+0x68>
	}
	teclaOrden = scanF2();
 8001814:	f7ff fee8 	bl	80015e8 <scanF2>
 8001818:	4603      	mov	r3, r0
 800181a:	71fb      	strb	r3, [r7, #7]
	if (teclaOrden != 32){
 800181c:	79fb      	ldrb	r3, [r7, #7]
 800181e:	2b20      	cmp	r3, #32
 8001820:	d003      	beq.n	800182a <tecladoScan+0x36>
		lowFilas();					/* SACAR ESTA FILA SI NO SE USA DEBOUNCING POR INTERRUPCIÓN */
 8001822:	f7ff fe6f 	bl	8001504 <lowFilas>
		return teclaOrden;
 8001826:	79fb      	ldrb	r3, [r7, #7]
 8001828:	e018      	b.n	800185c <tecladoScan+0x68>
	}
	teclaOrden = scanF3();
 800182a:	f7ff ff33 	bl	8001694 <scanF3>
 800182e:	4603      	mov	r3, r0
 8001830:	71fb      	strb	r3, [r7, #7]
	if (teclaOrden != 32){
 8001832:	79fb      	ldrb	r3, [r7, #7]
 8001834:	2b20      	cmp	r3, #32
 8001836:	d003      	beq.n	8001840 <tecladoScan+0x4c>
		lowFilas();					/* SACAR ESTA FILA SI NO SE USA DEBOUNCING POR INTERRUPCIÓN */
 8001838:	f7ff fe64 	bl	8001504 <lowFilas>
		return teclaOrden;
 800183c:	79fb      	ldrb	r3, [r7, #7]
 800183e:	e00d      	b.n	800185c <tecladoScan+0x68>
	}

	teclaOrden = scanF4();
 8001840:	f7ff ff80 	bl	8001744 <scanF4>
 8001844:	4603      	mov	r3, r0
 8001846:	71fb      	strb	r3, [r7, #7]
	if (teclaOrden != 32){
 8001848:	79fb      	ldrb	r3, [r7, #7]
 800184a:	2b20      	cmp	r3, #32
 800184c:	d003      	beq.n	8001856 <tecladoScan+0x62>
		lowFilas();					/* SACAR ESTA FILA SI NO SE USA DEBOUNCING POR INTERRUPCIÓN */
 800184e:	f7ff fe59 	bl	8001504 <lowFilas>
		return teclaOrden;
 8001852:	79fb      	ldrb	r3, [r7, #7]
 8001854:	e002      	b.n	800185c <tecladoScan+0x68>
	}
	lowFilas();						/* SACAR ESTA FILA SI NO SE USA DEBOUNCING POR INTERRUPCIÓN */
 8001856:	f7ff fe55 	bl	8001504 <lowFilas>
	return 32;
 800185a:	2320      	movs	r3, #32
}
 800185c:	4618      	mov	r0, r3
 800185e:	3708      	adds	r7, #8
 8001860:	46bd      	mov	sp, r7
 8001862:	bd80      	pop	{r7, pc}

08001864 <tecladoDeco>:



char tecladoDeco(uint8_t ordenTecla){
 8001864:	b480      	push	{r7}
 8001866:	b083      	sub	sp, #12
 8001868:	af00      	add	r7, sp, #0
 800186a:	4603      	mov	r3, r0
 800186c:	71fb      	strb	r3, [r7, #7]
	switch (ordenTecla){
 800186e:	79fb      	ldrb	r3, [r7, #7]
 8001870:	3b01      	subs	r3, #1
 8001872:	2b0f      	cmp	r3, #15
 8001874:	d842      	bhi.n	80018fc <tecladoDeco+0x98>
 8001876:	a201      	add	r2, pc, #4	; (adr r2, 800187c <tecladoDeco+0x18>)
 8001878:	f852 f023 	ldr.w	pc, [r2, r3, lsl #2]
 800187c:	080018bd 	.word	0x080018bd
 8001880:	080018c1 	.word	0x080018c1
 8001884:	080018c5 	.word	0x080018c5
 8001888:	080018c9 	.word	0x080018c9
 800188c:	080018cd 	.word	0x080018cd
 8001890:	080018d1 	.word	0x080018d1
 8001894:	080018d5 	.word	0x080018d5
 8001898:	080018d9 	.word	0x080018d9
 800189c:	080018dd 	.word	0x080018dd
 80018a0:	080018e1 	.word	0x080018e1
 80018a4:	080018e5 	.word	0x080018e5
 80018a8:	080018e9 	.word	0x080018e9
 80018ac:	080018ed 	.word	0x080018ed
 80018b0:	080018f1 	.word	0x080018f1
 80018b4:	080018f5 	.word	0x080018f5
 80018b8:	080018f9 	.word	0x080018f9
		case 1:
			return '1';
 80018bc:	2331      	movs	r3, #49	; 0x31
 80018be:	e01e      	b.n	80018fe <tecladoDeco+0x9a>
			break;
		case 2:
			return '2';
 80018c0:	2332      	movs	r3, #50	; 0x32
 80018c2:	e01c      	b.n	80018fe <tecladoDeco+0x9a>
			break;
		case 3:
			return '3';
 80018c4:	2333      	movs	r3, #51	; 0x33
 80018c6:	e01a      	b.n	80018fe <tecladoDeco+0x9a>
			break;
		case 4:
			return 'A';
 80018c8:	2341      	movs	r3, #65	; 0x41
 80018ca:	e018      	b.n	80018fe <tecladoDeco+0x9a>
			break;
		case 5:
			return '4';
 80018cc:	2334      	movs	r3, #52	; 0x34
 80018ce:	e016      	b.n	80018fe <tecladoDeco+0x9a>
			break;
		case 6:
			return '5';
 80018d0:	2335      	movs	r3, #53	; 0x35
 80018d2:	e014      	b.n	80018fe <tecladoDeco+0x9a>
			break;
		case 7:
			return '6';
 80018d4:	2336      	movs	r3, #54	; 0x36
 80018d6:	e012      	b.n	80018fe <tecladoDeco+0x9a>
			break;
		case 8:
			return 'B';
 80018d8:	2342      	movs	r3, #66	; 0x42
 80018da:	e010      	b.n	80018fe <tecladoDeco+0x9a>
			break;
		case 9:
			return '7';
 80018dc:	2337      	movs	r3, #55	; 0x37
 80018de:	e00e      	b.n	80018fe <tecladoDeco+0x9a>
			break;
		case 10:
			return '8';
 80018e0:	2338      	movs	r3, #56	; 0x38
 80018e2:	e00c      	b.n	80018fe <tecladoDeco+0x9a>
			break;
		case 11:
			return '9';
 80018e4:	2339      	movs	r3, #57	; 0x39
 80018e6:	e00a      	b.n	80018fe <tecladoDeco+0x9a>
			break;
		case 12:
			return 'C';
 80018e8:	2343      	movs	r3, #67	; 0x43
 80018ea:	e008      	b.n	80018fe <tecladoDeco+0x9a>
			break;
		case 13:
			return '*';
 80018ec:	232a      	movs	r3, #42	; 0x2a
 80018ee:	e006      	b.n	80018fe <tecladoDeco+0x9a>
			break;
		case 14:
			return '0';
 80018f0:	2330      	movs	r3, #48	; 0x30
 80018f2:	e004      	b.n	80018fe <tecladoDeco+0x9a>
			break;
		case 15:
			return '#';
 80018f4:	2323      	movs	r3, #35	; 0x23
 80018f6:	e002      	b.n	80018fe <tecladoDeco+0x9a>
			break;
		case 16:
			return 'D';
 80018f8:	2344      	movs	r3, #68	; 0x44
 80018fa:	e000      	b.n	80018fe <tecladoDeco+0x9a>
			break;
	}
	return 32;
 80018fc:	2320      	movs	r3, #32

}
 80018fe:	4618      	mov	r0, r3
 8001900:	370c      	adds	r7, #12
 8001902:	46bd      	mov	sp, r7
 8001904:	bc80      	pop	{r7}
 8001906:	4770      	bx	lr

08001908 <delay>:

extern TIM_HandleTypeDef timer1;

/* se hace un delay de microsegundos para el lcd con el timer seleccionad0*/
void delay (uint16_t us)
{
 8001908:	b480      	push	{r7}
 800190a:	b083      	sub	sp, #12
 800190c:	af00      	add	r7, sp, #0
 800190e:	4603      	mov	r3, r0
 8001910:	80fb      	strh	r3, [r7, #6]
	__HAL_TIM_SET_COUNTER(&timer1, 0);
 8001912:	4b08      	ldr	r3, [pc, #32]	; (8001934 <delay+0x2c>)
 8001914:	681b      	ldr	r3, [r3, #0]
 8001916:	2200      	movs	r2, #0
 8001918:	625a      	str	r2, [r3, #36]	; 0x24
	while (__HAL_TIM_GET_COUNTER(&timer1) < us);
 800191a:	bf00      	nop
 800191c:	4b05      	ldr	r3, [pc, #20]	; (8001934 <delay+0x2c>)
 800191e:	681b      	ldr	r3, [r3, #0]
 8001920:	6a5a      	ldr	r2, [r3, #36]	; 0x24
 8001922:	88fb      	ldrh	r3, [r7, #6]
 8001924:	429a      	cmp	r2, r3
 8001926:	d3f9      	bcc.n	800191c <delay+0x14>
}
 8001928:	bf00      	nop
 800192a:	bf00      	nop
 800192c:	370c      	adds	r7, #12
 800192e:	46bd      	mov	sp, r7
 8001930:	bc80      	pop	{r7}
 8001932:	4770      	bx	lr
 8001934:	20000498 	.word	0x20000498

08001938 <lcdLinea2>:

void lcdLinea1(){
    lcdCmd(0B10000000);
    return;
}
void lcdLinea2(){
 8001938:	b580      	push	{r7, lr}
 800193a:	af00      	add	r7, sp, #0
    lcdCmd(0B11000000);
 800193c:	20c0      	movs	r0, #192	; 0xc0
 800193e:	f000 f87d 	bl	8001a3c <lcdCmd>
    return;
 8001942:	bf00      	nop
}
 8001944:	bd80      	pop	{r7, pc}

08001946 <lcdLinea3>:

void lcdLinea3(){
 8001946:	b580      	push	{r7, lr}
 8001948:	af00      	add	r7, sp, #0
    lcdCmd(0b10010100);
 800194a:	2094      	movs	r0, #148	; 0x94
 800194c:	f000 f876 	bl	8001a3c <lcdCmd>
    return;
 8001950:	bf00      	nop
}
 8001952:	bd80      	pop	{r7, pc}

08001954 <lcdCursorOFF>:

void lcdCursorOFF(){
 8001954:	b580      	push	{r7, lr}
 8001956:	af00      	add	r7, sp, #0
    lcdCmd(0b00001100);
 8001958:	200c      	movs	r0, #12
 800195a:	f000 f86f 	bl	8001a3c <lcdCmd>
    return;
 800195e:	bf00      	nop
}
 8001960:	bd80      	pop	{r7, pc}

08001962 <lcdCursorON>:

void lcdCursorON(){
 8001962:	b580      	push	{r7, lr}
 8001964:	af00      	add	r7, sp, #0
    lcdCmd(0b00001110);
 8001966:	200e      	movs	r0, #14
 8001968:	f000 f868 	bl	8001a3c <lcdCmd>
    return;
 800196c:	bf00      	nop
}
 800196e:	bd80      	pop	{r7, pc}

08001970 <lcdLinea4>:

void lcdON(){
    lcdCmd(0b0000001100);
    return;
}
void lcdLinea4(){
 8001970:	b580      	push	{r7, lr}
 8001972:	af00      	add	r7, sp, #0
    lcdCmd(0b11010100);
 8001974:	20d4      	movs	r0, #212	; 0xd4
 8001976:	f000 f861 	bl	8001a3c <lcdCmd>
    return;
 800197a:	bf00      	nop
}
 800197c:	bd80      	pop	{r7, pc}
	...

08001980 <pulsoEnable>:

void pulsoEnable(){
 8001980:	b580      	push	{r7, lr}
 8001982:	af00      	add	r7, sp, #0
	HAL_GPIO_WritePin(EN_GPIO_Port, EN_Pin, 1);
 8001984:	2201      	movs	r2, #1
 8001986:	f44f 4180 	mov.w	r1, #16384	; 0x4000
 800198a:	4808      	ldr	r0, [pc, #32]	; (80019ac <pulsoEnable+0x2c>)
 800198c:	f001 feff 	bl	800378e <HAL_GPIO_WritePin>
    delay(20);
 8001990:	2014      	movs	r0, #20
 8001992:	f7ff ffb9 	bl	8001908 <delay>
    HAL_GPIO_WritePin(EN_GPIO_Port, EN_Pin, 0);
 8001996:	2200      	movs	r2, #0
 8001998:	f44f 4180 	mov.w	r1, #16384	; 0x4000
 800199c:	4803      	ldr	r0, [pc, #12]	; (80019ac <pulsoEnable+0x2c>)
 800199e:	f001 fef6 	bl	800378e <HAL_GPIO_WritePin>
    delay(20);
 80019a2:	2014      	movs	r0, #20
 80019a4:	f7ff ffb0 	bl	8001908 <delay>
}
 80019a8:	bf00      	nop
 80019aa:	bd80      	pop	{r7, pc}
 80019ac:	40010c00 	.word	0x40010c00

080019b0 <escribeLcd>:

void escribeLcd (char data, int rs)
{
 80019b0:	b580      	push	{r7, lr}
 80019b2:	b082      	sub	sp, #8
 80019b4:	af00      	add	r7, sp, #0
 80019b6:	4603      	mov	r3, r0
 80019b8:	6039      	str	r1, [r7, #0]
 80019ba:	71fb      	strb	r3, [r7, #7]
	HAL_GPIO_WritePin(RS_GPIO_Port, RS_Pin, rs);  // rs = 1 para datos, rs=0 para comandos
 80019bc:	683b      	ldr	r3, [r7, #0]
 80019be:	b2db      	uxtb	r3, r3
 80019c0:	461a      	mov	r2, r3
 80019c2:	f44f 5100 	mov.w	r1, #8192	; 0x2000
 80019c6:	481b      	ldr	r0, [pc, #108]	; (8001a34 <escribeLcd+0x84>)
 80019c8:	f001 fee1 	bl	800378e <HAL_GPIO_WritePin>

	/* ecribir datos a los respectivos pines */
	HAL_GPIO_WritePin(D7_GPIO_Port, D7_Pin, ((data>>3)&0x01));
 80019cc:	79fb      	ldrb	r3, [r7, #7]
 80019ce:	08db      	lsrs	r3, r3, #3
 80019d0:	b2db      	uxtb	r3, r3
 80019d2:	f003 0301 	and.w	r3, r3, #1
 80019d6:	b2db      	uxtb	r3, r3
 80019d8:	461a      	mov	r2, r3
 80019da:	f44f 6180 	mov.w	r1, #1024	; 0x400
 80019de:	4816      	ldr	r0, [pc, #88]	; (8001a38 <escribeLcd+0x88>)
 80019e0:	f001 fed5 	bl	800378e <HAL_GPIO_WritePin>
	HAL_GPIO_WritePin(D6_GPIO_Port, D6_Pin, ((data>>2)&0x01));
 80019e4:	79fb      	ldrb	r3, [r7, #7]
 80019e6:	089b      	lsrs	r3, r3, #2
 80019e8:	b2db      	uxtb	r3, r3
 80019ea:	f003 0301 	and.w	r3, r3, #1
 80019ee:	b2db      	uxtb	r3, r3
 80019f0:	461a      	mov	r2, r3
 80019f2:	f44f 7100 	mov.w	r1, #512	; 0x200
 80019f6:	4810      	ldr	r0, [pc, #64]	; (8001a38 <escribeLcd+0x88>)
 80019f8:	f001 fec9 	bl	800378e <HAL_GPIO_WritePin>
	HAL_GPIO_WritePin(D5_GPIO_Port, D5_Pin, ((data>>1)&0x01));
 80019fc:	79fb      	ldrb	r3, [r7, #7]
 80019fe:	085b      	lsrs	r3, r3, #1
 8001a00:	b2db      	uxtb	r3, r3
 8001a02:	f003 0301 	and.w	r3, r3, #1
 8001a06:	b2db      	uxtb	r3, r3
 8001a08:	461a      	mov	r2, r3
 8001a0a:	f44f 7180 	mov.w	r1, #256	; 0x100
 8001a0e:	480a      	ldr	r0, [pc, #40]	; (8001a38 <escribeLcd+0x88>)
 8001a10:	f001 febd 	bl	800378e <HAL_GPIO_WritePin>
	HAL_GPIO_WritePin(D4_GPIO_Port, D4_Pin, ((data>>0)&0x01));
 8001a14:	79fb      	ldrb	r3, [r7, #7]
 8001a16:	f003 0301 	and.w	r3, r3, #1
 8001a1a:	b2db      	uxtb	r3, r3
 8001a1c:	461a      	mov	r2, r3
 8001a1e:	f44f 4100 	mov.w	r1, #32768	; 0x8000
 8001a22:	4804      	ldr	r0, [pc, #16]	; (8001a34 <escribeLcd+0x84>)
 8001a24:	f001 feb3 	bl	800378e <HAL_GPIO_WritePin>

	/* Toggle PIN EN para enviar dato
	 * si HCLK > 100 MHz, use delay de 20 us
	 * si el LCD sigue sin funcionar, incrementar el delay a 50, 80 o 100..
	 */
	pulsoEnable();
 8001a28:	f7ff ffaa 	bl	8001980 <pulsoEnable>
}
 8001a2c:	bf00      	nop
 8001a2e:	3708      	adds	r7, #8
 8001a30:	46bd      	mov	sp, r7
 8001a32:	bd80      	pop	{r7, pc}
 8001a34:	40010c00 	.word	0x40010c00
 8001a38:	40010800 	.word	0x40010800

08001a3c <lcdCmd>:

void lcdCmd (char cmd)
{
 8001a3c:	b580      	push	{r7, lr}
 8001a3e:	b084      	sub	sp, #16
 8001a40:	af00      	add	r7, sp, #0
 8001a42:	4603      	mov	r3, r0
 8001a44:	71fb      	strb	r3, [r7, #7]
    char dataToSend;

    /* se envia primero el nibble superior */
    dataToSend = ((cmd>>4)&0x0f);
 8001a46:	79fb      	ldrb	r3, [r7, #7]
 8001a48:	091b      	lsrs	r3, r3, #4
 8001a4a:	73fb      	strb	r3, [r7, #15]
    escribeLcd(dataToSend,0);  // RS must be 0 while sending command
 8001a4c:	7bfb      	ldrb	r3, [r7, #15]
 8001a4e:	2100      	movs	r1, #0
 8001a50:	4618      	mov	r0, r3
 8001a52:	f7ff ffad 	bl	80019b0 <escribeLcd>

    /* se envia el nibble inferior */
    dataToSend = ((cmd)&0x0f);
 8001a56:	79fb      	ldrb	r3, [r7, #7]
 8001a58:	f003 030f 	and.w	r3, r3, #15
 8001a5c:	73fb      	strb	r3, [r7, #15]
	escribeLcd(dataToSend, 0);
 8001a5e:	7bfb      	ldrb	r3, [r7, #15]
 8001a60:	2100      	movs	r1, #0
 8001a62:	4618      	mov	r0, r3
 8001a64:	f7ff ffa4 	bl	80019b0 <escribeLcd>
}
 8001a68:	bf00      	nop
 8001a6a:	3710      	adds	r7, #16
 8001a6c:	46bd      	mov	sp, r7
 8001a6e:	bd80      	pop	{r7, pc}

08001a70 <lcdDato>:

void lcdDato (char data)
{
 8001a70:	b580      	push	{r7, lr}
 8001a72:	b084      	sub	sp, #16
 8001a74:	af00      	add	r7, sp, #0
 8001a76:	4603      	mov	r3, r0
 8001a78:	71fb      	strb	r3, [r7, #7]
	char dataToSend;

	/* se envia primero el nibble superior */
	dataToSend = ((data>>4)&0x0f);
 8001a7a:	79fb      	ldrb	r3, [r7, #7]
 8001a7c:	091b      	lsrs	r3, r3, #4
 8001a7e:	73fb      	strb	r3, [r7, #15]
	escribeLcd(dataToSend, 1);  // rs =1 for sending data
 8001a80:	7bfb      	ldrb	r3, [r7, #15]
 8001a82:	2101      	movs	r1, #1
 8001a84:	4618      	mov	r0, r3
 8001a86:	f7ff ff93 	bl	80019b0 <escribeLcd>

	/* se envia el nibble inferior */
	dataToSend = ((data)&0x0f);
 8001a8a:	79fb      	ldrb	r3, [r7, #7]
 8001a8c:	f003 030f 	and.w	r3, r3, #15
 8001a90:	73fb      	strb	r3, [r7, #15]
	escribeLcd(dataToSend, 1);
 8001a92:	7bfb      	ldrb	r3, [r7, #15]
 8001a94:	2101      	movs	r1, #1
 8001a96:	4618      	mov	r0, r3
 8001a98:	f7ff ff8a 	bl	80019b0 <escribeLcd>
}
 8001a9c:	bf00      	nop
 8001a9e:	3710      	adds	r7, #16
 8001aa0:	46bd      	mov	sp, r7
 8001aa2:	bd80      	pop	{r7, pc}

08001aa4 <lcdClear>:

void lcdClear (void)
{
 8001aa4:	b580      	push	{r7, lr}
 8001aa6:	af00      	add	r7, sp, #0
	lcdCmd(0x01);
 8001aa8:	2001      	movs	r0, #1
 8001aaa:	f7ff ffc7 	bl	8001a3c <lcdCmd>
	HAL_Delay(2);
 8001aae:	2002      	movs	r0, #2
 8001ab0:	f001 f964 	bl	8002d7c <HAL_Delay>
	return;
 8001ab4:	bf00      	nop
}
 8001ab6:	bd80      	pop	{r7, pc}

08001ab8 <lcdCursor>:

void lcdCursor(uint8_t linea, uint8_t caracter){
 8001ab8:	b580      	push	{r7, lr}
 8001aba:	b084      	sub	sp, #16
 8001abc:	af00      	add	r7, sp, #0
 8001abe:	4603      	mov	r3, r0
 8001ac0:	460a      	mov	r2, r1
 8001ac2:	71fb      	strb	r3, [r7, #7]
 8001ac4:	4613      	mov	r3, r2
 8001ac6:	71bb      	strb	r3, [r7, #6]
	if (caracter > 20 || linea > 4 || caracter < 0 || linea < 0)
 8001ac8:	79bb      	ldrb	r3, [r7, #6]
 8001aca:	2b14      	cmp	r3, #20
 8001acc:	d829      	bhi.n	8001b22 <lcdCursor+0x6a>
 8001ace:	79fb      	ldrb	r3, [r7, #7]
 8001ad0:	2b04      	cmp	r3, #4
 8001ad2:	d826      	bhi.n	8001b22 <lcdCursor+0x6a>
		return;
	uint8_t pos = 0;
 8001ad4:	2300      	movs	r3, #0
 8001ad6:	73fb      	strb	r3, [r7, #15]
    switch (linea)
 8001ad8:	79fb      	ldrb	r3, [r7, #7]
 8001ada:	2b03      	cmp	r3, #3
 8001adc:	d819      	bhi.n	8001b12 <lcdCursor+0x5a>
 8001ade:	a201      	add	r2, pc, #4	; (adr r2, 8001ae4 <lcdCursor+0x2c>)
 8001ae0:	f852 f023 	ldr.w	pc, [r2, r3, lsl #2]
 8001ae4:	08001af5 	.word	0x08001af5
 8001ae8:	08001afb 	.word	0x08001afb
 8001aec:	08001b03 	.word	0x08001b03
 8001af0:	08001b0b 	.word	0x08001b0b
    {
        case 0:
            pos = 0x00 + caracter;
 8001af4:	79bb      	ldrb	r3, [r7, #6]
 8001af6:	73fb      	strb	r3, [r7, #15]
            break;
 8001af8:	e00b      	b.n	8001b12 <lcdCursor+0x5a>
        case 1:
            pos= 0x40+caracter;
 8001afa:	79bb      	ldrb	r3, [r7, #6]
 8001afc:	3340      	adds	r3, #64	; 0x40
 8001afe:	73fb      	strb	r3, [r7, #15]
            break;
 8001b00:	e007      	b.n	8001b12 <lcdCursor+0x5a>
        case 2:
        	pos = 0x14 + caracter;
 8001b02:	79bb      	ldrb	r3, [r7, #6]
 8001b04:	3314      	adds	r3, #20
 8001b06:	73fb      	strb	r3, [r7, #15]
        break;
 8001b08:	e003      	b.n	8001b12 <lcdCursor+0x5a>
        case 3:
        	pos = 0x54 + caracter;
 8001b0a:	79bb      	ldrb	r3, [r7, #6]
 8001b0c:	3354      	adds	r3, #84	; 0x54
 8001b0e:	73fb      	strb	r3, [r7, #15]
        break;
 8001b10:	bf00      	nop
    }

    lcdCmd (0x80 | pos);
 8001b12:	7bfb      	ldrb	r3, [r7, #15]
 8001b14:	f063 037f 	orn	r3, r3, #127	; 0x7f
 8001b18:	b2db      	uxtb	r3, r3
 8001b1a:	4618      	mov	r0, r3
 8001b1c:	f7ff ff8e 	bl	8001a3c <lcdCmd>
 8001b20:	e000      	b.n	8001b24 <lcdCursor+0x6c>
		return;
 8001b22:	bf00      	nop
}
 8001b24:	3710      	adds	r7, #16
 8001b26:	46bd      	mov	sp, r7
 8001b28:	bd80      	pop	{r7, pc}
 8001b2a:	bf00      	nop

08001b2c <lcdInit>:


void lcdInit (void)
{
 8001b2c:	b580      	push	{r7, lr}
 8001b2e:	af00      	add	r7, sp, #0
	// 4 bit initialization
	HAL_Delay(50);  // esperar por mas de >40ms
 8001b30:	2032      	movs	r0, #50	; 0x32
 8001b32:	f001 f923 	bl	8002d7c <HAL_Delay>
	lcdCmd (0x30);
 8001b36:	2030      	movs	r0, #48	; 0x30
 8001b38:	f7ff ff80 	bl	8001a3c <lcdCmd>
	HAL_Delay(5);  // esperar por mas de >4.1ms
 8001b3c:	2005      	movs	r0, #5
 8001b3e:	f001 f91d 	bl	8002d7c <HAL_Delay>
	lcdCmd (0x30);
 8001b42:	2030      	movs	r0, #48	; 0x30
 8001b44:	f7ff ff7a 	bl	8001a3c <lcdCmd>
	HAL_Delay(1);  // esperar por mas de >100us
 8001b48:	2001      	movs	r0, #1
 8001b4a:	f001 f917 	bl	8002d7c <HAL_Delay>
	lcdCmd (0x30);
 8001b4e:	2030      	movs	r0, #48	; 0x30
 8001b50:	f7ff ff74 	bl	8001a3c <lcdCmd>
	HAL_Delay(10);
 8001b54:	200a      	movs	r0, #10
 8001b56:	f001 f911 	bl	8002d7c <HAL_Delay>
	lcdCmd (0x20);  // modo 4bit
 8001b5a:	2020      	movs	r0, #32
 8001b5c:	f7ff ff6e 	bl	8001a3c <lcdCmd>
	HAL_Delay(10);
 8001b60:	200a      	movs	r0, #10
 8001b62:	f001 f90b 	bl	8002d7c <HAL_Delay>

  // display initialization
	lcdCmd (0x28); // Function set --> DL=0 (modo 4 bit), N = 1 (2 lineas) F = 0 ( carecteres de 5x8 )
 8001b66:	2028      	movs	r0, #40	; 0x28
 8001b68:	f7ff ff68 	bl	8001a3c <lcdCmd>
	HAL_Delay(1);
 8001b6c:	2001      	movs	r0, #1
 8001b6e:	f001 f905 	bl	8002d7c <HAL_Delay>
	lcdCmd (0x08); //Display on/off control --> D=0,C=0, B=0  ---> display off
 8001b72:	2008      	movs	r0, #8
 8001b74:	f7ff ff62 	bl	8001a3c <lcdCmd>
	HAL_Delay(1);
 8001b78:	2001      	movs	r0, #1
 8001b7a:	f001 f8ff 	bl	8002d7c <HAL_Delay>
	lcdCmd (0x01);  // clear display
 8001b7e:	2001      	movs	r0, #1
 8001b80:	f7ff ff5c 	bl	8001a3c <lcdCmd>
	HAL_Delay(1);
 8001b84:	2001      	movs	r0, #1
 8001b86:	f001 f8f9 	bl	8002d7c <HAL_Delay>
	HAL_Delay(1);
 8001b8a:	2001      	movs	r0, #1
 8001b8c:	f001 f8f6 	bl	8002d7c <HAL_Delay>
	lcdCmd (0x06); //Entry mode set --> I/D = 1 (cursor incremental) & S = 0 (sin shift)
 8001b90:	2006      	movs	r0, #6
 8001b92:	f7ff ff53 	bl	8001a3c <lcdCmd>
	HAL_Delay(1);
 8001b96:	2001      	movs	r0, #1
 8001b98:	f001 f8f0 	bl	8002d7c <HAL_Delay>
	lcdCmd (0x0C); //Display on/off control --> D = 1, C y B = 0. (Cursor y blink, ultimos dos bits)
 8001b9c:	200c      	movs	r0, #12
 8001b9e:	f7ff ff4d 	bl	8001a3c <lcdCmd>
	lcdClear();
 8001ba2:	f7ff ff7f 	bl	8001aa4 <lcdClear>
}
 8001ba6:	bf00      	nop
 8001ba8:	bd80      	pop	{r7, pc}

08001baa <lcdString>:

void lcdString (char *msg)
{
 8001baa:	b580      	push	{r7, lr}
 8001bac:	b082      	sub	sp, #8
 8001bae:	af00      	add	r7, sp, #0
 8001bb0:	6078      	str	r0, [r7, #4]
	while(*msg){
 8001bb2:	e007      	b.n	8001bc4 <lcdString+0x1a>
		lcdDato(*msg);
 8001bb4:	687b      	ldr	r3, [r7, #4]
 8001bb6:	781b      	ldrb	r3, [r3, #0]
 8001bb8:	4618      	mov	r0, r3
 8001bba:	f7ff ff59 	bl	8001a70 <lcdDato>
	    msg++;
 8001bbe:	687b      	ldr	r3, [r7, #4]
 8001bc0:	3301      	adds	r3, #1
 8001bc2:	607b      	str	r3, [r7, #4]
	while(*msg){
 8001bc4:	687b      	ldr	r3, [r7, #4]
 8001bc6:	781b      	ldrb	r3, [r3, #0]
 8001bc8:	2b00      	cmp	r3, #0
 8001bca:	d1f3      	bne.n	8001bb4 <lcdString+0xa>
	}
	return;
 8001bcc:	bf00      	nop
}
 8001bce:	3708      	adds	r7, #8
 8001bd0:	46bd      	mov	sp, r7
 8001bd2:	bd80      	pop	{r7, pc}

08001bd4 <lcdCaracter>:

void lcdCaracter(char caracter){
 8001bd4:	b580      	push	{r7, lr}
 8001bd6:	b082      	sub	sp, #8
 8001bd8:	af00      	add	r7, sp, #0
 8001bda:	4603      	mov	r3, r0
 8001bdc:	71fb      	strb	r3, [r7, #7]
    if (caracter!=0x00){
 8001bde:	79fb      	ldrb	r3, [r7, #7]
 8001be0:	2b00      	cmp	r3, #0
 8001be2:	d004      	beq.n	8001bee <lcdCaracter+0x1a>
        lcdDato(caracter);
 8001be4:	79fb      	ldrb	r3, [r7, #7]
 8001be6:	4618      	mov	r0, r3
 8001be8:	f7ff ff42 	bl	8001a70 <lcdDato>
    }
    return;
 8001bec:	bf00      	nop
 8001bee:	bf00      	nop
}
 8001bf0:	3708      	adds	r7, #8
 8001bf2:	46bd      	mov	sp, r7
 8001bf4:	bd80      	pop	{r7, pc}

08001bf6 <lcdEscribeInt>:

void lcdEscribeInt(uint32_t numero){
 8001bf6:	b580      	push	{r7, lr}
 8001bf8:	b088      	sub	sp, #32
 8001bfa:	af00      	add	r7, sp, #0
 8001bfc:	6078      	str	r0, [r7, #4]
    char buffer[20];
    itoa(numero, buffer, 10);
 8001bfe:	687b      	ldr	r3, [r7, #4]
 8001c00:	f107 010c 	add.w	r1, r7, #12
 8001c04:	220a      	movs	r2, #10
 8001c06:	4618      	mov	r0, r3
 8001c08:	f008 ff98 	bl	800ab3c <itoa>
    lcdString(buffer);
 8001c0c:	f107 030c 	add.w	r3, r7, #12
 8001c10:	4618      	mov	r0, r3
 8001c12:	f7ff ffca 	bl	8001baa <lcdString>
    return;
 8001c16:	bf00      	nop
}
 8001c18:	3720      	adds	r7, #32
 8001c1a:	46bd      	mov	sp, r7
 8001c1c:	bd80      	pop	{r7, pc}
	...

08001c20 <main>:
/**
  * @brief  The application entry point.
  * @retval int
  */
int main(void)
{
 8001c20:	b580      	push	{r7, lr}
 8001c22:	b086      	sub	sp, #24
 8001c24:	af00      	add	r7, sp, #0
  /* USER CODE END 1 */

  /* MCU Configuration--------------------------------------------------------*/

  /* Reset of all peripherals, Initializes the Flash interface and the Systick. */
  HAL_Init();
 8001c26:	f001 f847 	bl	8002cb8 <HAL_Init>

  /* USER CODE BEGIN Init */
  usbReset();
 8001c2a:	f7ff f86d 	bl	8000d08 <usbReset>
  /* USER CODE END Init */

  /* Configure the system clock */
  SystemClock_Config();
 8001c2e:	f000 fa99 	bl	8002164 <SystemClock_Config>
  /* USER CODE BEGIN SysInit */

  /* USER CODE END SysInit */

  /* Initialize all configured peripherals */
  MX_GPIO_Init();
 8001c32:	f000 fca3 	bl	800257c <MX_GPIO_Init>
  MX_SPI1_Init();
 8001c36:	f000 fb31 	bl	800229c <MX_SPI1_Init>
  MX_ADC1_Init();
 8001c3a:	f000 faf1 	bl	8002220 <MX_ADC1_Init>
  MX_TIM1_Init();
 8001c3e:	f000 fb65 	bl	800230c <MX_TIM1_Init>
  MX_TIM2_Init();
 8001c42:	f000 fbb3 	bl	80023ac <MX_TIM2_Init>
  MX_TIM3_Init();
 8001c46:	f000 fbfd 	bl	8002444 <MX_TIM3_Init>
  MX_USB_DEVICE_Init();
 8001c4a:	f008 fa9f 	bl	800a18c <MX_USB_DEVICE_Init>
  MX_TIM4_Init();
 8001c4e:	f000 fc47 	bl	80024e0 <MX_TIM4_Init>
  /* USER CODE BEGIN 2 */

  HAL_Delay(1000);
 8001c52:	f44f 707a 	mov.w	r0, #1000	; 0x3e8
 8001c56:	f001 f891 	bl	8002d7c <HAL_Delay>
  estadoAnterior = estado;
 8001c5a:	4bb4      	ldr	r3, [pc, #720]	; (8001f2c <main+0x30c>)
 8001c5c:	781b      	ldrb	r3, [r3, #0]
 8001c5e:	b2da      	uxtb	r2, r3
 8001c60:	4bb3      	ldr	r3, [pc, #716]	; (8001f30 <main+0x310>)
 8001c62:	701a      	strb	r2, [r3, #0]
  mode modo = CC;
 8001c64:	2301      	movs	r3, #1
 8001c66:	75fb      	strb	r3, [r7, #23]
  uint64_t iRead = 0, vRead = 0;
 8001c68:	f04f 0200 	mov.w	r2, #0
 8001c6c:	f04f 0300 	mov.w	r3, #0
 8001c70:	e9c7 2302 	strd	r2, r3, [r7, #8]
 8001c74:	f04f 0200 	mov.w	r2, #0
 8001c78:	f04f 0300 	mov.w	r3, #0
 8001c7c:	e9c7 2300 	strd	r2, r3, [r7]
  /* USER CODE END 2 */

  /* Infinite loop */
  /* USER CODE BEGIN WHILE */

  usbSendString("\t \t #################################### \n\r");
 8001c80:	48ac      	ldr	r0, [pc, #688]	; (8001f34 <main+0x314>)
 8001c82:	f7ff f8a8 	bl	8000dd6 <usbSendString>
  usbSendString("\t\t#                                     #\n\r");
 8001c86:	48ac      	ldr	r0, [pc, #688]	; (8001f38 <main+0x318>)
 8001c88:	f7ff f8a5 	bl	8000dd6 <usbSendString>
  usbSendString("\t\t#  ELECTRONIC DC LOAD SERIAL MONITOR  # \n\r");
 8001c8c:	48ab      	ldr	r0, [pc, #684]	; (8001f3c <main+0x31c>)
 8001c8e:	f7ff f8a2 	bl	8000dd6 <usbSendString>
  usbSendString("\t\t#                                     #\n\r");
 8001c92:	48a9      	ldr	r0, [pc, #676]	; (8001f38 <main+0x318>)
 8001c94:	f7ff f89f 	bl	8000dd6 <usbSendString>
  usbSendString("\t\t  ################################### \n\r\n");
 8001c98:	48a9      	ldr	r0, [pc, #676]	; (8001f40 <main+0x320>)
 8001c9a:	f7ff f89c 	bl	8000dd6 <usbSendString>

  while (1)
  {
	  switch (estado){
 8001c9e:	4ba3      	ldr	r3, [pc, #652]	; (8001f2c <main+0x30c>)
 8001ca0:	781b      	ldrb	r3, [r3, #0]
 8001ca2:	b2db      	uxtb	r3, r3
 8001ca4:	2b09      	cmp	r3, #9
 8001ca6:	d8fa      	bhi.n	8001c9e <main+0x7e>
 8001ca8:	a201      	add	r2, pc, #4	; (adr r2, 8001cb0 <main+0x90>)
 8001caa:	f852 f023 	ldr.w	pc, [r2, r3, lsl #2]
 8001cae:	bf00      	nop
 8001cb0:	08001cd9 	.word	0x08001cd9
 8001cb4:	08001d0f 	.word	0x08001d0f
 8001cb8:	08001d4b 	.word	0x08001d4b
 8001cbc:	08001dd9 	.word	0x08001dd9
 8001cc0:	08001d9f 	.word	0x08001d9f
 8001cc4:	0800209f 	.word	0x0800209f
 8001cc8:	08002007 	.word	0x08002007
 8001ccc:	08001e23 	.word	0x08001e23
 8001cd0:	08002027 	.word	0x08002027
 8001cd4:	080020cf 	.word	0x080020cf
	  case SYSTEM_INIT:
		  usbSendString("Estado: SYSTEM_INIT\n\r");
 8001cd8:	489a      	ldr	r0, [pc, #616]	; (8001f44 <main+0x324>)
 8001cda:	f7ff f87c 	bl	8000dd6 <usbSendString>
		  usbSendString("Enum Estado: ");
 8001cde:	489a      	ldr	r0, [pc, #616]	; (8001f48 <main+0x328>)
 8001ce0:	f7ff f879 	bl	8000dd6 <usbSendString>
		  usbSendInt(estado);
 8001ce4:	4b91      	ldr	r3, [pc, #580]	; (8001f2c <main+0x30c>)
 8001ce6:	781b      	ldrb	r3, [r3, #0]
 8001ce8:	b2db      	uxtb	r3, r3
 8001cea:	b29b      	uxth	r3, r3
 8001cec:	4618      	mov	r0, r3
 8001cee:	f7ff f85d 	bl	8000dac <usbSendInt>
		  usbSendString("\n\r");
 8001cf2:	4896      	ldr	r0, [pc, #600]	; (8001f4c <main+0x32c>)
 8001cf4:	f7ff f86f 	bl	8000dd6 <usbSendString>
		  systemInit();
 8001cf8:	f7fe fe98 	bl	8000a2c <systemInit>
		  estado = LCD_HOME_TEMPLATE;
 8001cfc:	4b8b      	ldr	r3, [pc, #556]	; (8001f2c <main+0x30c>)
 8001cfe:	2201      	movs	r2, #1
 8001d00:	701a      	strb	r2, [r3, #0]
		  estadoActual = estado;
 8001d02:	4b8a      	ldr	r3, [pc, #552]	; (8001f2c <main+0x30c>)
 8001d04:	781b      	ldrb	r3, [r3, #0]
 8001d06:	b2da      	uxtb	r2, r3
 8001d08:	4b91      	ldr	r3, [pc, #580]	; (8001f50 <main+0x330>)
 8001d0a:	701a      	strb	r2, [r3, #0]
		  break;
 8001d0c:	e20b      	b.n	8002126 <main+0x506>
	  case LCD_HOME_TEMPLATE:
		  usbSendString("Estado: LCD_HOME_TEMPLATE\n\r");
 8001d0e:	4891      	ldr	r0, [pc, #580]	; (8001f54 <main+0x334>)
 8001d10:	f7ff f861 	bl	8000dd6 <usbSendString>
		  usbSendString("Enum Estado: ");
 8001d14:	488c      	ldr	r0, [pc, #560]	; (8001f48 <main+0x328>)
 8001d16:	f7ff f85e 	bl	8000dd6 <usbSendString>
		  usbSendInt(estado);
 8001d1a:	4b84      	ldr	r3, [pc, #528]	; (8001f2c <main+0x30c>)
 8001d1c:	781b      	ldrb	r3, [r3, #0]
 8001d1e:	b2db      	uxtb	r3, r3
 8001d20:	b29b      	uxth	r3, r3
 8001d22:	4618      	mov	r0, r3
 8001d24:	f7ff f842 	bl	8000dac <usbSendInt>
		  usbSendString("\n\r");
 8001d28:	4888      	ldr	r0, [pc, #544]	; (8001f4c <main+0x32c>)
 8001d2a:	f7ff f854 	bl	8000dd6 <usbSendString>
		  homeDisplay();
 8001d2e:	f7fe fec7 	bl	8000ac0 <homeDisplay>
		  estado = LCD_TEMPLATE;
 8001d32:	4b7e      	ldr	r3, [pc, #504]	; (8001f2c <main+0x30c>)
 8001d34:	2202      	movs	r2, #2
 8001d36:	701a      	strb	r2, [r3, #0]
		  usbSendString("\n\r");
 8001d38:	4884      	ldr	r0, [pc, #528]	; (8001f4c <main+0x32c>)
 8001d3a:	f7ff f84c 	bl	8000dd6 <usbSendString>
		  estadoActual = estado;
 8001d3e:	4b7b      	ldr	r3, [pc, #492]	; (8001f2c <main+0x30c>)
 8001d40:	781b      	ldrb	r3, [r3, #0]
 8001d42:	b2da      	uxtb	r2, r3
 8001d44:	4b82      	ldr	r3, [pc, #520]	; (8001f50 <main+0x330>)
 8001d46:	701a      	strb	r2, [r3, #0]
		  break;
 8001d48:	e1ed      	b.n	8002126 <main+0x506>

	  case LCD_TEMPLATE:
		  usbSendString("\nEstado: LCD_TEMPLATE\n\r");
 8001d4a:	4883      	ldr	r0, [pc, #524]	; (8001f58 <main+0x338>)
 8001d4c:	f7ff f843 	bl	8000dd6 <usbSendString>
		  usbSendString("Enum Estado: ");
 8001d50:	487d      	ldr	r0, [pc, #500]	; (8001f48 <main+0x328>)
 8001d52:	f7ff f840 	bl	8000dd6 <usbSendString>
		  usbSendInt(estado);
 8001d56:	4b75      	ldr	r3, [pc, #468]	; (8001f2c <main+0x30c>)
 8001d58:	781b      	ldrb	r3, [r3, #0]
 8001d5a:	b2db      	uxtb	r3, r3
 8001d5c:	b29b      	uxth	r3, r3
 8001d5e:	4618      	mov	r0, r3
 8001d60:	f7ff f824 	bl	8000dac <usbSendInt>
		  usbSendString("\n\r");
 8001d64:	4879      	ldr	r0, [pc, #484]	; (8001f4c <main+0x32c>)
 8001d66:	f7ff f836 	bl	8000dd6 <usbSendString>
		  switch (modo){
 8001d6a:	7dfb      	ldrb	r3, [r7, #23]
 8001d6c:	2b00      	cmp	r3, #0
 8001d6e:	d00a      	beq.n	8001d86 <main+0x166>
 8001d70:	2b01      	cmp	r3, #1
 8001d72:	d10e      	bne.n	8001d92 <main+0x172>
		  case CC:
			  ccDisplay();
 8001d74:	f7fe fec0 	bl	8000af8 <ccDisplay>
			  estado = ADC_READ_CURRENT;
 8001d78:	4b6c      	ldr	r3, [pc, #432]	; (8001f2c <main+0x30c>)
 8001d7a:	2203      	movs	r2, #3
 8001d7c:	701a      	strb	r2, [r3, #0]
			  HAL_TIM_Base_Start_IT(&htim3);
 8001d7e:	4877      	ldr	r0, [pc, #476]	; (8001f5c <main+0x33c>)
 8001d80:	f004 fa08 	bl	8006194 <HAL_TIM_Base_Start_IT>
			  break;
 8001d84:	e005      	b.n	8001d92 <main+0x172>
		  case TRAN:
			  tranDisplay();
 8001d86:	f7fe fee3 	bl	8000b50 <tranDisplay>
			  estado = ADC_READ_CURRENT;
 8001d8a:	4b68      	ldr	r3, [pc, #416]	; (8001f2c <main+0x30c>)
 8001d8c:	2203      	movs	r2, #3
 8001d8e:	701a      	strb	r2, [r3, #0]
			  break;
 8001d90:	bf00      	nop

		  }
		  estadoActual = estado;
 8001d92:	4b66      	ldr	r3, [pc, #408]	; (8001f2c <main+0x30c>)
 8001d94:	781b      	ldrb	r3, [r3, #0]
 8001d96:	b2da      	uxtb	r2, r3
 8001d98:	4b6d      	ldr	r3, [pc, #436]	; (8001f50 <main+0x330>)
 8001d9a:	701a      	strb	r2, [r3, #0]
		  break;
 8001d9c:	e1c3      	b.n	8002126 <main+0x506>

	  case ADC_READ_VOLTAGE:				// FALTA IMPLEMENTAR, decidir el template de Vread
		  vRead = leerADC(0);
 8001d9e:	2000      	movs	r0, #0
 8001da0:	f7fe fde0 	bl	8000964 <leerADC>
 8001da4:	4603      	mov	r3, r0
 8001da6:	b29a      	uxth	r2, r3
 8001da8:	f04f 0300 	mov.w	r3, #0
 8001dac:	e9c7 2300 	strd	r2, r3, [r7]
		  if (modo == CC){
 8001db0:	7dfb      	ldrb	r3, [r7, #23]
 8001db2:	2b01      	cmp	r3, #1
 8001db4:	d107      	bne.n	8001dc6 <main+0x1a6>
			  lcdCursor(2, 6);
 8001db6:	2106      	movs	r1, #6
 8001db8:	2002      	movs	r0, #2
 8001dba:	f7ff fe7d 	bl	8001ab8 <lcdCursor>
			  lcdEscribeInt(vRead);
 8001dbe:	683b      	ldr	r3, [r7, #0]
 8001dc0:	4618      	mov	r0, r3
 8001dc2:	f7ff ff18 	bl	8001bf6 <lcdEscribeInt>
		  }
		  estado = ADC_READ_CURRENT;
 8001dc6:	4b59      	ldr	r3, [pc, #356]	; (8001f2c <main+0x30c>)
 8001dc8:	2203      	movs	r2, #3
 8001dca:	701a      	strb	r2, [r3, #0]
		  estadoActual = estado;
 8001dcc:	4b57      	ldr	r3, [pc, #348]	; (8001f2c <main+0x30c>)
 8001dce:	781b      	ldrb	r3, [r3, #0]
 8001dd0:	b2da      	uxtb	r2, r3
 8001dd2:	4b5f      	ldr	r3, [pc, #380]	; (8001f50 <main+0x330>)
 8001dd4:	701a      	strb	r2, [r3, #0]
		  break;
 8001dd6:	e1a6      	b.n	8002126 <main+0x506>
		 /* for (uint16_t i = 0 ; i < ADC_MUESTRAS ; i++){
			  ibuff[i] = leerADC(1);
			  iRead += ibuff[i];
			  //HAL_Delay(1);
		  }*/
		  iRead = promedioN_X(ADC_SAMPLE_DELETION, ADC_MUESTRAS);
 8001dd8:	4b61      	ldr	r3, [pc, #388]	; (8001f60 <main+0x340>)
 8001dda:	881b      	ldrh	r3, [r3, #0]
 8001ddc:	4619      	mov	r1, r3
 8001dde:	201e      	movs	r0, #30
 8001de0:	f7ff fad8 	bl	8001394 <promedioN_X>
 8001de4:	4603      	mov	r3, r0
 8001de6:	b29a      	uxth	r2, r3
 8001de8:	f04f 0300 	mov.w	r3, #0
 8001dec:	e9c7 2302 	strd	r2, r3, [r7, #8]
		  //estado = ADC_READ_CURRENT;
		  if (estadoAnterior == KEYPAD_DECODE || estadoAnterior == DAC_SET_CURRENT
 8001df0:	4b4f      	ldr	r3, [pc, #316]	; (8001f30 <main+0x310>)
 8001df2:	781b      	ldrb	r3, [r3, #0]
 8001df4:	b2db      	uxtb	r3, r3
 8001df6:	2b07      	cmp	r3, #7
 8001df8:	d00f      	beq.n	8001e1a <main+0x1fa>
 8001dfa:	4b4d      	ldr	r3, [pc, #308]	; (8001f30 <main+0x310>)
 8001dfc:	781b      	ldrb	r3, [r3, #0]
 8001dfe:	b2db      	uxtb	r3, r3
 8001e00:	2b06      	cmp	r3, #6
 8001e02:	d00a      	beq.n	8001e1a <main+0x1fa>
				  	  	  	  	  	  	  	  || estadoAnterior == CALC_ISET
 8001e04:	4b4a      	ldr	r3, [pc, #296]	; (8001f30 <main+0x310>)
 8001e06:	781b      	ldrb	r3, [r3, #0]
 8001e08:	b2db      	uxtb	r3, r3
 8001e0a:	2b08      	cmp	r3, #8
 8001e0c:	d005      	beq.n	8001e1a <main+0x1fa>
											  || estadoAnterior == ADC_READ_CURRENT){
 8001e0e:	4b48      	ldr	r3, [pc, #288]	; (8001f30 <main+0x310>)
 8001e10:	781b      	ldrb	r3, [r3, #0]
 8001e12:	b2db      	uxtb	r3, r3
 8001e14:	2b03      	cmp	r3, #3
 8001e16:	f040 8183 	bne.w	8002120 <main+0x500>
			  HAL_TIM_Base_Start_IT(&htim3);
 8001e1a:	4850      	ldr	r0, [pc, #320]	; (8001f5c <main+0x33c>)
 8001e1c:	f004 f9ba 	bl	8006194 <HAL_TIM_Base_Start_IT>
		  }
		  break;
 8001e20:	e17e      	b.n	8002120 <main+0x500>
	  case KEYPAD_DECODE:
		  //usbSendString("Estado: KEYPAD_DECODE\n\r");
		  //usbSendString("Enum Estado: ");
		  //usbSendInt(estado);
		  //usbSendString("\n\r");
		  usbSendString("Tecla preisonada :");
 8001e22:	4850      	ldr	r0, [pc, #320]	; (8001f64 <main+0x344>)
 8001e24:	f7fe ffd7 	bl	8000dd6 <usbSendString>
		  usbSendString((unsigned char*)&tecla);
 8001e28:	484f      	ldr	r0, [pc, #316]	; (8001f68 <main+0x348>)
 8001e2a:	f7fe ffd4 	bl	8000dd6 <usbSendString>
		  usbSendString("\n\r");
 8001e2e:	4847      	ldr	r0, [pc, #284]	; (8001f4c <main+0x32c>)
 8001e30:	f7fe ffd1 	bl	8000dd6 <usbSendString>

		  switch (tecla){
 8001e34:	4b4c      	ldr	r3, [pc, #304]	; (8001f68 <main+0x348>)
 8001e36:	781b      	ldrb	r3, [r3, #0]
 8001e38:	b2db      	uxtb	r3, r3
 8001e3a:	3b41      	subs	r3, #65	; 0x41
 8001e3c:	2b03      	cmp	r3, #3
 8001e3e:	f200 80d7 	bhi.w	8001ff0 <main+0x3d0>
 8001e42:	a201      	add	r2, pc, #4	; (adr r2, 8001e48 <main+0x228>)
 8001e44:	f852 f023 	ldr.w	pc, [r2, r3, lsl #2]
 8001e48:	08001e59 	.word	0x08001e59
 8001e4c:	08001e8f 	.word	0x08001e8f
 8001e50:	08001ec5 	.word	0x08001ec5
 8001e54:	08001f95 	.word	0x08001f95
		  case 'A':				//cambia a modo corriente constante
			  modo = CC;
 8001e58:	2301      	movs	r3, #1
 8001e5a:	75fb      	strb	r3, [r7, #23]
			  loadOn = false;
 8001e5c:	4b43      	ldr	r3, [pc, #268]	; (8001f6c <main+0x34c>)
 8001e5e:	2200      	movs	r2, #0
 8001e60:	701a      	strb	r2, [r3, #0]
			  loadControl(loadOn);
 8001e62:	4b42      	ldr	r3, [pc, #264]	; (8001f6c <main+0x34c>)
 8001e64:	781b      	ldrb	r3, [r3, #0]
 8001e66:	b2db      	uxtb	r3, r3
 8001e68:	4618      	mov	r0, r3
 8001e6a:	f7fe ff13 	bl	8000c94 <loadControl>
			  estado = LCD_TEMPLATE;
 8001e6e:	4b2f      	ldr	r3, [pc, #188]	; (8001f2c <main+0x30c>)
 8001e70:	2202      	movs	r2, #2
 8001e72:	701a      	strb	r2, [r3, #0]
			  newKeyPressed = false;
 8001e74:	4b3e      	ldr	r3, [pc, #248]	; (8001f70 <main+0x350>)
 8001e76:	2200      	movs	r2, #0
 8001e78:	701a      	strb	r2, [r3, #0]
			  usbSendString("MODE: CC");
 8001e7a:	483e      	ldr	r0, [pc, #248]	; (8001f74 <main+0x354>)
 8001e7c:	f7fe ffab 	bl	8000dd6 <usbSendString>
			  usbSendString("\n\r");
 8001e80:	4832      	ldr	r0, [pc, #200]	; (8001f4c <main+0x32c>)
 8001e82:	f7fe ffa8 	bl	8000dd6 <usbSendString>
			  processing = false;
 8001e86:	4b3c      	ldr	r3, [pc, #240]	; (8001f78 <main+0x358>)
 8001e88:	2200      	movs	r2, #0
 8001e8a:	701a      	strb	r2, [r3, #0]
			  break;
 8001e8c:	e0ba      	b.n	8002004 <main+0x3e4>

		  case 'B':				//cambia a modo transitorio
			  modo = TRAN;
 8001e8e:	2300      	movs	r3, #0
 8001e90:	75fb      	strb	r3, [r7, #23]
			  loadOn = false;
 8001e92:	4b36      	ldr	r3, [pc, #216]	; (8001f6c <main+0x34c>)
 8001e94:	2200      	movs	r2, #0
 8001e96:	701a      	strb	r2, [r3, #0]
			  loadControl(loadOn);
 8001e98:	4b34      	ldr	r3, [pc, #208]	; (8001f6c <main+0x34c>)
 8001e9a:	781b      	ldrb	r3, [r3, #0]
 8001e9c:	b2db      	uxtb	r3, r3
 8001e9e:	4618      	mov	r0, r3
 8001ea0:	f7fe fef8 	bl	8000c94 <loadControl>
			  estado = LCD_TEMPLATE;
 8001ea4:	4b21      	ldr	r3, [pc, #132]	; (8001f2c <main+0x30c>)
 8001ea6:	2202      	movs	r2, #2
 8001ea8:	701a      	strb	r2, [r3, #0]
			  newKeyPressed = false;
 8001eaa:	4b31      	ldr	r3, [pc, #196]	; (8001f70 <main+0x350>)
 8001eac:	2200      	movs	r2, #0
 8001eae:	701a      	strb	r2, [r3, #0]
			  usbSendString("MODE: TRAN");
 8001eb0:	4832      	ldr	r0, [pc, #200]	; (8001f7c <main+0x35c>)
 8001eb2:	f7fe ff90 	bl	8000dd6 <usbSendString>
			  usbSendString("\n\r");
 8001eb6:	4825      	ldr	r0, [pc, #148]	; (8001f4c <main+0x32c>)
 8001eb8:	f7fe ff8d 	bl	8000dd6 <usbSendString>
			  processing = false;
 8001ebc:	4b2e      	ldr	r3, [pc, #184]	; (8001f78 <main+0x358>)
 8001ebe:	2200      	movs	r2, #0
 8001ec0:	701a      	strb	r2, [r3, #0]
			  break;
 8001ec2:	e09f      	b.n	8002004 <main+0x3e4>

		  case 'C':				//cambia a modo enter
			  estadoAnterior = estado;
 8001ec4:	4b19      	ldr	r3, [pc, #100]	; (8001f2c <main+0x30c>)
 8001ec6:	781b      	ldrb	r3, [r3, #0]
 8001ec8:	b2da      	uxtb	r2, r3
 8001eca:	4b19      	ldr	r3, [pc, #100]	; (8001f30 <main+0x310>)
 8001ecc:	701a      	strb	r2, [r3, #0]
			  estado = CALC_ISET;
 8001ece:	4b17      	ldr	r3, [pc, #92]	; (8001f2c <main+0x30c>)
 8001ed0:	2208      	movs	r2, #8
 8001ed2:	701a      	strb	r2, [r3, #0]
			  newKeyPressed = false;
 8001ed4:	4b26      	ldr	r3, [pc, #152]	; (8001f70 <main+0x350>)
 8001ed6:	2200      	movs	r2, #0
 8001ed8:	701a      	strb	r2, [r3, #0]
			  lcdCursorOFF();
 8001eda:	f7ff fd3b 	bl	8001954 <lcdCursorOFF>
			  processing = false;
 8001ede:	4b26      	ldr	r3, [pc, #152]	; (8001f78 <main+0x358>)
 8001ee0:	2200      	movs	r2, #0
 8001ee2:	701a      	strb	r2, [r3, #0]
			  iSet = unidad + decena*10 + centena*100 + unidad_mil*1000;
 8001ee4:	4b26      	ldr	r3, [pc, #152]	; (8001f80 <main+0x360>)
 8001ee6:	781b      	ldrb	r3, [r3, #0]
 8001ee8:	4619      	mov	r1, r3
 8001eea:	4b26      	ldr	r3, [pc, #152]	; (8001f84 <main+0x364>)
 8001eec:	781b      	ldrb	r3, [r3, #0]
 8001eee:	461a      	mov	r2, r3
 8001ef0:	4613      	mov	r3, r2
 8001ef2:	009b      	lsls	r3, r3, #2
 8001ef4:	4413      	add	r3, r2
 8001ef6:	005b      	lsls	r3, r3, #1
 8001ef8:	18ca      	adds	r2, r1, r3
 8001efa:	4b23      	ldr	r3, [pc, #140]	; (8001f88 <main+0x368>)
 8001efc:	781b      	ldrb	r3, [r3, #0]
 8001efe:	4619      	mov	r1, r3
 8001f00:	2364      	movs	r3, #100	; 0x64
 8001f02:	fb03 f301 	mul.w	r3, r3, r1
 8001f06:	441a      	add	r2, r3
 8001f08:	4b20      	ldr	r3, [pc, #128]	; (8001f8c <main+0x36c>)
 8001f0a:	781b      	ldrb	r3, [r3, #0]
 8001f0c:	4619      	mov	r1, r3
 8001f0e:	f44f 737a 	mov.w	r3, #1000	; 0x3e8
 8001f12:	fb03 f301 	mul.w	r3, r3, r1
 8001f16:	4413      	add	r3, r2
 8001f18:	461a      	mov	r2, r3
 8001f1a:	4b1d      	ldr	r3, [pc, #116]	; (8001f90 <main+0x370>)
 8001f1c:	601a      	str	r2, [r3, #0]
			  estado = CALC_ISET;
 8001f1e:	4b03      	ldr	r3, [pc, #12]	; (8001f2c <main+0x30c>)
 8001f20:	2208      	movs	r2, #8
 8001f22:	701a      	strb	r2, [r3, #0]
			  HAL_TIM_Base_Start_IT(&htim3);
 8001f24:	480d      	ldr	r0, [pc, #52]	; (8001f5c <main+0x33c>)
 8001f26:	f004 f935 	bl	8006194 <HAL_TIM_Base_Start_IT>
			  break;
 8001f2a:	e06b      	b.n	8002004 <main+0x3e4>
 8001f2c:	2000019f 	.word	0x2000019f
 8001f30:	20000494 	.word	0x20000494
 8001f34:	0800acb0 	.word	0x0800acb0
 8001f38:	0800acdc 	.word	0x0800acdc
 8001f3c:	0800ad08 	.word	0x0800ad08
 8001f40:	0800ad38 	.word	0x0800ad38
 8001f44:	0800ad64 	.word	0x0800ad64
 8001f48:	0800ad7c 	.word	0x0800ad7c
 8001f4c:	0800ad8c 	.word	0x0800ad8c
 8001f50:	200003d0 	.word	0x200003d0
 8001f54:	0800ad90 	.word	0x0800ad90
 8001f58:	0800adac 	.word	0x0800adac
 8001f5c:	2000041c 	.word	0x2000041c
 8001f60:	20000002 	.word	0x20000002
 8001f64:	0800adc4 	.word	0x0800adc4
 8001f68:	20000000 	.word	0x20000000
 8001f6c:	2000019d 	.word	0x2000019d
 8001f70:	2000019e 	.word	0x2000019e
 8001f74:	0800add8 	.word	0x0800add8
 8001f78:	2000019c 	.word	0x2000019c
 8001f7c:	0800ade4 	.word	0x0800ade4
 8001f80:	200003ce 	.word	0x200003ce
 8001f84:	200003cd 	.word	0x200003cd
 8001f88:	200003cc 	.word	0x200003cc
 8001f8c:	200003cf 	.word	0x200003cf
 8001f90:	200001a4 	.word	0x200001a4

		  case 'D':				//habilita o deshabilita la carga dependiendo del estado anterior

			 if (loadOn == true){
 8001f94:	4b64      	ldr	r3, [pc, #400]	; (8002128 <main+0x508>)
 8001f96:	781b      	ldrb	r3, [r3, #0]
 8001f98:	b2db      	uxtb	r3, r3
 8001f9a:	2b00      	cmp	r3, #0
 8001f9c:	d009      	beq.n	8001fb2 <main+0x392>
				 loadOn = false;
 8001f9e:	4b62      	ldr	r3, [pc, #392]	; (8002128 <main+0x508>)
 8001fa0:	2200      	movs	r2, #0
 8001fa2:	701a      	strb	r2, [r3, #0]
				 usbSendString("Se Deshabilito La Salida\n\r");
 8001fa4:	4861      	ldr	r0, [pc, #388]	; (800212c <main+0x50c>)
 8001fa6:	f7fe ff16 	bl	8000dd6 <usbSendString>
				 usbSendString("\n\r");
 8001faa:	4861      	ldr	r0, [pc, #388]	; (8002130 <main+0x510>)
 8001fac:	f7fe ff13 	bl	8000dd6 <usbSendString>
 8001fb0:	e008      	b.n	8001fc4 <main+0x3a4>
			 }else{
				 loadOn = true;
 8001fb2:	4b5d      	ldr	r3, [pc, #372]	; (8002128 <main+0x508>)
 8001fb4:	2201      	movs	r2, #1
 8001fb6:	701a      	strb	r2, [r3, #0]
				 usbSendString("Se Habilito La Salida");
 8001fb8:	485e      	ldr	r0, [pc, #376]	; (8002134 <main+0x514>)
 8001fba:	f7fe ff0c 	bl	8000dd6 <usbSendString>
				 usbSendString("\n\r");
 8001fbe:	485c      	ldr	r0, [pc, #368]	; (8002130 <main+0x510>)
 8001fc0:	f7fe ff09 	bl	8000dd6 <usbSendString>
			 }

			  loadControl(loadOn);
 8001fc4:	4b58      	ldr	r3, [pc, #352]	; (8002128 <main+0x508>)
 8001fc6:	781b      	ldrb	r3, [r3, #0]
 8001fc8:	b2db      	uxtb	r3, r3
 8001fca:	4618      	mov	r0, r3
 8001fcc:	f7fe fe62 	bl	8000c94 <loadControl>
			  if (modo == CC || modo == TRAN){
 8001fd0:	7dfb      	ldrb	r3, [r7, #23]
 8001fd2:	2b01      	cmp	r3, #1
 8001fd4:	d002      	beq.n	8001fdc <main+0x3bc>
 8001fd6:	7dfb      	ldrb	r3, [r7, #23]
 8001fd8:	2b00      	cmp	r3, #0
 8001fda:	d102      	bne.n	8001fe2 <main+0x3c2>
				  estado = ADC_READ_CURRENT;
 8001fdc:	4b56      	ldr	r3, [pc, #344]	; (8002138 <main+0x518>)
 8001fde:	2203      	movs	r2, #3
 8001fe0:	701a      	strb	r2, [r3, #0]
			  }
			  newKeyPressed = false;
 8001fe2:	4b56      	ldr	r3, [pc, #344]	; (800213c <main+0x51c>)
 8001fe4:	2200      	movs	r2, #0
 8001fe6:	701a      	strb	r2, [r3, #0]
			  processing = false;
 8001fe8:	4b55      	ldr	r3, [pc, #340]	; (8002140 <main+0x520>)
 8001fea:	2200      	movs	r2, #0
 8001fec:	701a      	strb	r2, [r3, #0]
			  break;
 8001fee:	e009      	b.n	8002004 <main+0x3e4>

		  default:
			  HAL_TIM_Base_Stop_IT(&htim3);
 8001ff0:	4854      	ldr	r0, [pc, #336]	; (8002144 <main+0x524>)
 8001ff2:	f004 f921 	bl	8006238 <HAL_TIM_Base_Stop_IT>
			  estado = EDIT;
 8001ff6:	4b50      	ldr	r3, [pc, #320]	; (8002138 <main+0x518>)
 8001ff8:	2209      	movs	r2, #9
 8001ffa:	701a      	strb	r2, [r3, #0]
			  processing = false;
 8001ffc:	4b50      	ldr	r3, [pc, #320]	; (8002140 <main+0x520>)
 8001ffe:	2200      	movs	r2, #0
 8002000:	701a      	strb	r2, [r3, #0]
			  break;
 8002002:	bf00      	nop
		  }
		  break;
 8002004:	e08f      	b.n	8002126 <main+0x506>

	  case DAC_SET_CURRENT:
		  if (modo == CC){
 8002006:	7dfb      	ldrb	r3, [r7, #23]
 8002008:	2b01      	cmp	r3, #1
 800200a:	f040 808b 	bne.w	8002124 <main+0x504>

			  setDac(iSet+2);
 800200e:	4b4e      	ldr	r3, [pc, #312]	; (8002148 <main+0x528>)
 8002010:	681b      	ldr	r3, [r3, #0]
 8002012:	b29b      	uxth	r3, r3
 8002014:	3302      	adds	r3, #2
 8002016:	b29b      	uxth	r3, r3
 8002018:	4618      	mov	r0, r3
 800201a:	f7fe fc85 	bl	8000928 <setDac>
			  /*if (iSet <= 26214){
				  setDac(iSet+2);
			  }else{
				  setDac(iSet-28);
			  }*/
			  estado = ADC_READ_CURRENT;
 800201e:	4b46      	ldr	r3, [pc, #280]	; (8002138 <main+0x518>)
 8002020:	2203      	movs	r2, #3
 8002022:	701a      	strb	r2, [r3, #0]

		  }

		  break;
 8002024:	e07e      	b.n	8002124 <main+0x504>

	  case CALC_ISET:
		  usbSendString("Iset: ");
 8002026:	4849      	ldr	r0, [pc, #292]	; (800214c <main+0x52c>)
 8002028:	f7fe fed5 	bl	8000dd6 <usbSendString>
		  usbSendInt(iSet);
 800202c:	4b46      	ldr	r3, [pc, #280]	; (8002148 <main+0x528>)
 800202e:	681b      	ldr	r3, [r3, #0]
 8002030:	b29b      	uxth	r3, r3
 8002032:	4618      	mov	r0, r3
 8002034:	f7fe feba 	bl	8000dac <usbSendInt>
		  usbSendString(" mA  CODE: ");
 8002038:	4845      	ldr	r0, [pc, #276]	; (8002150 <main+0x530>)
 800203a:	f7fe fecc 	bl	8000dd6 <usbSendString>
		  if (estadoAnterior == KEYPAD_DECODE){
 800203e:	4b45      	ldr	r3, [pc, #276]	; (8002154 <main+0x534>)
 8002040:	781b      	ldrb	r3, [r3, #0]
 8002042:	b2db      	uxtb	r3, r3
 8002044:	2b07      	cmp	r3, #7
 8002046:	d126      	bne.n	8002096 <main+0x476>
			  if (iSet == 3000){
 8002048:	4b3f      	ldr	r3, [pc, #252]	; (8002148 <main+0x528>)
 800204a:	681b      	ldr	r3, [r3, #0]
 800204c:	f640 32b8 	movw	r2, #3000	; 0xbb8
 8002050:	4293      	cmp	r3, r2
 8002052:	d10a      	bne.n	800206a <main+0x44a>
				  iSet = 65533;
 8002054:	4b3c      	ldr	r3, [pc, #240]	; (8002148 <main+0x528>)
 8002056:	f64f 72fd 	movw	r2, #65533	; 0xfffd
 800205a:	601a      	str	r2, [r3, #0]
				  usbSendInt(iSet);
 800205c:	4b3a      	ldr	r3, [pc, #232]	; (8002148 <main+0x528>)
 800205e:	681b      	ldr	r3, [r3, #0]
 8002060:	b29b      	uxth	r3, r3
 8002062:	4618      	mov	r0, r3
 8002064:	f7fe fea2 	bl	8000dac <usbSendInt>
 8002068:	e012      	b.n	8002090 <main+0x470>
			  }else{
				  iSet = ((iSet*10)<<ESCALA)/ADC_LSB;
 800206a:	4b37      	ldr	r3, [pc, #220]	; (8002148 <main+0x528>)
 800206c:	681a      	ldr	r2, [r3, #0]
 800206e:	4613      	mov	r3, r2
 8002070:	009b      	lsls	r3, r3, #2
 8002072:	4413      	add	r3, r2
 8002074:	005b      	lsls	r3, r3, #1
 8002076:	041b      	lsls	r3, r3, #16
 8002078:	4a37      	ldr	r2, [pc, #220]	; (8002158 <main+0x538>)
 800207a:	fba2 2303 	umull	r2, r3, r2, r3
 800207e:	0b5b      	lsrs	r3, r3, #13
 8002080:	4a31      	ldr	r2, [pc, #196]	; (8002148 <main+0x528>)
 8002082:	6013      	str	r3, [r2, #0]
				  usbSendInt(iSet);
 8002084:	4b30      	ldr	r3, [pc, #192]	; (8002148 <main+0x528>)
 8002086:	681b      	ldr	r3, [r3, #0]
 8002088:	b29b      	uxth	r3, r3
 800208a:	4618      	mov	r0, r3
 800208c:	f7fe fe8e 	bl	8000dac <usbSendInt>
			  }
			  usbSendString("\n\r");
 8002090:	4827      	ldr	r0, [pc, #156]	; (8002130 <main+0x510>)
 8002092:	f7fe fea0 	bl	8000dd6 <usbSendString>
		  }
		  estado = DAC_SET_CURRENT;
 8002096:	4b28      	ldr	r3, [pc, #160]	; (8002138 <main+0x518>)
 8002098:	2206      	movs	r2, #6
 800209a:	701a      	strb	r2, [r3, #0]
		  break;
 800209c:	e043      	b.n	8002126 <main+0x506>

	  case LCD_UPDATE:
		  updateMeas(iRead, modo);
 800209e:	893b      	ldrh	r3, [r7, #8]
 80020a0:	7dfa      	ldrb	r2, [r7, #23]
 80020a2:	4611      	mov	r1, r2
 80020a4:	4618      	mov	r0, r3
 80020a6:	f7fe fd8f 	bl	8000bc8 <updateMeas>
		  HAL_TIM_Base_Start_IT(&htim3);
 80020aa:	4826      	ldr	r0, [pc, #152]	; (8002144 <main+0x524>)
 80020ac:	f004 f872 	bl	8006194 <HAL_TIM_Base_Start_IT>
		  if (estadoAnterior == LCD_UPDATE){
 80020b0:	4b28      	ldr	r3, [pc, #160]	; (8002154 <main+0x534>)
 80020b2:	781b      	ldrb	r3, [r3, #0]
 80020b4:	b2db      	uxtb	r3, r3
 80020b6:	2b05      	cmp	r3, #5
 80020b8:	d103      	bne.n	80020c2 <main+0x4a2>
			  estado = ADC_READ_CURRENT;
 80020ba:	4b1f      	ldr	r3, [pc, #124]	; (8002138 <main+0x518>)
 80020bc:	2203      	movs	r2, #3
 80020be:	701a      	strb	r2, [r3, #0]
		  }else{
			  estado = estadoAnterior;
		  }

		  break;
 80020c0:	e031      	b.n	8002126 <main+0x506>
			  estado = estadoAnterior;
 80020c2:	4b24      	ldr	r3, [pc, #144]	; (8002154 <main+0x534>)
 80020c4:	781b      	ldrb	r3, [r3, #0]
 80020c6:	b2da      	uxtb	r2, r3
 80020c8:	4b1b      	ldr	r3, [pc, #108]	; (8002138 <main+0x518>)
 80020ca:	701a      	strb	r2, [r3, #0]
		  break;
 80020cc:	e02b      	b.n	8002126 <main+0x506>

	  case EDIT:
		  HAL_TIM_Base_Stop_IT(&htim3);
 80020ce:	481d      	ldr	r0, [pc, #116]	; (8002144 <main+0x524>)
 80020d0:	f004 f8b2 	bl	8006238 <HAL_TIM_Base_Stop_IT>

		  if (newKeyPressed){
 80020d4:	4b19      	ldr	r3, [pc, #100]	; (800213c <main+0x51c>)
 80020d6:	781b      	ldrb	r3, [r3, #0]
 80020d8:	b2db      	uxtb	r3, r3
 80020da:	2b00      	cmp	r3, #0
 80020dc:	d00a      	beq.n	80020f4 <main+0x4d4>
			  editKeysHandle(tecla, modo);
 80020de:	4b1f      	ldr	r3, [pc, #124]	; (800215c <main+0x53c>)
 80020e0:	781b      	ldrb	r3, [r3, #0]
 80020e2:	b2db      	uxtb	r3, r3
 80020e4:	7dfa      	ldrb	r2, [r7, #23]
 80020e6:	4611      	mov	r1, r2
 80020e8:	4618      	mov	r0, r3
 80020ea:	f7fe fea7 	bl	8000e3c <editKeysHandle>
			  newKeyPressed = false;
 80020ee:	4b13      	ldr	r3, [pc, #76]	; (800213c <main+0x51c>)
 80020f0:	2200      	movs	r2, #0
 80020f2:	701a      	strb	r2, [r3, #0]
		  }
		  if (isEncoder){
 80020f4:	4b1a      	ldr	r3, [pc, #104]	; (8002160 <main+0x540>)
 80020f6:	781b      	ldrb	r3, [r3, #0]
 80020f8:	b2db      	uxtb	r3, r3
 80020fa:	2b00      	cmp	r3, #0
 80020fc:	d00c      	beq.n	8002118 <main+0x4f8>
			  lcdCursorON();
 80020fe:	f7ff fc30 	bl	8001962 <lcdCursorON>
			  cursorMove(modo, false, isEncoder);
 8002102:	4b17      	ldr	r3, [pc, #92]	; (8002160 <main+0x540>)
 8002104:	781b      	ldrb	r3, [r3, #0]
 8002106:	b2da      	uxtb	r2, r3
 8002108:	7dfb      	ldrb	r3, [r7, #23]
 800210a:	2100      	movs	r1, #0
 800210c:	4618      	mov	r0, r3
 800210e:	f7fe ff11 	bl	8000f34 <cursorMove>
			  isEncoder = false;
 8002112:	4b13      	ldr	r3, [pc, #76]	; (8002160 <main+0x540>)
 8002114:	2200      	movs	r2, #0
 8002116:	701a      	strb	r2, [r3, #0]

		  }
		  estadoAnterior = EDIT;
 8002118:	4b0e      	ldr	r3, [pc, #56]	; (8002154 <main+0x534>)
 800211a:	2209      	movs	r2, #9
 800211c:	701a      	strb	r2, [r3, #0]
		  break;
 800211e:	e002      	b.n	8002126 <main+0x506>
		  break;
 8002120:	bf00      	nop
 8002122:	e5bc      	b.n	8001c9e <main+0x7e>
		  break;
 8002124:	bf00      	nop
	  switch (estado){
 8002126:	e5ba      	b.n	8001c9e <main+0x7e>
 8002128:	2000019d 	.word	0x2000019d
 800212c:	0800adf0 	.word	0x0800adf0
 8002130:	0800ad8c 	.word	0x0800ad8c
 8002134:	0800ae0c 	.word	0x0800ae0c
 8002138:	2000019f 	.word	0x2000019f
 800213c:	2000019e 	.word	0x2000019e
 8002140:	2000019c 	.word	0x2000019c
 8002144:	2000041c 	.word	0x2000041c
 8002148:	200001a4 	.word	0x200001a4
 800214c:	0800ae24 	.word	0x0800ae24
 8002150:	0800ae2c 	.word	0x0800ae2c
 8002154:	20000494 	.word	0x20000494
 8002158:	45e7b273 	.word	0x45e7b273
 800215c:	20000000 	.word	0x20000000
 8002160:	200001a1 	.word	0x200001a1

08002164 <SystemClock_Config>:
/**
  * @brief System Clock Configuration
  * @retval None
  */
void SystemClock_Config(void)
{
 8002164:	b580      	push	{r7, lr}
 8002166:	b094      	sub	sp, #80	; 0x50
 8002168:	af00      	add	r7, sp, #0
  RCC_OscInitTypeDef RCC_OscInitStruct = {0};
 800216a:	f107 0328 	add.w	r3, r7, #40	; 0x28
 800216e:	2228      	movs	r2, #40	; 0x28
 8002170:	2100      	movs	r1, #0
 8002172:	4618      	mov	r0, r3
 8002174:	f008 fce4 	bl	800ab40 <memset>
  RCC_ClkInitTypeDef RCC_ClkInitStruct = {0};
 8002178:	f107 0314 	add.w	r3, r7, #20
 800217c:	2200      	movs	r2, #0
 800217e:	601a      	str	r2, [r3, #0]
 8002180:	605a      	str	r2, [r3, #4]
 8002182:	609a      	str	r2, [r3, #8]
 8002184:	60da      	str	r2, [r3, #12]
 8002186:	611a      	str	r2, [r3, #16]
  RCC_PeriphCLKInitTypeDef PeriphClkInit = {0};
 8002188:	1d3b      	adds	r3, r7, #4
 800218a:	2200      	movs	r2, #0
 800218c:	601a      	str	r2, [r3, #0]
 800218e:	605a      	str	r2, [r3, #4]
 8002190:	609a      	str	r2, [r3, #8]
 8002192:	60da      	str	r2, [r3, #12]

  /** Initializes the RCC Oscillators according to the specified parameters
  * in the RCC_OscInitTypeDef structure.
  */
  RCC_OscInitStruct.OscillatorType = RCC_OSCILLATORTYPE_HSE;
 8002194:	2301      	movs	r3, #1
 8002196:	62bb      	str	r3, [r7, #40]	; 0x28
  RCC_OscInitStruct.HSEState = RCC_HSE_ON;
 8002198:	f44f 3380 	mov.w	r3, #65536	; 0x10000
 800219c:	62fb      	str	r3, [r7, #44]	; 0x2c
  RCC_OscInitStruct.HSEPredivValue = RCC_HSE_PREDIV_DIV1;
 800219e:	2300      	movs	r3, #0
 80021a0:	633b      	str	r3, [r7, #48]	; 0x30
  RCC_OscInitStruct.HSIState = RCC_HSI_ON;
 80021a2:	2301      	movs	r3, #1
 80021a4:	63bb      	str	r3, [r7, #56]	; 0x38
  RCC_OscInitStruct.PLL.PLLState = RCC_PLL_ON;
 80021a6:	2302      	movs	r3, #2
 80021a8:	647b      	str	r3, [r7, #68]	; 0x44
  RCC_OscInitStruct.PLL.PLLSource = RCC_PLLSOURCE_HSE;
 80021aa:	f44f 3380 	mov.w	r3, #65536	; 0x10000
 80021ae:	64bb      	str	r3, [r7, #72]	; 0x48
  RCC_OscInitStruct.PLL.PLLMUL = RCC_PLL_MUL9;
 80021b0:	f44f 13e0 	mov.w	r3, #1835008	; 0x1c0000
 80021b4:	64fb      	str	r3, [r7, #76]	; 0x4c
  if (HAL_RCC_OscConfig(&RCC_OscInitStruct) != HAL_OK)
 80021b6:	f107 0328 	add.w	r3, r7, #40	; 0x28
 80021ba:	4618      	mov	r0, r3
 80021bc:	f002 feaa 	bl	8004f14 <HAL_RCC_OscConfig>
 80021c0:	4603      	mov	r3, r0
 80021c2:	2b00      	cmp	r3, #0
 80021c4:	d001      	beq.n	80021ca <SystemClock_Config+0x66>
  {
    Error_Handler();
 80021c6:	f000 fbb5 	bl	8002934 <Error_Handler>
  }
  /** Initializes the CPU, AHB and APB buses clocks
  */
  RCC_ClkInitStruct.ClockType = RCC_CLOCKTYPE_HCLK|RCC_CLOCKTYPE_SYSCLK
 80021ca:	230f      	movs	r3, #15
 80021cc:	617b      	str	r3, [r7, #20]
                              |RCC_CLOCKTYPE_PCLK1|RCC_CLOCKTYPE_PCLK2;
  RCC_ClkInitStruct.SYSCLKSource = RCC_SYSCLKSOURCE_PLLCLK;
 80021ce:	2302      	movs	r3, #2
 80021d0:	61bb      	str	r3, [r7, #24]
  RCC_ClkInitStruct.AHBCLKDivider = RCC_SYSCLK_DIV1;
 80021d2:	2300      	movs	r3, #0
 80021d4:	61fb      	str	r3, [r7, #28]
  RCC_ClkInitStruct.APB1CLKDivider = RCC_HCLK_DIV2;
 80021d6:	f44f 6380 	mov.w	r3, #1024	; 0x400
 80021da:	623b      	str	r3, [r7, #32]
  RCC_ClkInitStruct.APB2CLKDivider = RCC_HCLK_DIV1;
 80021dc:	2300      	movs	r3, #0
 80021de:	627b      	str	r3, [r7, #36]	; 0x24

  if (HAL_RCC_ClockConfig(&RCC_ClkInitStruct, FLASH_LATENCY_2) != HAL_OK)
 80021e0:	f107 0314 	add.w	r3, r7, #20
 80021e4:	2102      	movs	r1, #2
 80021e6:	4618      	mov	r0, r3
 80021e8:	f003 f914 	bl	8005414 <HAL_RCC_ClockConfig>
 80021ec:	4603      	mov	r3, r0
 80021ee:	2b00      	cmp	r3, #0
 80021f0:	d001      	beq.n	80021f6 <SystemClock_Config+0x92>
  {
    Error_Handler();
 80021f2:	f000 fb9f 	bl	8002934 <Error_Handler>
  }
  PeriphClkInit.PeriphClockSelection = RCC_PERIPHCLK_ADC|RCC_PERIPHCLK_USB;
 80021f6:	2312      	movs	r3, #18
 80021f8:	607b      	str	r3, [r7, #4]
  PeriphClkInit.AdcClockSelection = RCC_ADCPCLK2_DIV6;
 80021fa:	f44f 4300 	mov.w	r3, #32768	; 0x8000
 80021fe:	60fb      	str	r3, [r7, #12]
  PeriphClkInit.UsbClockSelection = RCC_USBCLKSOURCE_PLL_DIV1_5;
 8002200:	2300      	movs	r3, #0
 8002202:	613b      	str	r3, [r7, #16]
  if (HAL_RCCEx_PeriphCLKConfig(&PeriphClkInit) != HAL_OK)
 8002204:	1d3b      	adds	r3, r7, #4
 8002206:	4618      	mov	r0, r3
 8002208:	f003 fa6c 	bl	80056e4 <HAL_RCCEx_PeriphCLKConfig>
 800220c:	4603      	mov	r3, r0
 800220e:	2b00      	cmp	r3, #0
 8002210:	d001      	beq.n	8002216 <SystemClock_Config+0xb2>
  {
    Error_Handler();
 8002212:	f000 fb8f 	bl	8002934 <Error_Handler>
  }
}
 8002216:	bf00      	nop
 8002218:	3750      	adds	r7, #80	; 0x50
 800221a:	46bd      	mov	sp, r7
 800221c:	bd80      	pop	{r7, pc}
	...

08002220 <MX_ADC1_Init>:
  * @brief ADC1 Initialization Function
  * @param None
  * @retval None
  */
static void MX_ADC1_Init(void)
{
 8002220:	b580      	push	{r7, lr}
 8002222:	b084      	sub	sp, #16
 8002224:	af00      	add	r7, sp, #0

  /* USER CODE BEGIN ADC1_Init 0 */

  /* USER CODE END ADC1_Init 0 */

  ADC_ChannelConfTypeDef sConfig = {0};
 8002226:	1d3b      	adds	r3, r7, #4
 8002228:	2200      	movs	r2, #0
 800222a:	601a      	str	r2, [r3, #0]
 800222c:	605a      	str	r2, [r3, #4]
 800222e:	609a      	str	r2, [r3, #8]
  /* USER CODE BEGIN ADC1_Init 1 */

  /* USER CODE END ADC1_Init 1 */
  /** Common config
  */
  hadc1.Instance = ADC1;
 8002230:	4b18      	ldr	r3, [pc, #96]	; (8002294 <MX_ADC1_Init+0x74>)
 8002232:	4a19      	ldr	r2, [pc, #100]	; (8002298 <MX_ADC1_Init+0x78>)
 8002234:	601a      	str	r2, [r3, #0]
  hadc1.Init.ScanConvMode = ADC_SCAN_DISABLE;
 8002236:	4b17      	ldr	r3, [pc, #92]	; (8002294 <MX_ADC1_Init+0x74>)
 8002238:	2200      	movs	r2, #0
 800223a:	609a      	str	r2, [r3, #8]
  hadc1.Init.ContinuousConvMode = DISABLE;
 800223c:	4b15      	ldr	r3, [pc, #84]	; (8002294 <MX_ADC1_Init+0x74>)
 800223e:	2200      	movs	r2, #0
 8002240:	731a      	strb	r2, [r3, #12]
  hadc1.Init.DiscontinuousConvMode = DISABLE;
 8002242:	4b14      	ldr	r3, [pc, #80]	; (8002294 <MX_ADC1_Init+0x74>)
 8002244:	2200      	movs	r2, #0
 8002246:	751a      	strb	r2, [r3, #20]
  hadc1.Init.ExternalTrigConv = ADC_SOFTWARE_START;
 8002248:	4b12      	ldr	r3, [pc, #72]	; (8002294 <MX_ADC1_Init+0x74>)
 800224a:	f44f 2260 	mov.w	r2, #917504	; 0xe0000
 800224e:	61da      	str	r2, [r3, #28]
  hadc1.Init.DataAlign = ADC_DATAALIGN_RIGHT;
 8002250:	4b10      	ldr	r3, [pc, #64]	; (8002294 <MX_ADC1_Init+0x74>)
 8002252:	2200      	movs	r2, #0
 8002254:	605a      	str	r2, [r3, #4]
  hadc1.Init.NbrOfConversion = 1;
 8002256:	4b0f      	ldr	r3, [pc, #60]	; (8002294 <MX_ADC1_Init+0x74>)
 8002258:	2201      	movs	r2, #1
 800225a:	611a      	str	r2, [r3, #16]
  if (HAL_ADC_Init(&hadc1) != HAL_OK)
 800225c:	480d      	ldr	r0, [pc, #52]	; (8002294 <MX_ADC1_Init+0x74>)
 800225e:	f000 fdb1 	bl	8002dc4 <HAL_ADC_Init>
 8002262:	4603      	mov	r3, r0
 8002264:	2b00      	cmp	r3, #0
 8002266:	d001      	beq.n	800226c <MX_ADC1_Init+0x4c>
  {
    Error_Handler();
 8002268:	f000 fb64 	bl	8002934 <Error_Handler>
  }
  /** Configure Regular Channel
  */
  sConfig.Channel = ADC_CHANNEL_0;
 800226c:	2300      	movs	r3, #0
 800226e:	607b      	str	r3, [r7, #4]
  sConfig.Rank = ADC_REGULAR_RANK_1;
 8002270:	2301      	movs	r3, #1
 8002272:	60bb      	str	r3, [r7, #8]
  sConfig.SamplingTime = ADC_SAMPLETIME_1CYCLE_5;
 8002274:	2300      	movs	r3, #0
 8002276:	60fb      	str	r3, [r7, #12]
  if (HAL_ADC_ConfigChannel(&hadc1, &sConfig) != HAL_OK)
 8002278:	1d3b      	adds	r3, r7, #4
 800227a:	4619      	mov	r1, r3
 800227c:	4805      	ldr	r0, [pc, #20]	; (8002294 <MX_ADC1_Init+0x74>)
 800227e:	f000 fe79 	bl	8002f74 <HAL_ADC_ConfigChannel>
 8002282:	4603      	mov	r3, r0
 8002284:	2b00      	cmp	r3, #0
 8002286:	d001      	beq.n	800228c <MX_ADC1_Init+0x6c>
  {
    Error_Handler();
 8002288:	f000 fb54 	bl	8002934 <Error_Handler>
  }
  /* USER CODE BEGIN ADC1_Init 2 */

  /* USER CODE END ADC1_Init 2 */

}
 800228c:	bf00      	nop
 800228e:	3710      	adds	r7, #16
 8002290:	46bd      	mov	sp, r7
 8002292:	bd80      	pop	{r7, pc}
 8002294:	20000464 	.word	0x20000464
 8002298:	40012400 	.word	0x40012400

0800229c <MX_SPI1_Init>:
  * @brief SPI1 Initialization Function
  * @param None
  * @retval None
  */
static void MX_SPI1_Init(void)
{
 800229c:	b580      	push	{r7, lr}
 800229e:	af00      	add	r7, sp, #0

  /* USER CODE BEGIN SPI1_Init 1 */

  /* USER CODE END SPI1_Init 1 */
  /* SPI1 parameter configuration*/
  hspi1.Instance = SPI1;
 80022a0:	4b18      	ldr	r3, [pc, #96]	; (8002304 <MX_SPI1_Init+0x68>)
 80022a2:	4a19      	ldr	r2, [pc, #100]	; (8002308 <MX_SPI1_Init+0x6c>)
 80022a4:	601a      	str	r2, [r3, #0]
  hspi1.Init.Mode = SPI_MODE_MASTER;
 80022a6:	4b17      	ldr	r3, [pc, #92]	; (8002304 <MX_SPI1_Init+0x68>)
 80022a8:	f44f 7282 	mov.w	r2, #260	; 0x104
 80022ac:	605a      	str	r2, [r3, #4]
  hspi1.Init.Direction = SPI_DIRECTION_2LINES;
 80022ae:	4b15      	ldr	r3, [pc, #84]	; (8002304 <MX_SPI1_Init+0x68>)
 80022b0:	2200      	movs	r2, #0
 80022b2:	609a      	str	r2, [r3, #8]
  hspi1.Init.DataSize = SPI_DATASIZE_16BIT;
 80022b4:	4b13      	ldr	r3, [pc, #76]	; (8002304 <MX_SPI1_Init+0x68>)
 80022b6:	f44f 6200 	mov.w	r2, #2048	; 0x800
 80022ba:	60da      	str	r2, [r3, #12]
  hspi1.Init.CLKPolarity = SPI_POLARITY_LOW;
 80022bc:	4b11      	ldr	r3, [pc, #68]	; (8002304 <MX_SPI1_Init+0x68>)
 80022be:	2200      	movs	r2, #0
 80022c0:	611a      	str	r2, [r3, #16]
  hspi1.Init.CLKPhase = SPI_PHASE_1EDGE;
 80022c2:	4b10      	ldr	r3, [pc, #64]	; (8002304 <MX_SPI1_Init+0x68>)
 80022c4:	2200      	movs	r2, #0
 80022c6:	615a      	str	r2, [r3, #20]
  hspi1.Init.NSS = SPI_NSS_SOFT;
 80022c8:	4b0e      	ldr	r3, [pc, #56]	; (8002304 <MX_SPI1_Init+0x68>)
 80022ca:	f44f 7200 	mov.w	r2, #512	; 0x200
 80022ce:	619a      	str	r2, [r3, #24]
  hspi1.Init.BaudRatePrescaler = SPI_BAUDRATEPRESCALER_64;
 80022d0:	4b0c      	ldr	r3, [pc, #48]	; (8002304 <MX_SPI1_Init+0x68>)
 80022d2:	2228      	movs	r2, #40	; 0x28
 80022d4:	61da      	str	r2, [r3, #28]
  hspi1.Init.FirstBit = SPI_FIRSTBIT_MSB;
 80022d6:	4b0b      	ldr	r3, [pc, #44]	; (8002304 <MX_SPI1_Init+0x68>)
 80022d8:	2200      	movs	r2, #0
 80022da:	621a      	str	r2, [r3, #32]
  hspi1.Init.TIMode = SPI_TIMODE_DISABLE;
 80022dc:	4b09      	ldr	r3, [pc, #36]	; (8002304 <MX_SPI1_Init+0x68>)
 80022de:	2200      	movs	r2, #0
 80022e0:	625a      	str	r2, [r3, #36]	; 0x24
  hspi1.Init.CRCCalculation = SPI_CRCCALCULATION_DISABLE;
 80022e2:	4b08      	ldr	r3, [pc, #32]	; (8002304 <MX_SPI1_Init+0x68>)
 80022e4:	2200      	movs	r2, #0
 80022e6:	629a      	str	r2, [r3, #40]	; 0x28
  hspi1.Init.CRCPolynomial = 10;
 80022e8:	4b06      	ldr	r3, [pc, #24]	; (8002304 <MX_SPI1_Init+0x68>)
 80022ea:	220a      	movs	r2, #10
 80022ec:	62da      	str	r2, [r3, #44]	; 0x2c
  if (HAL_SPI_Init(&hspi1) != HAL_OK)
 80022ee:	4805      	ldr	r0, [pc, #20]	; (8002304 <MX_SPI1_Init+0x68>)
 80022f0:	f003 faae 	bl	8005850 <HAL_SPI_Init>
 80022f4:	4603      	mov	r3, r0
 80022f6:	2b00      	cmp	r3, #0
 80022f8:	d001      	beq.n	80022fe <MX_SPI1_Init+0x62>
  {
    Error_Handler();
 80022fa:	f000 fb1b 	bl	8002934 <Error_Handler>
  }
  /* USER CODE BEGIN SPI1_Init 2 */

  /* USER CODE END SPI1_Init 2 */

}
 80022fe:	bf00      	nop
 8002300:	bd80      	pop	{r7, pc}
 8002302:	bf00      	nop
 8002304:	200004e0 	.word	0x200004e0
 8002308:	40013000 	.word	0x40013000

0800230c <MX_TIM1_Init>:
  * @brief TIM1 Initialization Function
  * @param None
  * @retval None
  */
static void MX_TIM1_Init(void)
{
 800230c:	b580      	push	{r7, lr}
 800230e:	b086      	sub	sp, #24
 8002310:	af00      	add	r7, sp, #0

  /* USER CODE BEGIN TIM1_Init 0 */

  /* USER CODE END TIM1_Init 0 */

  TIM_ClockConfigTypeDef sClockSourceConfig = {0};
 8002312:	f107 0308 	add.w	r3, r7, #8
 8002316:	2200      	movs	r2, #0
 8002318:	601a      	str	r2, [r3, #0]
 800231a:	605a      	str	r2, [r3, #4]
 800231c:	609a      	str	r2, [r3, #8]
 800231e:	60da      	str	r2, [r3, #12]
  TIM_MasterConfigTypeDef sMasterConfig = {0};
 8002320:	463b      	mov	r3, r7
 8002322:	2200      	movs	r2, #0
 8002324:	601a      	str	r2, [r3, #0]
 8002326:	605a      	str	r2, [r3, #4]

  /* USER CODE BEGIN TIM1_Init 1 */

  /* USER CODE END TIM1_Init 1 */
  htim1.Instance = TIM1;
 8002328:	4b1e      	ldr	r3, [pc, #120]	; (80023a4 <MX_TIM1_Init+0x98>)
 800232a:	4a1f      	ldr	r2, [pc, #124]	; (80023a8 <MX_TIM1_Init+0x9c>)
 800232c:	601a      	str	r2, [r3, #0]
  htim1.Init.Prescaler = 72-1;
 800232e:	4b1d      	ldr	r3, [pc, #116]	; (80023a4 <MX_TIM1_Init+0x98>)
 8002330:	2247      	movs	r2, #71	; 0x47
 8002332:	605a      	str	r2, [r3, #4]
  htim1.Init.CounterMode = TIM_COUNTERMODE_UP;
 8002334:	4b1b      	ldr	r3, [pc, #108]	; (80023a4 <MX_TIM1_Init+0x98>)
 8002336:	2200      	movs	r2, #0
 8002338:	609a      	str	r2, [r3, #8]
  htim1.Init.Period = 65535;
 800233a:	4b1a      	ldr	r3, [pc, #104]	; (80023a4 <MX_TIM1_Init+0x98>)
 800233c:	f64f 72ff 	movw	r2, #65535	; 0xffff
 8002340:	60da      	str	r2, [r3, #12]
  htim1.Init.ClockDivision = TIM_CLOCKDIVISION_DIV1;
 8002342:	4b18      	ldr	r3, [pc, #96]	; (80023a4 <MX_TIM1_Init+0x98>)
 8002344:	2200      	movs	r2, #0
 8002346:	611a      	str	r2, [r3, #16]
  htim1.Init.RepetitionCounter = 0;
 8002348:	4b16      	ldr	r3, [pc, #88]	; (80023a4 <MX_TIM1_Init+0x98>)
 800234a:	2200      	movs	r2, #0
 800234c:	615a      	str	r2, [r3, #20]
  htim1.Init.AutoReloadPreload = TIM_AUTORELOAD_PRELOAD_ENABLE;
 800234e:	4b15      	ldr	r3, [pc, #84]	; (80023a4 <MX_TIM1_Init+0x98>)
 8002350:	2280      	movs	r2, #128	; 0x80
 8002352:	619a      	str	r2, [r3, #24]
  if (HAL_TIM_Base_Init(&htim1) != HAL_OK)
 8002354:	4813      	ldr	r0, [pc, #76]	; (80023a4 <MX_TIM1_Init+0x98>)
 8002356:	f003 fe83 	bl	8006060 <HAL_TIM_Base_Init>
 800235a:	4603      	mov	r3, r0
 800235c:	2b00      	cmp	r3, #0
 800235e:	d001      	beq.n	8002364 <MX_TIM1_Init+0x58>
  {
    Error_Handler();
 8002360:	f000 fae8 	bl	8002934 <Error_Handler>
  }
  sClockSourceConfig.ClockSource = TIM_CLOCKSOURCE_INTERNAL;
 8002364:	f44f 5380 	mov.w	r3, #4096	; 0x1000
 8002368:	60bb      	str	r3, [r7, #8]
  if (HAL_TIM_ConfigClockSource(&htim1, &sClockSourceConfig) != HAL_OK)
 800236a:	f107 0308 	add.w	r3, r7, #8
 800236e:	4619      	mov	r1, r3
 8002370:	480c      	ldr	r0, [pc, #48]	; (80023a4 <MX_TIM1_Init+0x98>)
 8002372:	f004 f897 	bl	80064a4 <HAL_TIM_ConfigClockSource>
 8002376:	4603      	mov	r3, r0
 8002378:	2b00      	cmp	r3, #0
 800237a:	d001      	beq.n	8002380 <MX_TIM1_Init+0x74>
  {
    Error_Handler();
 800237c:	f000 fada 	bl	8002934 <Error_Handler>
  }
  sMasterConfig.MasterOutputTrigger = TIM_TRGO_RESET;
 8002380:	2300      	movs	r3, #0
 8002382:	603b      	str	r3, [r7, #0]
  sMasterConfig.MasterSlaveMode = TIM_MASTERSLAVEMODE_DISABLE;
 8002384:	2300      	movs	r3, #0
 8002386:	607b      	str	r3, [r7, #4]
  if (HAL_TIMEx_MasterConfigSynchronization(&htim1, &sMasterConfig) != HAL_OK)
 8002388:	463b      	mov	r3, r7
 800238a:	4619      	mov	r1, r3
 800238c:	4805      	ldr	r0, [pc, #20]	; (80023a4 <MX_TIM1_Init+0x98>)
 800238e:	f004 fa69 	bl	8006864 <HAL_TIMEx_MasterConfigSynchronization>
 8002392:	4603      	mov	r3, r0
 8002394:	2b00      	cmp	r3, #0
 8002396:	d001      	beq.n	800239c <MX_TIM1_Init+0x90>
  {
    Error_Handler();
 8002398:	f000 facc 	bl	8002934 <Error_Handler>
  }
  /* USER CODE BEGIN TIM1_Init 2 */

  /* USER CODE END TIM1_Init 2 */

}
 800239c:	bf00      	nop
 800239e:	3718      	adds	r7, #24
 80023a0:	46bd      	mov	sp, r7
 80023a2:	bd80      	pop	{r7, pc}
 80023a4:	20000498 	.word	0x20000498
 80023a8:	40012c00 	.word	0x40012c00

080023ac <MX_TIM2_Init>:
  * @brief TIM2 Initialization Function
  * @param None
  * @retval None
  */
static void MX_TIM2_Init(void)
{
 80023ac:	b580      	push	{r7, lr}
 80023ae:	b086      	sub	sp, #24
 80023b0:	af00      	add	r7, sp, #0

  /* USER CODE BEGIN TIM2_Init 0 */

  /* USER CODE END TIM2_Init 0 */

  TIM_ClockConfigTypeDef sClockSourceConfig = {0};
 80023b2:	f107 0308 	add.w	r3, r7, #8
 80023b6:	2200      	movs	r2, #0
 80023b8:	601a      	str	r2, [r3, #0]
 80023ba:	605a      	str	r2, [r3, #4]
 80023bc:	609a      	str	r2, [r3, #8]
 80023be:	60da      	str	r2, [r3, #12]
  TIM_MasterConfigTypeDef sMasterConfig = {0};
 80023c0:	463b      	mov	r3, r7
 80023c2:	2200      	movs	r2, #0
 80023c4:	601a      	str	r2, [r3, #0]
 80023c6:	605a      	str	r2, [r3, #4]

  /* USER CODE BEGIN TIM2_Init 1 */

  /* USER CODE END TIM2_Init 1 */
  htim2.Instance = TIM2;
 80023c8:	4b1d      	ldr	r3, [pc, #116]	; (8002440 <MX_TIM2_Init+0x94>)
 80023ca:	f04f 4280 	mov.w	r2, #1073741824	; 0x40000000
 80023ce:	601a      	str	r2, [r3, #0]
  htim2.Init.Prescaler = 100-1;
 80023d0:	4b1b      	ldr	r3, [pc, #108]	; (8002440 <MX_TIM2_Init+0x94>)
 80023d2:	2263      	movs	r2, #99	; 0x63
 80023d4:	605a      	str	r2, [r3, #4]
  htim2.Init.CounterMode = TIM_COUNTERMODE_UP;
 80023d6:	4b1a      	ldr	r3, [pc, #104]	; (8002440 <MX_TIM2_Init+0x94>)
 80023d8:	2200      	movs	r2, #0
 80023da:	609a      	str	r2, [r3, #8]
  htim2.Init.Period = 10800-1;
 80023dc:	4b18      	ldr	r3, [pc, #96]	; (8002440 <MX_TIM2_Init+0x94>)
 80023de:	f642 222f 	movw	r2, #10799	; 0x2a2f
 80023e2:	60da      	str	r2, [r3, #12]
  htim2.Init.ClockDivision = TIM_CLOCKDIVISION_DIV1;
 80023e4:	4b16      	ldr	r3, [pc, #88]	; (8002440 <MX_TIM2_Init+0x94>)
 80023e6:	2200      	movs	r2, #0
 80023e8:	611a      	str	r2, [r3, #16]
  htim2.Init.AutoReloadPreload = TIM_AUTORELOAD_PRELOAD_DISABLE;
 80023ea:	4b15      	ldr	r3, [pc, #84]	; (8002440 <MX_TIM2_Init+0x94>)
 80023ec:	2200      	movs	r2, #0
 80023ee:	619a      	str	r2, [r3, #24]
  if (HAL_TIM_Base_Init(&htim2) != HAL_OK)
 80023f0:	4813      	ldr	r0, [pc, #76]	; (8002440 <MX_TIM2_Init+0x94>)
 80023f2:	f003 fe35 	bl	8006060 <HAL_TIM_Base_Init>
 80023f6:	4603      	mov	r3, r0
 80023f8:	2b00      	cmp	r3, #0
 80023fa:	d001      	beq.n	8002400 <MX_TIM2_Init+0x54>
  {
    Error_Handler();
 80023fc:	f000 fa9a 	bl	8002934 <Error_Handler>
  }
  sClockSourceConfig.ClockSource = TIM_CLOCKSOURCE_INTERNAL;
 8002400:	f44f 5380 	mov.w	r3, #4096	; 0x1000
 8002404:	60bb      	str	r3, [r7, #8]
  if (HAL_TIM_ConfigClockSource(&htim2, &sClockSourceConfig) != HAL_OK)
 8002406:	f107 0308 	add.w	r3, r7, #8
 800240a:	4619      	mov	r1, r3
 800240c:	480c      	ldr	r0, [pc, #48]	; (8002440 <MX_TIM2_Init+0x94>)
 800240e:	f004 f849 	bl	80064a4 <HAL_TIM_ConfigClockSource>
 8002412:	4603      	mov	r3, r0
 8002414:	2b00      	cmp	r3, #0
 8002416:	d001      	beq.n	800241c <MX_TIM2_Init+0x70>
  {
    Error_Handler();
 8002418:	f000 fa8c 	bl	8002934 <Error_Handler>
  }
  sMasterConfig.MasterOutputTrigger = TIM_TRGO_RESET;
 800241c:	2300      	movs	r3, #0
 800241e:	603b      	str	r3, [r7, #0]
  sMasterConfig.MasterSlaveMode = TIM_MASTERSLAVEMODE_DISABLE;
 8002420:	2300      	movs	r3, #0
 8002422:	607b      	str	r3, [r7, #4]
  if (HAL_TIMEx_MasterConfigSynchronization(&htim2, &sMasterConfig) != HAL_OK)
 8002424:	463b      	mov	r3, r7
 8002426:	4619      	mov	r1, r3
 8002428:	4805      	ldr	r0, [pc, #20]	; (8002440 <MX_TIM2_Init+0x94>)
 800242a:	f004 fa1b 	bl	8006864 <HAL_TIMEx_MasterConfigSynchronization>
 800242e:	4603      	mov	r3, r0
 8002430:	2b00      	cmp	r3, #0
 8002432:	d001      	beq.n	8002438 <MX_TIM2_Init+0x8c>
  {
    Error_Handler();
 8002434:	f000 fa7e 	bl	8002934 <Error_Handler>
  }
  /* USER CODE BEGIN TIM2_Init 2 */

  /* USER CODE END TIM2_Init 2 */

}
 8002438:	bf00      	nop
 800243a:	3718      	adds	r7, #24
 800243c:	46bd      	mov	sp, r7
 800243e:	bd80      	pop	{r7, pc}
 8002440:	20000538 	.word	0x20000538

08002444 <MX_TIM3_Init>:
  * @brief TIM3 Initialization Function
  * @param None
  * @retval None
  */
static void MX_TIM3_Init(void)
{
 8002444:	b580      	push	{r7, lr}
 8002446:	b086      	sub	sp, #24
 8002448:	af00      	add	r7, sp, #0

  /* USER CODE BEGIN TIM3_Init 0 */

  /* USER CODE END TIM3_Init 0 */

  TIM_ClockConfigTypeDef sClockSourceConfig = {0};
 800244a:	f107 0308 	add.w	r3, r7, #8
 800244e:	2200      	movs	r2, #0
 8002450:	601a      	str	r2, [r3, #0]
 8002452:	605a      	str	r2, [r3, #4]
 8002454:	609a      	str	r2, [r3, #8]
 8002456:	60da      	str	r2, [r3, #12]
  TIM_MasterConfigTypeDef sMasterConfig = {0};
 8002458:	463b      	mov	r3, r7
 800245a:	2200      	movs	r2, #0
 800245c:	601a      	str	r2, [r3, #0]
 800245e:	605a      	str	r2, [r3, #4]

  /* USER CODE BEGIN TIM3_Init 1 */

  /* USER CODE END TIM3_Init 1 */
  htim3.Instance = TIM3;
 8002460:	4b1d      	ldr	r3, [pc, #116]	; (80024d8 <MX_TIM3_Init+0x94>)
 8002462:	4a1e      	ldr	r2, [pc, #120]	; (80024dc <MX_TIM3_Init+0x98>)
 8002464:	601a      	str	r2, [r3, #0]
  htim3.Init.Prescaler = 1000-1;
 8002466:	4b1c      	ldr	r3, [pc, #112]	; (80024d8 <MX_TIM3_Init+0x94>)
 8002468:	f240 32e7 	movw	r2, #999	; 0x3e7
 800246c:	605a      	str	r2, [r3, #4]
  htim3.Init.CounterMode = TIM_COUNTERMODE_UP;
 800246e:	4b1a      	ldr	r3, [pc, #104]	; (80024d8 <MX_TIM3_Init+0x94>)
 8002470:	2200      	movs	r2, #0
 8002472:	609a      	str	r2, [r3, #8]
  htim3.Init.Period = 7200-1;
 8002474:	4b18      	ldr	r3, [pc, #96]	; (80024d8 <MX_TIM3_Init+0x94>)
 8002476:	f641 421f 	movw	r2, #7199	; 0x1c1f
 800247a:	60da      	str	r2, [r3, #12]
  htim3.Init.ClockDivision = TIM_CLOCKDIVISION_DIV1;
 800247c:	4b16      	ldr	r3, [pc, #88]	; (80024d8 <MX_TIM3_Init+0x94>)
 800247e:	2200      	movs	r2, #0
 8002480:	611a      	str	r2, [r3, #16]
  htim3.Init.AutoReloadPreload = TIM_AUTORELOAD_PRELOAD_DISABLE;
 8002482:	4b15      	ldr	r3, [pc, #84]	; (80024d8 <MX_TIM3_Init+0x94>)
 8002484:	2200      	movs	r2, #0
 8002486:	619a      	str	r2, [r3, #24]
  if (HAL_TIM_Base_Init(&htim3) != HAL_OK)
 8002488:	4813      	ldr	r0, [pc, #76]	; (80024d8 <MX_TIM3_Init+0x94>)
 800248a:	f003 fde9 	bl	8006060 <HAL_TIM_Base_Init>
 800248e:	4603      	mov	r3, r0
 8002490:	2b00      	cmp	r3, #0
 8002492:	d001      	beq.n	8002498 <MX_TIM3_Init+0x54>
  {
    Error_Handler();
 8002494:	f000 fa4e 	bl	8002934 <Error_Handler>
  }
  sClockSourceConfig.ClockSource = TIM_CLOCKSOURCE_INTERNAL;
 8002498:	f44f 5380 	mov.w	r3, #4096	; 0x1000
 800249c:	60bb      	str	r3, [r7, #8]
  if (HAL_TIM_ConfigClockSource(&htim3, &sClockSourceConfig) != HAL_OK)
 800249e:	f107 0308 	add.w	r3, r7, #8
 80024a2:	4619      	mov	r1, r3
 80024a4:	480c      	ldr	r0, [pc, #48]	; (80024d8 <MX_TIM3_Init+0x94>)
 80024a6:	f003 fffd 	bl	80064a4 <HAL_TIM_ConfigClockSource>
 80024aa:	4603      	mov	r3, r0
 80024ac:	2b00      	cmp	r3, #0
 80024ae:	d001      	beq.n	80024b4 <MX_TIM3_Init+0x70>
  {
    Error_Handler();
 80024b0:	f000 fa40 	bl	8002934 <Error_Handler>
  }
  sMasterConfig.MasterOutputTrigger = TIM_TRGO_RESET;
 80024b4:	2300      	movs	r3, #0
 80024b6:	603b      	str	r3, [r7, #0]
  sMasterConfig.MasterSlaveMode = TIM_MASTERSLAVEMODE_DISABLE;
 80024b8:	2300      	movs	r3, #0
 80024ba:	607b      	str	r3, [r7, #4]
  if (HAL_TIMEx_MasterConfigSynchronization(&htim3, &sMasterConfig) != HAL_OK)
 80024bc:	463b      	mov	r3, r7
 80024be:	4619      	mov	r1, r3
 80024c0:	4805      	ldr	r0, [pc, #20]	; (80024d8 <MX_TIM3_Init+0x94>)
 80024c2:	f004 f9cf 	bl	8006864 <HAL_TIMEx_MasterConfigSynchronization>
 80024c6:	4603      	mov	r3, r0
 80024c8:	2b00      	cmp	r3, #0
 80024ca:	d001      	beq.n	80024d0 <MX_TIM3_Init+0x8c>
  {
    Error_Handler();
 80024cc:	f000 fa32 	bl	8002934 <Error_Handler>
  }
  /* USER CODE BEGIN TIM3_Init 2 */

  /* USER CODE END TIM3_Init 2 */

}
 80024d0:	bf00      	nop
 80024d2:	3718      	adds	r7, #24
 80024d4:	46bd      	mov	sp, r7
 80024d6:	bd80      	pop	{r7, pc}
 80024d8:	2000041c 	.word	0x2000041c
 80024dc:	40000400 	.word	0x40000400

080024e0 <MX_TIM4_Init>:
  * @brief TIM4 Initialization Function
  * @param None
  * @retval None
  */
static void MX_TIM4_Init(void)
{
 80024e0:	b580      	push	{r7, lr}
 80024e2:	b086      	sub	sp, #24
 80024e4:	af00      	add	r7, sp, #0

  /* USER CODE BEGIN TIM4_Init 0 */

  /* USER CODE END TIM4_Init 0 */

  TIM_ClockConfigTypeDef sClockSourceConfig = {0};
 80024e6:	f107 0308 	add.w	r3, r7, #8
 80024ea:	2200      	movs	r2, #0
 80024ec:	601a      	str	r2, [r3, #0]
 80024ee:	605a      	str	r2, [r3, #4]
 80024f0:	609a      	str	r2, [r3, #8]
 80024f2:	60da      	str	r2, [r3, #12]
  TIM_MasterConfigTypeDef sMasterConfig = {0};
 80024f4:	463b      	mov	r3, r7
 80024f6:	2200      	movs	r2, #0
 80024f8:	601a      	str	r2, [r3, #0]
 80024fa:	605a      	str	r2, [r3, #4]

  /* USER CODE BEGIN TIM4_Init 1 */

  /* USER CODE END TIM4_Init 1 */
  htim4.Instance = TIM4;
 80024fc:	4b1d      	ldr	r3, [pc, #116]	; (8002574 <MX_TIM4_Init+0x94>)
 80024fe:	4a1e      	ldr	r2, [pc, #120]	; (8002578 <MX_TIM4_Init+0x98>)
 8002500:	601a      	str	r2, [r3, #0]
  htim4.Init.Prescaler = 0;
 8002502:	4b1c      	ldr	r3, [pc, #112]	; (8002574 <MX_TIM4_Init+0x94>)
 8002504:	2200      	movs	r2, #0
 8002506:	605a      	str	r2, [r3, #4]
  htim4.Init.CounterMode = TIM_COUNTERMODE_UP;
 8002508:	4b1a      	ldr	r3, [pc, #104]	; (8002574 <MX_TIM4_Init+0x94>)
 800250a:	2200      	movs	r2, #0
 800250c:	609a      	str	r2, [r3, #8]
  htim4.Init.Period = 65535;
 800250e:	4b19      	ldr	r3, [pc, #100]	; (8002574 <MX_TIM4_Init+0x94>)
 8002510:	f64f 72ff 	movw	r2, #65535	; 0xffff
 8002514:	60da      	str	r2, [r3, #12]
  htim4.Init.ClockDivision = TIM_CLOCKDIVISION_DIV1;
 8002516:	4b17      	ldr	r3, [pc, #92]	; (8002574 <MX_TIM4_Init+0x94>)
 8002518:	2200      	movs	r2, #0
 800251a:	611a      	str	r2, [r3, #16]
  htim4.Init.AutoReloadPreload = TIM_AUTORELOAD_PRELOAD_DISABLE;
 800251c:	4b15      	ldr	r3, [pc, #84]	; (8002574 <MX_TIM4_Init+0x94>)
 800251e:	2200      	movs	r2, #0
 8002520:	619a      	str	r2, [r3, #24]
  if (HAL_TIM_Base_Init(&htim4) != HAL_OK)
 8002522:	4814      	ldr	r0, [pc, #80]	; (8002574 <MX_TIM4_Init+0x94>)
 8002524:	f003 fd9c 	bl	8006060 <HAL_TIM_Base_Init>
 8002528:	4603      	mov	r3, r0
 800252a:	2b00      	cmp	r3, #0
 800252c:	d001      	beq.n	8002532 <MX_TIM4_Init+0x52>
  {
    Error_Handler();
 800252e:	f000 fa01 	bl	8002934 <Error_Handler>
  }
  sClockSourceConfig.ClockSource = TIM_CLOCKSOURCE_INTERNAL;
 8002532:	f44f 5380 	mov.w	r3, #4096	; 0x1000
 8002536:	60bb      	str	r3, [r7, #8]
  if (HAL_TIM_ConfigClockSource(&htim4, &sClockSourceConfig) != HAL_OK)
 8002538:	f107 0308 	add.w	r3, r7, #8
 800253c:	4619      	mov	r1, r3
 800253e:	480d      	ldr	r0, [pc, #52]	; (8002574 <MX_TIM4_Init+0x94>)
 8002540:	f003 ffb0 	bl	80064a4 <HAL_TIM_ConfigClockSource>
 8002544:	4603      	mov	r3, r0
 8002546:	2b00      	cmp	r3, #0
 8002548:	d001      	beq.n	800254e <MX_TIM4_Init+0x6e>
  {
    Error_Handler();
 800254a:	f000 f9f3 	bl	8002934 <Error_Handler>
  }
  sMasterConfig.MasterOutputTrigger = TIM_TRGO_RESET;
 800254e:	2300      	movs	r3, #0
 8002550:	603b      	str	r3, [r7, #0]
  sMasterConfig.MasterSlaveMode = TIM_MASTERSLAVEMODE_DISABLE;
 8002552:	2300      	movs	r3, #0
 8002554:	607b      	str	r3, [r7, #4]
  if (HAL_TIMEx_MasterConfigSynchronization(&htim4, &sMasterConfig) != HAL_OK)
 8002556:	463b      	mov	r3, r7
 8002558:	4619      	mov	r1, r3
 800255a:	4806      	ldr	r0, [pc, #24]	; (8002574 <MX_TIM4_Init+0x94>)
 800255c:	f004 f982 	bl	8006864 <HAL_TIMEx_MasterConfigSynchronization>
 8002560:	4603      	mov	r3, r0
 8002562:	2b00      	cmp	r3, #0
 8002564:	d001      	beq.n	800256a <MX_TIM4_Init+0x8a>
  {
    Error_Handler();
 8002566:	f000 f9e5 	bl	8002934 <Error_Handler>
  }
  /* USER CODE BEGIN TIM4_Init 2 */

  /* USER CODE END TIM4_Init 2 */

}
 800256a:	bf00      	nop
 800256c:	3718      	adds	r7, #24
 800256e:	46bd      	mov	sp, r7
 8002570:	bd80      	pop	{r7, pc}
 8002572:	bf00      	nop
 8002574:	200003d4 	.word	0x200003d4
 8002578:	40000800 	.word	0x40000800

0800257c <MX_GPIO_Init>:
  * @brief GPIO Initialization Function
  * @param None
  * @retval None
  */
static void MX_GPIO_Init(void)
{
 800257c:	b580      	push	{r7, lr}
 800257e:	b088      	sub	sp, #32
 8002580:	af00      	add	r7, sp, #0
  GPIO_InitTypeDef GPIO_InitStruct = {0};
 8002582:	f107 0310 	add.w	r3, r7, #16
 8002586:	2200      	movs	r2, #0
 8002588:	601a      	str	r2, [r3, #0]
 800258a:	605a      	str	r2, [r3, #4]
 800258c:	609a      	str	r2, [r3, #8]
 800258e:	60da      	str	r2, [r3, #12]

  /* GPIO Ports Clock Enable */
  __HAL_RCC_GPIOC_CLK_ENABLE();
 8002590:	4b7e      	ldr	r3, [pc, #504]	; (800278c <MX_GPIO_Init+0x210>)
 8002592:	699b      	ldr	r3, [r3, #24]
 8002594:	4a7d      	ldr	r2, [pc, #500]	; (800278c <MX_GPIO_Init+0x210>)
 8002596:	f043 0310 	orr.w	r3, r3, #16
 800259a:	6193      	str	r3, [r2, #24]
 800259c:	4b7b      	ldr	r3, [pc, #492]	; (800278c <MX_GPIO_Init+0x210>)
 800259e:	699b      	ldr	r3, [r3, #24]
 80025a0:	f003 0310 	and.w	r3, r3, #16
 80025a4:	60fb      	str	r3, [r7, #12]
 80025a6:	68fb      	ldr	r3, [r7, #12]
  __HAL_RCC_GPIOD_CLK_ENABLE();
 80025a8:	4b78      	ldr	r3, [pc, #480]	; (800278c <MX_GPIO_Init+0x210>)
 80025aa:	699b      	ldr	r3, [r3, #24]
 80025ac:	4a77      	ldr	r2, [pc, #476]	; (800278c <MX_GPIO_Init+0x210>)
 80025ae:	f043 0320 	orr.w	r3, r3, #32
 80025b2:	6193      	str	r3, [r2, #24]
 80025b4:	4b75      	ldr	r3, [pc, #468]	; (800278c <MX_GPIO_Init+0x210>)
 80025b6:	699b      	ldr	r3, [r3, #24]
 80025b8:	f003 0320 	and.w	r3, r3, #32
 80025bc:	60bb      	str	r3, [r7, #8]
 80025be:	68bb      	ldr	r3, [r7, #8]
  __HAL_RCC_GPIOA_CLK_ENABLE();
 80025c0:	4b72      	ldr	r3, [pc, #456]	; (800278c <MX_GPIO_Init+0x210>)
 80025c2:	699b      	ldr	r3, [r3, #24]
 80025c4:	4a71      	ldr	r2, [pc, #452]	; (800278c <MX_GPIO_Init+0x210>)
 80025c6:	f043 0304 	orr.w	r3, r3, #4
 80025ca:	6193      	str	r3, [r2, #24]
 80025cc:	4b6f      	ldr	r3, [pc, #444]	; (800278c <MX_GPIO_Init+0x210>)
 80025ce:	699b      	ldr	r3, [r3, #24]
 80025d0:	f003 0304 	and.w	r3, r3, #4
 80025d4:	607b      	str	r3, [r7, #4]
 80025d6:	687b      	ldr	r3, [r7, #4]
  __HAL_RCC_GPIOB_CLK_ENABLE();
 80025d8:	4b6c      	ldr	r3, [pc, #432]	; (800278c <MX_GPIO_Init+0x210>)
 80025da:	699b      	ldr	r3, [r3, #24]
 80025dc:	4a6b      	ldr	r2, [pc, #428]	; (800278c <MX_GPIO_Init+0x210>)
 80025de:	f043 0308 	orr.w	r3, r3, #8
 80025e2:	6193      	str	r3, [r2, #24]
 80025e4:	4b69      	ldr	r3, [pc, #420]	; (800278c <MX_GPIO_Init+0x210>)
 80025e6:	699b      	ldr	r3, [r3, #24]
 80025e8:	f003 0308 	and.w	r3, r3, #8
 80025ec:	603b      	str	r3, [r7, #0]
 80025ee:	683b      	ldr	r3, [r7, #0]

  /*Configure GPIO pin Output Level */
  HAL_GPIO_WritePin(ledHeartBeat_GPIO_Port, ledHeartBeat_Pin, GPIO_PIN_RESET);
 80025f0:	2200      	movs	r2, #0
 80025f2:	f44f 5100 	mov.w	r1, #8192	; 0x2000
 80025f6:	4866      	ldr	r0, [pc, #408]	; (8002790 <MX_GPIO_Init+0x214>)
 80025f8:	f001 f8c9 	bl	800378e <HAL_GPIO_WritePin>

  /*Configure GPIO pin Output Level */
  HAL_GPIO_WritePin(GPIOA, Fan_Pin|D5_Pin|D6_Pin|D7_Pin, GPIO_PIN_RESET);
 80025fc:	2200      	movs	r2, #0
 80025fe:	f240 7102 	movw	r1, #1794	; 0x702
 8002602:	4864      	ldr	r0, [pc, #400]	; (8002794 <MX_GPIO_Init+0x218>)
 8002604:	f001 f8c3 	bl	800378e <HAL_GPIO_WritePin>

  /*Configure GPIO pin Output Level */
  HAL_GPIO_WritePin(GPIOA, ADC_CONVST_Pin|DAC_CS_Pin, GPIO_PIN_SET);
 8002608:	2201      	movs	r2, #1
 800260a:	210c      	movs	r1, #12
 800260c:	4861      	ldr	r0, [pc, #388]	; (8002794 <MX_GPIO_Init+0x218>)
 800260e:	f001 f8be 	bl	800378e <HAL_GPIO_WritePin>

  /*Configure GPIO pin Output Level */
  HAL_GPIO_WritePin(ADC_CS_GPIO_Port, ADC_CS_Pin, GPIO_PIN_SET);
 8002612:	2201      	movs	r2, #1
 8002614:	2101      	movs	r1, #1
 8002616:	4860      	ldr	r0, [pc, #384]	; (8002798 <MX_GPIO_Init+0x21c>)
 8002618:	f001 f8b9 	bl	800378e <HAL_GPIO_WritePin>

  /*Configure GPIO pin Output Level */
  HAL_GPIO_WritePin(GPIOB, LoadOnOff_Pin|RS_Pin|E_Pin|D4_Pin
 800261c:	2200      	movs	r2, #0
 800261e:	f24f 31c0 	movw	r1, #62400	; 0xf3c0
 8002622:	485d      	ldr	r0, [pc, #372]	; (8002798 <MX_GPIO_Init+0x21c>)
 8002624:	f001 f8b3 	bl	800378e <HAL_GPIO_WritePin>
                          |KP_F1_Pin|KP_F2_Pin|KP_F3_Pin|KP_F4_Pin, GPIO_PIN_RESET);

  /*Configure GPIO pin : ledHeartBeat_Pin */
  GPIO_InitStruct.Pin = ledHeartBeat_Pin;
 8002628:	f44f 5300 	mov.w	r3, #8192	; 0x2000
 800262c:	613b      	str	r3, [r7, #16]
  GPIO_InitStruct.Mode = GPIO_MODE_OUTPUT_PP;
 800262e:	2301      	movs	r3, #1
 8002630:	617b      	str	r3, [r7, #20]
  GPIO_InitStruct.Pull = GPIO_NOPULL;
 8002632:	2300      	movs	r3, #0
 8002634:	61bb      	str	r3, [r7, #24]
  GPIO_InitStruct.Speed = GPIO_SPEED_FREQ_LOW;
 8002636:	2302      	movs	r3, #2
 8002638:	61fb      	str	r3, [r7, #28]
  HAL_GPIO_Init(ledHeartBeat_GPIO_Port, &GPIO_InitStruct);
 800263a:	f107 0310 	add.w	r3, r7, #16
 800263e:	4619      	mov	r1, r3
 8002640:	4853      	ldr	r0, [pc, #332]	; (8002790 <MX_GPIO_Init+0x214>)
 8002642:	f000 ff09 	bl	8003458 <HAL_GPIO_Init>

  /*Configure GPIO pin : OCP_Pin */
  GPIO_InitStruct.Pin = OCP_Pin;
 8002646:	f44f 4300 	mov.w	r3, #32768	; 0x8000
 800264a:	613b      	str	r3, [r7, #16]
  GPIO_InitStruct.Mode = GPIO_MODE_INPUT;
 800264c:	2300      	movs	r3, #0
 800264e:	617b      	str	r3, [r7, #20]
  GPIO_InitStruct.Pull = GPIO_NOPULL;
 8002650:	2300      	movs	r3, #0
 8002652:	61bb      	str	r3, [r7, #24]
  HAL_GPIO_Init(OCP_GPIO_Port, &GPIO_InitStruct);
 8002654:	f107 0310 	add.w	r3, r7, #16
 8002658:	4619      	mov	r1, r3
 800265a:	484d      	ldr	r0, [pc, #308]	; (8002790 <MX_GPIO_Init+0x214>)
 800265c:	f000 fefc 	bl	8003458 <HAL_GPIO_Init>

  /*Configure GPIO pins : Fan_Pin ADC_CONVST_Pin DAC_CS_Pin D5_Pin
                           D6_Pin D7_Pin */
  GPIO_InitStruct.Pin = Fan_Pin|ADC_CONVST_Pin|DAC_CS_Pin|D5_Pin
 8002660:	f240 730e 	movw	r3, #1806	; 0x70e
 8002664:	613b      	str	r3, [r7, #16]
                          |D6_Pin|D7_Pin;
  GPIO_InitStruct.Mode = GPIO_MODE_OUTPUT_PP;
 8002666:	2301      	movs	r3, #1
 8002668:	617b      	str	r3, [r7, #20]
  GPIO_InitStruct.Pull = GPIO_NOPULL;
 800266a:	2300      	movs	r3, #0
 800266c:	61bb      	str	r3, [r7, #24]
  GPIO_InitStruct.Speed = GPIO_SPEED_FREQ_LOW;
 800266e:	2302      	movs	r3, #2
 8002670:	61fb      	str	r3, [r7, #28]
  HAL_GPIO_Init(GPIOA, &GPIO_InitStruct);
 8002672:	f107 0310 	add.w	r3, r7, #16
 8002676:	4619      	mov	r1, r3
 8002678:	4846      	ldr	r0, [pc, #280]	; (8002794 <MX_GPIO_Init+0x218>)
 800267a:	f000 feed 	bl	8003458 <HAL_GPIO_Init>

  /*Configure GPIO pin : ADC_EOC_Pin */
  GPIO_InitStruct.Pin = ADC_EOC_Pin;
 800267e:	2310      	movs	r3, #16
 8002680:	613b      	str	r3, [r7, #16]
  GPIO_InitStruct.Mode = GPIO_MODE_INPUT;
 8002682:	2300      	movs	r3, #0
 8002684:	617b      	str	r3, [r7, #20]
  GPIO_InitStruct.Pull = GPIO_NOPULL;
 8002686:	2300      	movs	r3, #0
 8002688:	61bb      	str	r3, [r7, #24]
  HAL_GPIO_Init(ADC_EOC_GPIO_Port, &GPIO_InitStruct);
 800268a:	f107 0310 	add.w	r3, r7, #16
 800268e:	4619      	mov	r1, r3
 8002690:	4840      	ldr	r0, [pc, #256]	; (8002794 <MX_GPIO_Init+0x218>)
 8002692:	f000 fee1 	bl	8003458 <HAL_GPIO_Init>

  /*Configure GPIO pins : ADC_CS_Pin LoadOnOff_Pin RS_Pin E_Pin
                           D4_Pin KP_F1_Pin KP_F2_Pin KP_F3_Pin
                           KP_F4_Pin */
  GPIO_InitStruct.Pin = ADC_CS_Pin|LoadOnOff_Pin|RS_Pin|E_Pin
 8002696:	f24f 33c1 	movw	r3, #62401	; 0xf3c1
 800269a:	613b      	str	r3, [r7, #16]
                          |D4_Pin|KP_F1_Pin|KP_F2_Pin|KP_F3_Pin
                          |KP_F4_Pin;
  GPIO_InitStruct.Mode = GPIO_MODE_OUTPUT_PP;
 800269c:	2301      	movs	r3, #1
 800269e:	617b      	str	r3, [r7, #20]
  GPIO_InitStruct.Pull = GPIO_NOPULL;
 80026a0:	2300      	movs	r3, #0
 80026a2:	61bb      	str	r3, [r7, #24]
  GPIO_InitStruct.Speed = GPIO_SPEED_FREQ_LOW;
 80026a4:	2302      	movs	r3, #2
 80026a6:	61fb      	str	r3, [r7, #28]
  HAL_GPIO_Init(GPIOB, &GPIO_InitStruct);
 80026a8:	f107 0310 	add.w	r3, r7, #16
 80026ac:	4619      	mov	r1, r3
 80026ae:	483a      	ldr	r0, [pc, #232]	; (8002798 <MX_GPIO_Init+0x21c>)
 80026b0:	f000 fed2 	bl	8003458 <HAL_GPIO_Init>

  /*Configure GPIO pin : ENC_CH_A_Pin */
  GPIO_InitStruct.Pin = ENC_CH_A_Pin;
 80026b4:	2302      	movs	r3, #2
 80026b6:	613b      	str	r3, [r7, #16]
  GPIO_InitStruct.Mode = GPIO_MODE_IT_RISING;
 80026b8:	4b38      	ldr	r3, [pc, #224]	; (800279c <MX_GPIO_Init+0x220>)
 80026ba:	617b      	str	r3, [r7, #20]
  GPIO_InitStruct.Pull = GPIO_NOPULL;
 80026bc:	2300      	movs	r3, #0
 80026be:	61bb      	str	r3, [r7, #24]
  HAL_GPIO_Init(ENC_CH_A_GPIO_Port, &GPIO_InitStruct);
 80026c0:	f107 0310 	add.w	r3, r7, #16
 80026c4:	4619      	mov	r1, r3
 80026c6:	4834      	ldr	r0, [pc, #208]	; (8002798 <MX_GPIO_Init+0x21c>)
 80026c8:	f000 fec6 	bl	8003458 <HAL_GPIO_Init>

  /*Configure GPIO pins : RVP_Pin ENC_CH_B_Pin */
  GPIO_InitStruct.Pin = RVP_Pin|ENC_CH_B_Pin;
 80026cc:	f240 4304 	movw	r3, #1028	; 0x404
 80026d0:	613b      	str	r3, [r7, #16]
  GPIO_InitStruct.Mode = GPIO_MODE_INPUT;
 80026d2:	2300      	movs	r3, #0
 80026d4:	617b      	str	r3, [r7, #20]
  GPIO_InitStruct.Pull = GPIO_NOPULL;
 80026d6:	2300      	movs	r3, #0
 80026d8:	61bb      	str	r3, [r7, #24]
  HAL_GPIO_Init(GPIOB, &GPIO_InitStruct);
 80026da:	f107 0310 	add.w	r3, r7, #16
 80026de:	4619      	mov	r1, r3
 80026e0:	482d      	ldr	r0, [pc, #180]	; (8002798 <MX_GPIO_Init+0x21c>)
 80026e2:	f000 feb9 	bl	8003458 <HAL_GPIO_Init>

  /*Configure GPIO pin : ENC_BUTTON_Pin */
  GPIO_InitStruct.Pin = ENC_BUTTON_Pin;
 80026e6:	f44f 6300 	mov.w	r3, #2048	; 0x800
 80026ea:	613b      	str	r3, [r7, #16]
  GPIO_InitStruct.Mode = GPIO_MODE_IT_FALLING;
 80026ec:	4b2c      	ldr	r3, [pc, #176]	; (80027a0 <MX_GPIO_Init+0x224>)
 80026ee:	617b      	str	r3, [r7, #20]
  GPIO_InitStruct.Pull = GPIO_NOPULL;
 80026f0:	2300      	movs	r3, #0
 80026f2:	61bb      	str	r3, [r7, #24]
  HAL_GPIO_Init(ENC_BUTTON_GPIO_Port, &GPIO_InitStruct);
 80026f4:	f107 0310 	add.w	r3, r7, #16
 80026f8:	4619      	mov	r1, r3
 80026fa:	4827      	ldr	r0, [pc, #156]	; (8002798 <MX_GPIO_Init+0x21c>)
 80026fc:	f000 feac 	bl	8003458 <HAL_GPIO_Init>

  /*Configure GPIO pin : KP_C1_Pin */
  GPIO_InitStruct.Pin = KP_C1_Pin;
